{
  "abi": [
    {
      "inputs": [
        {
          "internalType": "bytes32",
          "name": "hash",
          "type": "bytes32"
        },
        {
          "internalType": "bytes",
          "name": "signature",
          "type": "bytes"
        }
      ],
      "name": "isValidSignature",
      "outputs": [
        {
          "internalType": "bytes4",
          "name": "magicValue",
          "type": "bytes4"
        }
      ],
      "stateMutability": "view",
      "type": "function"
    },
    {
      "inputs": [
        {
          "internalType": "bytes32",
          "name": "hash",
          "type": "bytes32"
        },
        {
          "internalType": "bytes",
          "name": "signature",
          "type": "bytes"
        }
      ],
      "name": "mockSignature",
      "outputs": [],
      "stateMutability": "nonpayable",
      "type": "function"
    }
  ],
  "bytecode": {
    "object": "0x608060405234801561001057600080fd5b506103b6806100206000396000f3fe608060405234801561001057600080fd5b50600436106100365760003560e01c80631626ba7e1461003b578063ba9d2acb1461006b575b600080fd5b61004e610049366004610194565b610080565b6040516001600160e01b0319909116815260200160405180910390f35b61007e610079366004610194565b610175565b005b6000838152602081905260408120805482919061009c90610210565b80601f01602080910402602001604051908101604052809291908181526020018280546100c890610210565b80156101155780601f106100ea57610100808354040283529160200191610115565b820191906000526020600020905b8154815290600101906020018083116100f857829003601f168201915b5050505050905083839050815114801561014c5750838360405161013a92919061024a565b60405180910390208180519060200120145b156101615750630b135d3f60e11b905061016e565b506001600160e01b031990505b9392505050565b600083815260208190526040902061018e8284836102bf565b50505050565b6000806000604084860312156101a957600080fd5b83359250602084013567ffffffffffffffff808211156101c857600080fd5b818601915086601f8301126101dc57600080fd5b8135818111156101eb57600080fd5b8760208285010111156101fd57600080fd5b6020830194508093505050509250925092565b600181811c9082168061022457607f821691505b60208210810361024457634e487b7160e01b600052602260045260246000fd5b50919050565b8183823760009101908152919050565b634e487b7160e01b600052604160045260246000fd5b601f8211156102ba57600081815260208120601f850160051c810160208610156102975750805b601f850160051c820191505b818110156102b6578281556001016102a3565b5050505b505050565b67ffffffffffffffff8311156102d7576102d761025a565b6102eb836102e58354610210565b83610270565b6000601f84116001811461031f57600085156103075750838201355b600019600387901b1c1916600186901b178355610379565b600083815260209020601f19861690835b828110156103505786850135825560209485019460019092019101610330565b508682101561036d5760001960f88860031b161c19848701351681555b505060018560011b0183555b505050505056fea26469706673582212201552ca78bd9bf8597c214be66cc227fce2c5381872b8af0e106717695b0d346d64736f6c63430008130033",
    "linkReferences": {}
  },
  "methodIdentifiers": {
    "isValidSignature(bytes32,bytes)": "1626ba7e",
    "mockSignature(bytes32,bytes)": "ba9d2acb"
  },
  "id": 57
}