{
  "abi": [
    {
      "inputs": [
        {
          "internalType": "contract IEAS",
          "name": "eas",
          "type": "address"
        }
      ],
      "stateMutability": "nonpayable",
      "type": "constructor"
    },
    {
      "inputs": [],
      "name": "InvalidAttestation",
      "type": "error"
    },
    {
      "inputs": [],
      "name": "InvalidEAS",
      "type": "error"
    },
    {
      "inputs": [],
      "name": "InvalidOffset",
      "type": "error"
    },
    {
      "anonymous": false,
      "inputs": [
        {
          "indexed": true,
          "internalType": "bytes32",
          "name": "uid",
          "type": "bytes32"
        }
      ],
      "name": "Indexed",
      "type": "event"
    },
    {
      "inputs": [],
      "name": "getEAS",
      "outputs": [
        {
          "internalType": "contract IEAS",
          "name": "",
          "type": "address"
        }
      ],
      "stateMutability": "view",
      "type": "function"
    },
    {
      "inputs": [
        {
          "internalType": "address",
          "name": "recipient",
          "type": "address"
        },
        {
          "internalType": "bytes32",
          "name": "schemaUID",
          "type": "bytes32"
        }
      ],
      "name": "getReceivedAttestationUIDCount",
      "outputs": [
        {
          "internalType": "uint256",
          "name": "",
          "type": "uint256"
        }
      ],
      "stateMutability": "view",
      "type": "function"
    },
    {
      "inputs": [
        {
          "internalType": "address",
          "name": "recipient",
          "type": "address"
        },
        {
          "internalType": "bytes32",
          "name": "schemaUID",
          "type": "bytes32"
        },
        {
          "internalType": "uint256",
          "name": "start",
          "type": "uint256"
        },
        {
          "internalType": "uint256",
          "name": "length",
          "type": "uint256"
        },
        {
          "internalType": "bool",
          "name": "reverseOrder",
          "type": "bool"
        }
      ],
      "name": "getReceivedAttestationUIDs",
      "outputs": [
        {
          "internalType": "bytes32[]",
          "name": "",
          "type": "bytes32[]"
        }
      ],
      "stateMutability": "view",
      "type": "function"
    },
    {
      "inputs": [
        {
          "internalType": "bytes32",
          "name": "schemaUID",
          "type": "bytes32"
        }
      ],
      "name": "getSchemaAttestationUIDCount",
      "outputs": [
        {
          "internalType": "uint256",
          "name": "",
          "type": "uint256"
        }
      ],
      "stateMutability": "view",
      "type": "function"
    },
    {
      "inputs": [
        {
          "internalType": "bytes32",
          "name": "schemaUID",
          "type": "bytes32"
        },
        {
          "internalType": "uint256",
          "name": "start",
          "type": "uint256"
        },
        {
          "internalType": "uint256",
          "name": "length",
          "type": "uint256"
        },
        {
          "internalType": "bool",
          "name": "reverseOrder",
          "type": "bool"
        }
      ],
      "name": "getSchemaAttestationUIDs",
      "outputs": [
        {
          "internalType": "bytes32[]",
          "name": "",
          "type": "bytes32[]"
        }
      ],
      "stateMutability": "view",
      "type": "function"
    },
    {
      "inputs": [
        {
          "internalType": "bytes32",
          "name": "schemaUID",
          "type": "bytes32"
        },
        {
          "internalType": "address",
          "name": "attester",
          "type": "address"
        },
        {
          "internalType": "address",
          "name": "recipient",
          "type": "address"
        }
      ],
      "name": "getSchemaAttesterRecipientAttestationUIDCount",
      "outputs": [
        {
          "internalType": "uint256",
          "name": "",
          "type": "uint256"
        }
      ],
      "stateMutability": "view",
      "type": "function"
    },
    {
      "inputs": [
        {
          "internalType": "bytes32",
          "name": "schemaUID",
          "type": "bytes32"
        },
        {
          "internalType": "address",
          "name": "attester",
          "type": "address"
        },
        {
          "internalType": "address",
          "name": "recipient",
          "type": "address"
        },
        {
          "internalType": "uint256",
          "name": "start",
          "type": "uint256"
        },
        {
          "internalType": "uint256",
          "name": "length",
          "type": "uint256"
        },
        {
          "internalType": "bool",
          "name": "reverseOrder",
          "type": "bool"
        }
      ],
      "name": "getSchemaAttesterRecipientAttestationUIDs",
      "outputs": [
        {
          "internalType": "bytes32[]",
          "name": "",
          "type": "bytes32[]"
        }
      ],
      "stateMutability": "view",
      "type": "function"
    },
    {
      "inputs": [
        {
          "internalType": "address",
          "name": "attester",
          "type": "address"
        },
        {
          "internalType": "bytes32",
          "name": "schemaUID",
          "type": "bytes32"
        }
      ],
      "name": "getSentAttestationUIDCount",
      "outputs": [
        {
          "internalType": "uint256",
          "name": "",
          "type": "uint256"
        }
      ],
      "stateMutability": "view",
      "type": "function"
    },
    {
      "inputs": [
        {
          "internalType": "address",
          "name": "attester",
          "type": "address"
        },
        {
          "internalType": "bytes32",
          "name": "schemaUID",
          "type": "bytes32"
        },
        {
          "internalType": "uint256",
          "name": "start",
          "type": "uint256"
        },
        {
          "internalType": "uint256",
          "name": "length",
          "type": "uint256"
        },
        {
          "internalType": "bool",
          "name": "reverseOrder",
          "type": "bool"
        }
      ],
      "name": "getSentAttestationUIDs",
      "outputs": [
        {
          "internalType": "bytes32[]",
          "name": "",
          "type": "bytes32[]"
        }
      ],
      "stateMutability": "view",
      "type": "function"
    },
    {
      "inputs": [
        {
          "internalType": "bytes32",
          "name": "attestationUID",
          "type": "bytes32"
        }
      ],
      "name": "indexAttestation",
      "outputs": [],
      "stateMutability": "nonpayable",
      "type": "function"
    },
    {
      "inputs": [
        {
          "internalType": "bytes32[]",
          "name": "attestationUIDs",
          "type": "bytes32[]"
        }
      ],
      "name": "indexAttestations",
      "outputs": [],
      "stateMutability": "nonpayable",
      "type": "function"
    },
    {
      "inputs": [
        {
          "internalType": "bytes32",
          "name": "attestationUID",
          "type": "bytes32"
        }
      ],
      "name": "isAttestationIndexed",
      "outputs": [
        {
          "internalType": "bool",
          "name": "",
          "type": "bool"
        }
      ],
      "stateMutability": "view",
      "type": "function"
    },
    {
      "inputs": [],
      "name": "version",
      "outputs": [
        {
          "internalType": "string",
          "name": "",
          "type": "string"
        }
      ],
      "stateMutability": "view",
      "type": "function"
    }
  ],
  "bytecode": {
    "object": "0x61010060405234801561001157600080fd5b5060405161100138038061100183398101604081905261003091610077565b6001608052600360a052600060c0526001600160a01b038116610066576040516341bc07ff60e11b815260040160405180910390fd5b6001600160a01b031660e0526100a7565b60006020828403121561008957600080fd5b81516001600160a01b03811681146100a057600080fd5b9392505050565b60805160a05160c05160e051610f1a6100e7600039600081816101b3015261076a01526000610308015260006102df015260006102b60152610f1a6000f3fe608060405234801561001057600080fd5b50600436106100cf5760003560e01c8063715ecdf61161008c578063b616352a11610066578063b616352a14610236578063bbbdc8181461024b578063ea51994b1461025e578063ec864cba1461029c57600080fd5b8063715ecdf6146101dd57806389a82fbe146101f0578063af288efe1461022357600080fd5b80632412e9cc146100d4578063288a0a7b1461011b5780632f45f90e1461015157806354fd4d501461017157806363bbf81b1461018657806365c40b9c146101a6575b600080fd5b6101086100e23660046109e9565b6001600160a01b0391909116600090815260208181526040808320938352929052205490565b6040519081526020015b60405180910390f35b6101086101293660046109e9565b6001600160a01b03919091166000908152600160209081526040808320938352929052205490565b61010861015f366004610a15565b60009081526003602052604090205490565b6101796102af565b6040516101129190610a52565b610199610194366004610a93565b610352565b6040516101129190610ad4565b6040516001600160a01b037f0000000000000000000000000000000000000000000000000000000000000000168152602001610112565b6101996101eb366004610b18565b6103cc565b6102136101fe366004610a15565b60009081526004602052604090205460ff1690565b6040519015158152602001610112565b610199610231366004610b7f565b61045c565b610249610244366004610bd5565b6104de565b005b610249610259366004610a15565b610519565b61010861026c366004610c4a565b60009283526002602090815260408085206001600160a01b03948516865282528085209290931684525290205490565b6101996102aa366004610b7f565b610525565b60606102da7f000000000000000000000000000000000000000000000000000000000000000061059f565b6103037f000000000000000000000000000000000000000000000000000000000000000061059f565b61032c7f000000000000000000000000000000000000000000000000000000000000000061059f565b60405160200161033e93929190610c8c565b604051602081830303815290604052905090565b60606103c1600360008781526020019081526020016000208054806020026020016040519081016040528092919081815260200182805480156103b457602002820191906000526020600020905b8154815260200190600101908083116103a0575b5050505050858585610632565b90505b949350505050565b60008681526002602090815260408083206001600160a01b03808a1685529083528184209088168452825291829020805483518184028101840190945280845260609361045193909291908301828280156103b457602002820191906000526020600020908154815260200190600101908083116103a0575050505050858585610632565b979650505050505050565b6001600160a01b03851660009081526020818152604080832087845282529182902080548351818402810184019094528084526060936104d493909291908301828280156103b457602002820191906000526020600020908154815260200190600101908083116103a0575050505050858585610632565b9695505050505050565b8060005b818110156105135761050b8484838181106104ff576104ff610ce6565b90506020020135610737565b6001016104e2565b50505050565b61052281610737565b50565b6001600160a01b038516600090815260016020908152604080832087845282529182902080548351818402810184019094528084526060936104d493909291908301828280156103b457602002820191906000526020600020908154815260200190600101908083116103a0575050505050858585610632565b606060006105ac836108fb565b600101905060008167ffffffffffffffff8111156105cc576105cc610cfc565b6040519080825280601f01601f1916602001820160405280156105f6576020820181803683370190505b5090508181016020015b600019016f181899199a1a9b1b9c1cb0b131b232b360811b600a86061a8153600a850494508461060057509392505050565b835160609060008190036106565750506040805160008152602081019091526103c4565b8085106106755760405162ed0ab960e11b815260040160405180910390fd5b8385810182101561068557508481035b60008167ffffffffffffffff8111156106a0576106a0610cfc565b6040519080825280602002602001820160405280156106c9578160200160208202803683370190505b50905060005b8281101561072b5788866106e5578189016106ee565b81890160010185035b815181106106fe576106fe610ce6565b602002602001015182828151811061071857610718610ce6565b60209081029190910101526001016106cf565b50979650505050505050565b60008181526004602052604090205460ff16156107515750565b6040516328c44a9960e21b8152600481018290526000907f00000000000000000000000000000000000000000000000000000000000000006001600160a01b03169063a3112a6490602401600060405180830381865afa1580156107b9573d6000803e3d6000fd5b505050506040513d6000823e601f3d908101601f191682016040526107e19190810190610ded565b8051909150806108045760405163bd8ba84d60e01b815260040160405180910390fd5b60e082015160c08301516020808501516000878152600483526040808220805460ff191660019081179091558383526003855281832080548083018255908452858420018a90556001600160a01b03808716808552848752838520868652875283852080548085018255908652878620018c9055908816808552828752838520868652875283852080548085018255908652878620018c905585855260028752838520908552865282842090845285528183208054918201815583529382209093018890559151909185917f2178f435e9624d54115e1d50a7313c90518a363b292678118444c0a239f11cf99190a2505050505050565b60008072184f03e93ff9f4daa797ed6e38ed64bf6a1f0160401b831061093a5772184f03e93ff9f4daa797ed6e38ed64bf6a1f0160401b830492506040015b6d04ee2d6d415b85acef81000000008310610966576d04ee2d6d415b85acef8100000000830492506020015b662386f26fc10000831061098457662386f26fc10000830492506010015b6305f5e100831061099c576305f5e100830492506008015b61271083106109b057612710830492506004015b606483106109c2576064830492506002015b600a83106109ce576001015b92915050565b6001600160a01b038116811461052257600080fd5b600080604083850312156109fc57600080fd5b8235610a07816109d4565b946020939093013593505050565b600060208284031215610a2757600080fd5b5035919050565b60005b83811015610a49578181015183820152602001610a31565b50506000910152565b6020815260008251806020840152610a71816040850160208701610a2e565b601f01601f19169190910160400192915050565b801515811461052257600080fd5b60008060008060808587031215610aa957600080fd5b8435935060208501359250604085013591506060850135610ac981610a85565b939692955090935050565b6020808252825182820181905260009190848201906040850190845b81811015610b0c57835183529284019291840191600101610af0565b50909695505050505050565b60008060008060008060c08789031215610b3157600080fd5b863595506020870135610b43816109d4565b94506040870135610b53816109d4565b9350606087013592506080870135915060a0870135610b7181610a85565b809150509295509295509295565b600080600080600060a08688031215610b9757600080fd5b8535610ba2816109d4565b94506020860135935060408601359250606086013591506080860135610bc781610a85565b809150509295509295909350565b60008060208385031215610be857600080fd5b823567ffffffffffffffff80821115610c0057600080fd5b818501915085601f830112610c1457600080fd5b813581811115610c2357600080fd5b8660208260051b8501011115610c3857600080fd5b60209290920196919550909350505050565b600080600060608486031215610c5f57600080fd5b833592506020840135610c71816109d4565b91506040840135610c81816109d4565b809150509250925092565b60008451610c9e818460208901610a2e565b8083019050601760f91b8082528551610cbe816001850160208a01610a2e565b60019201918201528351610cd9816002840160208801610a2e565b0160020195945050505050565b634e487b7160e01b600052603260045260246000fd5b634e487b7160e01b600052604160045260246000fd5b604051610140810167ffffffffffffffff81118282101715610d3657610d36610cfc565b60405290565b805167ffffffffffffffff81168114610d5457600080fd5b919050565b8051610d54816109d4565b8051610d5481610a85565b600082601f830112610d8057600080fd5b815167ffffffffffffffff80821115610d9b57610d9b610cfc565b604051601f8301601f19908116603f01168101908282118183101715610dc357610dc3610cfc565b81604052838152866020858801011115610ddc57600080fd5b6104d4846020830160208901610a2e565b600060208284031215610dff57600080fd5b815167ffffffffffffffff80821115610e1757600080fd5b908301906101408286031215610e2c57600080fd5b610e34610d12565b8251815260208301516020820152610e4e60408401610d3c565b6040820152610e5f60608401610d3c565b6060820152610e7060808401610d3c565b608082015260a083015160a0820152610e8b60c08401610d59565b60c0820152610e9c60e08401610d59565b60e0820152610100610eaf818501610d64565b908201526101208381015183811115610ec757600080fd5b610ed388828701610d6f565b91830191909152509594505050505056fea2646970667358221220954558ef41c7fff59751349ca11952914c9e87cfde5e955b0093a59a7e9aa7e364736f6c63430008130033",
    "linkReferences": {}
  },
  "methodIdentifiers": {
    "getEAS()": "65c40b9c",
    "getReceivedAttestationUIDCount(address,bytes32)": "2412e9cc",
    "getReceivedAttestationUIDs(address,bytes32,uint256,uint256,bool)": "af288efe",
    "getSchemaAttestationUIDCount(bytes32)": "2f45f90e",
    "getSchemaAttestationUIDs(bytes32,uint256,uint256,bool)": "63bbf81b",
    "getSchemaAttesterRecipientAttestationUIDCount(bytes32,address,address)": "ea51994b",
    "getSchemaAttesterRecipientAttestationUIDs(bytes32,address,address,uint256,uint256,bool)": "715ecdf6",
    "getSentAttestationUIDCount(address,bytes32)": "288a0a7b",
    "getSentAttestationUIDs(address,bytes32,uint256,uint256,bool)": "ec864cba",
    "indexAttestation(bytes32)": "bbbdc818",
    "indexAttestations(bytes32[])": "b616352a",
    "isAttestationIndexed(bytes32)": "89a82fbe",
    "version()": "54fd4d50"
  },
  "id": 37
}