{
  "abi": [
    {
      "inputs": [
        {
          "internalType": "contract IEAS",
          "name": "eas",
          "type": "address"
        },
        {
          "internalType": "string",
          "name": "name",
          "type": "string"
        }
      ],
      "stateMutability": "nonpayable",
      "type": "constructor"
    },
    {
      "inputs": [],
      "name": "AccessDenied",
      "type": "error"
    },
    {
      "inputs": [],
      "name": "DeadlineExpired",
      "type": "error"
    },
    {
      "inputs": [],
      "name": "InvalidEAS",
      "type": "error"
    },
    {
      "inputs": [],
      "name": "InvalidLength",
      "type": "error"
    },
    {
      "inputs": [],
      "name": "InvalidShortString",
      "type": "error"
    },
    {
      "inputs": [],
      "name": "InvalidSignature",
      "type": "error"
    },
    {
      "inputs": [],
      "name": "NotFound",
      "type": "error"
    },
    {
      "inputs": [
        {
          "internalType": "string",
          "name": "str",
          "type": "string"
        }
      ],
      "name": "StringTooLong",
      "type": "error"
    },
    {
      "inputs": [],
      "name": "UsedSignature",
      "type": "error"
    },
    {
      "anonymous": false,
      "inputs": [],
      "name": "EIP712DomainChanged",
      "type": "event"
    },
    {
      "inputs": [
        {
          "components": [
            {
              "internalType": "bytes32",
              "name": "schema",
              "type": "bytes32"
            },
            {
              "components": [
                {
                  "internalType": "address",
                  "name": "recipient",
                  "type": "address"
                },
                {
                  "internalType": "uint64",
                  "name": "expirationTime",
                  "type": "uint64"
                },
                {
                  "internalType": "bool",
                  "name": "revocable",
                  "type": "bool"
                },
                {
                  "internalType": "bytes32",
                  "name": "refUID",
                  "type": "bytes32"
                },
                {
                  "internalType": "bytes",
                  "name": "data",
                  "type": "bytes"
                },
                {
                  "internalType": "uint256",
                  "name": "value",
                  "type": "uint256"
                }
              ],
              "internalType": "struct AttestationRequestData",
              "name": "data",
              "type": "tuple"
            },
            {
              "components": [
                {
                  "internalType": "uint8",
                  "name": "v",
                  "type": "uint8"
                },
                {
                  "internalType": "bytes32",
                  "name": "r",
                  "type": "bytes32"
                },
                {
                  "internalType": "bytes32",
                  "name": "s",
                  "type": "bytes32"
                }
              ],
              "internalType": "struct Signature",
              "name": "signature",
              "type": "tuple"
            },
            {
              "internalType": "address",
              "name": "attester",
              "type": "address"
            },
            {
              "internalType": "uint64",
              "name": "deadline",
              "type": "uint64"
            }
          ],
          "internalType": "struct DelegatedProxyAttestationRequest",
          "name": "delegatedRequest",
          "type": "tuple"
        }
      ],
      "name": "attestByDelegation",
      "outputs": [
        {
          "internalType": "bytes32",
          "name": "",
          "type": "bytes32"
        }
      ],
      "stateMutability": "payable",
      "type": "function"
    },
    {
      "inputs": [],
      "name": "eip712Domain",
      "outputs": [
        {
          "internalType": "bytes1",
          "name": "fields",
          "type": "bytes1"
        },
        {
          "internalType": "string",
          "name": "name",
          "type": "string"
        },
        {
          "internalType": "string",
          "name": "version",
          "type": "string"
        },
        {
          "internalType": "uint256",
          "name": "chainId",
          "type": "uint256"
        },
        {
          "internalType": "address",
          "name": "verifyingContract",
          "type": "address"
        },
        {
          "internalType": "bytes32",
          "name": "salt",
          "type": "bytes32"
        },
        {
          "internalType": "uint256[]",
          "name": "extensions",
          "type": "uint256[]"
        }
      ],
      "stateMutability": "view",
      "type": "function"
    },
    {
      "inputs": [],
      "name": "getAttestTypeHash",
      "outputs": [
        {
          "internalType": "bytes32",
          "name": "",
          "type": "bytes32"
        }
      ],
      "stateMutability": "pure",
      "type": "function"
    },
    {
      "inputs": [
        {
          "internalType": "bytes32",
          "name": "uid",
          "type": "bytes32"
        }
      ],
      "name": "getAttester",
      "outputs": [
        {
          "internalType": "address",
          "name": "",
          "type": "address"
        }
      ],
      "stateMutability": "view",
      "type": "function"
    },
    {
      "inputs": [],
      "name": "getDomainSeparator",
      "outputs": [
        {
          "internalType": "bytes32",
          "name": "",
          "type": "bytes32"
        }
      ],
      "stateMutability": "view",
      "type": "function"
    },
    {
      "inputs": [],
      "name": "getEAS",
      "outputs": [
        {
          "internalType": "contract IEAS",
          "name": "",
          "type": "address"
        }
      ],
      "stateMutability": "view",
      "type": "function"
    },
    {
      "inputs": [],
      "name": "getName",
      "outputs": [
        {
          "internalType": "string",
          "name": "",
          "type": "string"
        }
      ],
      "stateMutability": "view",
      "type": "function"
    },
    {
      "inputs": [],
      "name": "getRevokeTypeHash",
      "outputs": [
        {
          "internalType": "bytes32",
          "name": "",
          "type": "bytes32"
        }
      ],
      "stateMutability": "pure",
      "type": "function"
    },
    {
      "inputs": [
        {
          "components": [
            {
              "internalType": "bytes32",
              "name": "schema",
              "type": "bytes32"
            },
            {
              "components": [
                {
                  "internalType": "address",
                  "name": "recipient",
                  "type": "address"
                },
                {
                  "internalType": "uint64",
                  "name": "expirationTime",
                  "type": "uint64"
                },
                {
                  "internalType": "bool",
                  "name": "revocable",
                  "type": "bool"
                },
                {
                  "internalType": "bytes32",
                  "name": "refUID",
                  "type": "bytes32"
                },
                {
                  "internalType": "bytes",
                  "name": "data",
                  "type": "bytes"
                },
                {
                  "internalType": "uint256",
                  "name": "value",
                  "type": "uint256"
                }
              ],
              "internalType": "struct AttestationRequestData[]",
              "name": "data",
              "type": "tuple[]"
            },
            {
              "components": [
                {
                  "internalType": "uint8",
                  "name": "v",
                  "type": "uint8"
                },
                {
                  "internalType": "bytes32",
                  "name": "r",
                  "type": "bytes32"
                },
                {
                  "internalType": "bytes32",
                  "name": "s",
                  "type": "bytes32"
                }
              ],
              "internalType": "struct Signature[]",
              "name": "signatures",
              "type": "tuple[]"
            },
            {
              "internalType": "address",
              "name": "attester",
              "type": "address"
            },
            {
              "internalType": "uint64",
              "name": "deadline",
              "type": "uint64"
            }
          ],
          "internalType": "struct MultiDelegatedProxyAttestationRequest[]",
          "name": "multiDelegatedRequests",
          "type": "tuple[]"
        }
      ],
      "name": "multiAttestByDelegation",
      "outputs": [
        {
          "internalType": "bytes32[]",
          "name": "",
          "type": "bytes32[]"
        }
      ],
      "stateMutability": "payable",
      "type": "function"
    },
    {
      "inputs": [
        {
          "components": [
            {
              "internalType": "bytes32",
              "name": "schema",
              "type": "bytes32"
            },
            {
              "components": [
                {
                  "internalType": "bytes32",
                  "name": "uid",
                  "type": "bytes32"
                },
                {
                  "internalType": "uint256",
                  "name": "value",
                  "type": "uint256"
                }
              ],
              "internalType": "struct RevocationRequestData[]",
              "name": "data",
              "type": "tuple[]"
            },
            {
              "components": [
                {
                  "internalType": "uint8",
                  "name": "v",
                  "type": "uint8"
                },
                {
                  "internalType": "bytes32",
                  "name": "r",
                  "type": "bytes32"
                },
                {
                  "internalType": "bytes32",
                  "name": "s",
                  "type": "bytes32"
                }
              ],
              "internalType": "struct Signature[]",
              "name": "signatures",
              "type": "tuple[]"
            },
            {
              "internalType": "address",
              "name": "revoker",
              "type": "address"
            },
            {
              "internalType": "uint64",
              "name": "deadline",
              "type": "uint64"
            }
          ],
          "internalType": "struct MultiDelegatedProxyRevocationRequest[]",
          "name": "multiDelegatedRequests",
          "type": "tuple[]"
        }
      ],
      "name": "multiRevokeByDelegation",
      "outputs": [],
      "stateMutability": "payable",
      "type": "function"
    },
    {
      "inputs": [
        {
          "components": [
            {
              "internalType": "bytes32",
              "name": "schema",
              "type": "bytes32"
            },
            {
              "components": [
                {
                  "internalType": "bytes32",
                  "name": "uid",
                  "type": "bytes32"
                },
                {
                  "internalType": "uint256",
                  "name": "value",
                  "type": "uint256"
                }
              ],
              "internalType": "struct RevocationRequestData",
              "name": "data",
              "type": "tuple"
            },
            {
              "components": [
                {
                  "internalType": "uint8",
                  "name": "v",
                  "type": "uint8"
                },
                {
                  "internalType": "bytes32",
                  "name": "r",
                  "type": "bytes32"
                },
                {
                  "internalType": "bytes32",
                  "name": "s",
                  "type": "bytes32"
                }
              ],
              "internalType": "struct Signature",
              "name": "signature",
              "type": "tuple"
            },
            {
              "internalType": "address",
              "name": "revoker",
              "type": "address"
            },
            {
              "internalType": "uint64",
              "name": "deadline",
              "type": "uint64"
            }
          ],
          "internalType": "struct DelegatedProxyRevocationRequest",
          "name": "delegatedRequest",
          "type": "tuple"
        }
      ],
      "name": "revokeByDelegation",
      "outputs": [],
      "stateMutability": "payable",
      "type": "function"
    },
    {
      "inputs": [
        {
          "components": [
            {
              "internalType": "bytes32",
              "name": "schema",
              "type": "bytes32"
            },
            {
              "components": [
                {
                  "internalType": "address",
                  "name": "recipient",
                  "type": "address"
                },
                {
                  "internalType": "uint64",
                  "name": "expirationTime",
                  "type": "uint64"
                },
                {
                  "internalType": "bool",
                  "name": "revocable",
                  "type": "bool"
                },
                {
                  "internalType": "bytes32",
                  "name": "refUID",
                  "type": "bytes32"
                },
                {
                  "internalType": "bytes",
                  "name": "data",
                  "type": "bytes"
                },
                {
                  "internalType": "uint256",
                  "name": "value",
                  "type": "uint256"
                }
              ],
              "internalType": "struct AttestationRequestData",
              "name": "data",
              "type": "tuple"
            },
            {
              "components": [
                {
                  "internalType": "uint8",
                  "name": "v",
                  "type": "uint8"
                },
                {
                  "internalType": "bytes32",
                  "name": "r",
                  "type": "bytes32"
                },
                {
                  "internalType": "bytes32",
                  "name": "s",
                  "type": "bytes32"
                }
              ],
              "internalType": "struct Signature",
              "name": "signature",
              "type": "tuple"
            },
            {
              "internalType": "address",
              "name": "attester",
              "type": "address"
            },
            {
              "internalType": "uint64",
              "name": "deadline",
              "type": "uint64"
            }
          ],
          "internalType": "struct DelegatedProxyAttestationRequest",
          "name": "request",
          "type": "tuple"
        }
      ],
      "name": "verifyAttest",
      "outputs": [],
      "stateMutability": "nonpayable",
      "type": "function"
    },
    {
      "inputs": [
        {
          "components": [
            {
              "internalType": "bytes32",
              "name": "schema",
              "type": "bytes32"
            },
            {
              "components": [
                {
                  "internalType": "bytes32",
                  "name": "uid",
                  "type": "bytes32"
                },
                {
                  "internalType": "uint256",
                  "name": "value",
                  "type": "uint256"
                }
              ],
              "internalType": "struct RevocationRequestData",
              "name": "data",
              "type": "tuple"
            },
            {
              "components": [
                {
                  "internalType": "uint8",
                  "name": "v",
                  "type": "uint8"
                },
                {
                  "internalType": "bytes32",
                  "name": "r",
                  "type": "bytes32"
                },
                {
                  "internalType": "bytes32",
                  "name": "s",
                  "type": "bytes32"
                }
              ],
              "internalType": "struct Signature",
              "name": "signature",
              "type": "tuple"
            },
            {
              "internalType": "address",
              "name": "revoker",
              "type": "address"
            },
            {
              "internalType": "uint64",
              "name": "deadline",
              "type": "uint64"
            }
          ],
          "internalType": "struct DelegatedProxyRevocationRequest",
          "name": "request",
          "type": "tuple"
        }
      ],
      "name": "verifyRevoke",
      "outputs": [],
      "stateMutability": "nonpayable",
      "type": "function"
    },
    {
      "inputs": [],
      "name": "version",
      "outputs": [
        {
          "internalType": "string",
          "name": "",
          "type": "string"
        }
      ],
      "stateMutability": "view",
      "type": "function"
    }
  ],
  "bytecode": {
    "object": "0x6101e06040523480156200001257600080fd5b50604051620028cd380380620028cd833981016040819052620000359162000232565b6040805180820190915260058152640312e332e360dc1b60208201526001608052600360a052600060c0819052839183918291906200007690839062000171565b610180526200008781600162000171565b6101a052815160208084019190912061014052815190820120610160524661010052620001186101405161016051604080517f8b73c3c69bb8fe3d512ecc4cf759cc79239f7b179b0ffacaa9a75d522b39400f60208201529081019290925260608201524660808201523060a082015260009060c00160405160208183030381529060405280519060200120905090565b60e052505030610120526001600160a01b0382166200014a576040516341bc07ff60e11b815260040160405180910390fd5b6001600160a01b0382166101c05260026200016682826200039c565b5050505050620004c2565b600060208351101562000191576200018983620001aa565b9050620001a4565b816200019e84826200039c565b5060ff90505b92915050565b600080829050601f81511115620001e1578260405163305a27a960e01b8152600401620001d8919062000468565b60405180910390fd5b8051620001ee826200049d565b179392505050565b634e487b7160e01b600052604160045260246000fd5b60005b83811015620002295781810151838201526020016200020f565b50506000910152565b600080604083850312156200024657600080fd5b82516001600160a01b03811681146200025e57600080fd5b60208401519092506001600160401b03808211156200027c57600080fd5b818501915085601f8301126200029157600080fd5b815181811115620002a657620002a6620001f6565b604051601f8201601f19908116603f01168101908382118183101715620002d157620002d1620001f6565b81604052828152886020848701011115620002eb57600080fd5b620002fe8360208301602088016200020c565b80955050505050509250929050565b600181811c908216806200032257607f821691505b6020821081036200034357634e487b7160e01b600052602260045260246000fd5b50919050565b601f8211156200039757600081815260208120601f850160051c81016020861015620003725750805b601f850160051c820191505b8181101562000393578281556001016200037e565b5050505b505050565b81516001600160401b03811115620003b857620003b8620001f6565b620003d081620003c984546200030d565b8462000349565b602080601f831160018114620004085760008415620003ef5750858301515b600019600386901b1c1916600185901b17855562000393565b600085815260208120601f198616915b82811015620004395788860151825594840194600190910190840162000418565b5085821015620004585787850151600019600388901b60f8161c191681555b5050505050600190811b01905550565b6020815260008251806020840152620004898160408501602087016200020c565b601f01601f19169190910160400192915050565b80516020808301519190811015620003435760001960209190910360031b1b16919050565b60805160a05160c05160e05161010051610120516101405161016051610180516101a0516101c05161236862000565600039600081816101e0015281816104bf015281816105d701528181610a150152610bb1015260006107b40152600061078a015260006111e6015260006111be01526000611119015260006111430152600061116d0152600061073201526000610709015260006106e001526123686000f3fe6080604052600436106100dd5760003560e01c806384b0196e1161007f578063b82b7acc11610059578063b82b7acc1461025f578063b83010d31461027f578063dda94e21146102b2578063ed24911d146102d257600080fd5b806384b0196e14610204578063954115251461022c578063a6d4dbc71461024c57600080fd5b806317d7de7c116100bb57806317d7de7c146101875780633c042715146101a957806354fd4d50146101bc57806365c40b9c146101d157600080fd5b80630eabf660146100e257806310d736d5146100f757806312b11a171461014a575b600080fd5b6100f56100f03660046116e8565b6102e7565b005b34801561010357600080fd5b5061012d610112366004611729565b6000908152600360205260409020546001600160a01b031690565b6040516001600160a01b0390911681526020015b60405180910390f35b34801561015657600080fd5b507fea02ffba7dcb45f6fc649714d23f315eef12e3b27f9a7735d8d8bf41eb2b1af15b604051908152602001610141565b34801561019357600080fd5b5061019c61052e565b6040516101419190611792565b6101796101b73660046117ac565b6105c0565b3480156101c857600080fd5b5061019c6106d9565b3480156101dd57600080fd5b507f000000000000000000000000000000000000000000000000000000000000000061012d565b34801561021057600080fd5b5061021961077c565b60405161014197969594939291906117e6565b61023f61023a3660046116e8565b610804565b604051610141919061187c565b6100f561025a3660046118c0565b610b98565b34801561026b57600080fd5b506100f561027a366004611b8f565b610c73565b34801561028b57600080fd5b507f78a69a78c1a55cdff5cbf949580b410778cd9e4d1ecbe6f06a7fa8dc2441b57d610179565b3480156102be57600080fd5b506100f56102cd366004611c19565b610c7f565b3480156102de57600080fd5b50610179610c88565b806000816001600160401b03811115610302576103026118d9565b60405190808252806020026020018201604052801561034857816020015b6040805180820190915260008152606060208201528152602001906001900390816103205790505b50905060005b828110156104a757600085858381811061036a5761036a611c85565b905060200281019061037c9190611c9b565b61038590611d53565b60208101518051919250908015806103a257508260400151518114155b156103c05760405163251f56a160e21b815260040160405180910390fd5b60005b8181101561045c5760008382815181106103df576103df611c85565b602002602001015190506104536040518060a00160405280876000015181526020018381526020018760400151858151811061041d5761041d611c85565b6020026020010151815260200187606001516001600160a01b0316815260200187608001516001600160401b0316815250610c97565b506001016103c3565b506040518060400160405280846000015181526020018381525085858151811061048857610488611c85565b60200260200101819052505050506104a08160010190565b905061034e565b50604051634cb7e9e560e01b81526001600160a01b037f00000000000000000000000000000000000000000000000000000000000000001690634cb7e9e59034906104f6908590600401611e42565b6000604051808303818588803b15801561050f57600080fd5b505af1158015610523573d6000803e3d6000fd5b505050505050505050565b60606002805461053d90611ef3565b80601f016020809104026020016040519081016040528092919081815260200182805461056990611ef3565b80156105b65780601f1061058b576101008083540402835291602001916105b6565b820191906000526020600020905b81548152906001019060200180831161059957829003601f168201915b5050505050905090565b60006105d36105ce83611f27565b610e4a565b60007f00000000000000000000000000000000000000000000000000000000000000006001600160a01b031663f17325e73460405180604001604052808760000135815260200187806020019061062a9190611f33565b61063390611f49565b8152506040518363ffffffff1660e01b81526004016106529190611fb9565b60206040518083038185885af1158015610670573d6000803e3d6000fd5b50505050506040513d601f19601f820116820180604052508101906106959190611fde565b90506106a760c0840160a08501611ff7565b600082815260036020526040902080546001600160a01b0319166001600160a01b039290921691909117905592915050565b60606107047f0000000000000000000000000000000000000000000000000000000000000000610fcf565b61072d7f0000000000000000000000000000000000000000000000000000000000000000610fcf565b6107567f0000000000000000000000000000000000000000000000000000000000000000610fcf565b60405160200161076893929190612012565b604051602081830303815290604052905090565b6000606080828080836107af7f000000000000000000000000000000000000000000000000000000000000000083611061565b6107da7f00000000000000000000000000000000000000000000000000000000000000006001611061565b60408051600080825260208201909252600f60f81b9b939a50919850469750309650945092509050565b6060816000816001600160401b03811115610821576108216118d9565b60405190808252806020026020018201604052801561086757816020015b60408051808201909152600081526060602082015281526020019060019003908161083f5790505b50905060005b82811015610a10573686868381811061088857610888611c85565b905060200281019061089a9190611c9b565b90503660006108ac602084018461206c565b9092509050808015806108cd57506108c760408501856120b5565b90508114155b156108eb5760405163251f56a160e21b815260040160405180910390fd5b60005b818110156109be576109b66040518060a001604052808760000135815260200186868581811061092057610920611c85565b90506020028101906109329190611f33565b61093b90611f49565b815260200161094d60408901896120b5565b8581811061095d5761095d611c85565b90506060020180360381019061097391906120fd565b81526020016109886080890160608a01611ff7565b6001600160a01b031681526020016109a660a0890160808a01612119565b6001600160401b03169052610e4a565b6001016108ee565b506040805180820190915284358152602081016109db8486612134565b8152508686815181106109f0576109f0611c85565b602002602001018190525050505050610a098160010190565b905061086d565b5060007f00000000000000000000000000000000000000000000000000000000000000006001600160a01b03166344adc90e34846040518363ffffffff1660e01b8152600401610a6091906121a7565b60006040518083038185885af1158015610a7e573d6000803e3d6000fd5b50505050506040513d6000823e601f3d908101601f19168201604052610aa7919081019061225e565b90506000805b84811015610b8a5736888883818110610ac857610ac8611c85565b9050602002810190610ada9190611c9b565b9050366000610aec602084018461206c565b90925090508060005b81811015610b7457610b0d6080860160608701611ff7565b600360008a8a81518110610b2357610b23611c85565b6020026020010151815260200190815260200160002060006101000a8154816001600160a01b0302191690836001600160a01b03160217905550866001019650610b6d8160010190565b9050610af5565b5050505050610b838160010190565b9050610aad565b509093505050505b92915050565b610baf610baa36839003830183611c19565b610c97565b7f00000000000000000000000000000000000000000000000000000000000000006001600160a01b031663469262673460405180604001604052808560000135815260200185602001803603810190610c0891906122ee565b90526040516001600160e01b031960e085901b16815281516004820152602091820151805160248301529091015160448201526064016000604051808303818588803b158015610c5757600080fd5b505af1158015610c6b573d6000803e3d6000fd5b505050505050565b610c7c81610e4a565b50565b610c7c81610c97565b6000610c9261110c565b905090565b60808101516001600160401b031615801590610cc85750426001600160401b031681608001516001600160401b0316105b15610ce657604051631ab7da6b60e01b815260040160405180910390fd5b6020808201518051600090815260039092526040909120546001600160a01b031680610d255760405163c5723b5160e01b815260040160405180910390fd5b6001600160a01b0381163314610d4e57604051634ca8886760e01b815260040160405180910390fd5b6040830151610d5c81611237565b606080850151855185516020808801516080808b0151604080517f78a69a78c1a55cdff5cbf949580b410778cd9e4d1ecbe6f06a7fa8dc2441b57d958101959095526001600160a01b0390971696840196909652958201939093529384015260a08301526001600160401b031660c0820152600090610df49060e0015b604051602081830303815290604052805190602001206112f6565b905084606001516001600160a01b0316610e1c82846000015185602001518660400151611323565b6001600160a01b031614610e4357604051638baa579f60e01b815260040160405180910390fd5b5050505050565b60808101516001600160401b031615801590610e7b5750426001600160401b031681608001516001600160401b0316105b15610e9957604051631ab7da6b60e01b815260040160405180910390fd5b60208101516040820151610eac81611237565b6000610f7a7fea02ffba7dcb45f6fc649714d23f315eef12e3b27f9a7735d8d8bf41eb2b1af160001b8560600151866000015186600001518760200151886040015189606001518a60800151805190602001208b60a001518d60800151604051602001610dd99a99989796959493929190998a526001600160a01b0398891660208b015260408a01979097529490961660608801526001600160401b03928316608088015290151560a087015260c086015260e0850193909352610100840152166101208201526101400190565b905083606001516001600160a01b0316610fa282846000015185602001518660400151611323565b6001600160a01b031614610fc957604051638baa579f60e01b815260040160405180910390fd5b50505050565b60606000610fdc8361134b565b60010190506000816001600160401b03811115610ffb57610ffb6118d9565b6040519080825280601f01601f191660200182016040528015611025576020820181803683370190505b5090508181016020015b600019016f181899199a1a9b1b9c1cb0b131b232b360811b600a86061a8153600a850494508461102f57509392505050565b606060ff831461107b5761107483611423565b9050610b92565b81805461108790611ef3565b80601f01602080910402602001604051908101604052809291908181526020018280546110b390611ef3565b80156111005780601f106110d557610100808354040283529160200191611100565b820191906000526020600020905b8154815290600101906020018083116110e357829003601f168201915b50505050509050610b92565b6000306001600160a01b037f00000000000000000000000000000000000000000000000000000000000000001614801561116557507f000000000000000000000000000000000000000000000000000000000000000046145b1561118f57507f000000000000000000000000000000000000000000000000000000000000000090565b610c92604080517f8b73c3c69bb8fe3d512ecc4cf759cc79239f7b179b0ffacaa9a75d522b39400f60208201527f0000000000000000000000000000000000000000000000000000000000000000918101919091527f000000000000000000000000000000000000000000000000000000000000000060608201524660808201523060a082015260009060c00160405160208183030381529060405280519060200120905090565b8051602080830151604080850151905160f89490941b6001600160f81b0319169284019290925260218301526041820152600090606101604051602081830303815290604052905060048160405161128f919061230a565b9081526040519081900360200190205460ff16156112c05760405163333a6a0960e21b815260040160405180910390fd5b60016004826040516112d2919061230a565b908152604051908190036020019020805491151560ff199092169190911790555050565b6000610b9261130361110c565b8360405161190160f01b8152600281019290925260228201526042902090565b600080600061133487878787611462565b9150915061134181611526565b5095945050505050565b60008072184f03e93ff9f4daa797ed6e38ed64bf6a1f0160401b831061138a5772184f03e93ff9f4daa797ed6e38ed64bf6a1f0160401b830492506040015b6d04ee2d6d415b85acef810000000083106113b6576d04ee2d6d415b85acef8100000000830492506020015b662386f26fc1000083106113d457662386f26fc10000830492506010015b6305f5e10083106113ec576305f5e100830492506008015b612710831061140057612710830492506004015b60648310611412576064830492506002015b600a8310610b925760010192915050565b6060600061143083611675565b604080516020808252818301909252919250600091906020820181803683375050509182525060208101929092525090565b6000807f7fffffffffffffffffffffffffffffff5d576e7357a4501ddfe92f46681b20a0831115611499575060009050600361151d565b6040805160008082526020820180845289905260ff881692820192909252606081018690526080810185905260019060a0016020604051602081039080840390855afa1580156114ed573d6000803e3d6000fd5b5050604051601f1901519150506001600160a01b0381166115165760006001925092505061151d565b9150600090505b94509492505050565b600081600481111561153a5761153a61231c565b036115425750565b60018160048111156115565761155661231c565b036115a85760405162461bcd60e51b815260206004820152601860248201527f45434453413a20696e76616c6964207369676e6174757265000000000000000060448201526064015b60405180910390fd5b60028160048111156115bc576115bc61231c565b036116095760405162461bcd60e51b815260206004820152601f60248201527f45434453413a20696e76616c6964207369676e6174757265206c656e67746800604482015260640161159f565b600381600481111561161d5761161d61231c565b03610c7c5760405162461bcd60e51b815260206004820152602260248201527f45434453413a20696e76616c6964207369676e6174757265202773272076616c604482015261756560f01b606482015260840161159f565b600060ff8216601f811115610b9257604051632cd44ac360e21b815260040160405180910390fd5b60008083601f8401126116af57600080fd5b5081356001600160401b038111156116c657600080fd5b6020830191508360208260051b85010111156116e157600080fd5b9250929050565b600080602083850312156116fb57600080fd5b82356001600160401b0381111561171157600080fd5b61171d8582860161169d565b90969095509350505050565b60006020828403121561173b57600080fd5b5035919050565b60005b8381101561175d578181015183820152602001611745565b50506000910152565b6000815180845261177e816020860160208601611742565b601f01601f19169290920160200192915050565b6020815260006117a56020830184611766565b9392505050565b6000602082840312156117be57600080fd5b81356001600160401b038111156117d457600080fd5b820160e081850312156117a557600080fd5b60ff60f81b881681526000602060e08184015261180660e084018a611766565b8381036040850152611818818a611766565b606085018990526001600160a01b038816608086015260a0850187905284810360c0860152855180825283870192509083019060005b8181101561186a5783518352928401929184019160010161184e565b50909c9b505050505050505050505050565b6020808252825182820181905260009190848201906040850190845b818110156118b457835183529284019291840191600101611898565b50909695505050505050565b600061010082840312156118d357600080fd5b50919050565b634e487b7160e01b600052604160045260246000fd5b60405160c081016001600160401b0381118282101715611911576119116118d9565b60405290565b60405160a081016001600160401b0381118282101715611911576119116118d9565b604051601f8201601f191681016001600160401b0381118282101715611961576119616118d9565b604052919050565b80356001600160a01b038116811461198057600080fd5b919050565b80356001600160401b038116811461198057600080fd5b600082601f8301126119ad57600080fd5b81356001600160401b038111156119c6576119c66118d9565b6119d9601f8201601f1916602001611939565b8181528460208386010111156119ee57600080fd5b816020850160208301376000918101602001919091529392505050565b600060c08284031215611a1d57600080fd5b611a256118ef565b9050611a3082611969565b8152611a3e60208301611985565b602082015260408201358015158114611a5657600080fd5b60408201526060828101359082015260808201356001600160401b03811115611a7e57600080fd5b611a8a8482850161199c565b60808301525060a082013560a082015292915050565b600060608284031215611ab257600080fd5b604051606081018181106001600160401b0382111715611ad457611ad46118d9565b604052905080823560ff81168114611aeb57600080fd5b8082525060208301356020820152604083013560408201525092915050565b600060e08284031215611b1c57600080fd5b611b24611917565b90508135815260208201356001600160401b03811115611b4357600080fd5b611b4f84828501611a0b565b602083015250611b628360408401611aa0565b6040820152611b7360a08301611969565b6060820152611b8460c08301611985565b608082015292915050565b600060208284031215611ba157600080fd5b81356001600160401b03811115611bb757600080fd5b611bc384828501611b0a565b949350505050565b600060408284031215611bdd57600080fd5b604051604081018181106001600160401b0382111715611bff57611bff6118d9565b604052823581526020928301359281019290925250919050565b60006101008284031215611c2c57600080fd5b611c34611917565b82358152611c458460208501611bcb565b6020820152611c578460608501611aa0565b6040820152611c6860c08401611969565b6060820152611c7960e08401611985565b60808201529392505050565b634e487b7160e01b600052603260045260246000fd5b60008235609e19833603018112611cb157600080fd5b9190910192915050565b60006001600160401b03821115611cd457611cd46118d9565b5060051b60200190565b600082601f830112611cef57600080fd5b81356020611d04611cff83611cbb565b611939565b82815260609283028501820192828201919087851115611d2357600080fd5b8387015b85811015611d4657611d398982611aa0565b8452928401928101611d27565b5090979650505050505050565b600060a08236031215611d6557600080fd5b611d6d611917565b823581526020808401356001600160401b0380821115611d8c57600080fd5b9085019036601f830112611d9f57600080fd5b8135611dad611cff82611cbb565b81815260069190911b83018401908481019036831115611dcc57600080fd5b938501935b82851015611df557611de33686611bcb565b82528582019150604085019450611dd1565b80868801525050506040860135925080831115611e1157600080fd5b5050611e1f36828601611cde565b604083015250611e3160608401611969565b6060820152611b8460808401611985565b60006020808301818452808551808352604092508286019150828160051b8701018488016000805b84811015611ee457898403603f19018652825180518552880151888501889052805188860181905290890190839060608701905b80831015611ecf57611ebb82855180518252602090810151910152565b928b019260019290920191908a0190611e9e565b50978a01979550505091870191600101611e6a565b50919998505050505050505050565b600181811c90821680611f0757607f821691505b6020821081036118d357634e487b7160e01b600052602260045260246000fd5b6000610b923683611b0a565b6000823560be19833603018112611cb157600080fd5b6000610b923683611a0b565b60018060a01b0381511682526001600160401b036020820151166020830152604081015115156040830152606081015160608301526000608082015160c06080850152611fa560c0850182611766565b60a093840151949093019390935250919050565b602081528151602082015260006020830151604080840152611bc36060840182611f55565b600060208284031215611ff057600080fd5b5051919050565b60006020828403121561200957600080fd5b6117a582611969565b60008451612024818460208901611742565b8083019050601760f91b8082528551612044816001850160208a01611742565b6001920191820152835161205f816002840160208801611742565b0160020195945050505050565b6000808335601e1984360301811261208357600080fd5b8301803591506001600160401b0382111561209d57600080fd5b6020019150600581901b36038213156116e157600080fd5b6000808335601e198436030181126120cc57600080fd5b8301803591506001600160401b038211156120e657600080fd5b60200191506060810236038213156116e157600080fd5b60006060828403121561210f57600080fd5b6117a58383611aa0565b60006020828403121561212b57600080fd5b6117a582611985565b6000612142611cff84611cbb565b80848252602080830192508560051b85013681111561216057600080fd5b855b8181101561219b5780356001600160401b038111156121815760008081fd5b61218d36828a01611a0b565b865250938201938201612162565b50919695505050505050565b602080825282518282018190526000919060409081850190600581811b8701840188860187805b8581101561224e57603f198b85030187528251805185528901518985018990528051898601819052908a0190606081881b870181019190870190855b8181101561223857605f19898503018352612226848651611f55565b948e01949350918d019160010161220a565b505050978a0197945050918801916001016121ce565b50919a9950505050505050505050565b6000602080838503121561227157600080fd5b82516001600160401b0381111561228757600080fd5b8301601f8101851361229857600080fd5b80516122a6611cff82611cbb565b81815260059190911b820183019083810190878311156122c557600080fd5b928401925b828410156122e3578351825292840192908401906122ca565b979650505050505050565b60006040828403121561230057600080fd5b6117a58383611bcb565b60008251611cb1818460208701611742565b634e487b7160e01b600052602160045260246000fdfea2646970667358221220ee089464e9a73fdbb991cddcf02f3161390560ec8fda02ac3cb710ab75dbc2b964736f6c63430008130033",
    "linkReferences": {}
  },
  "methodIdentifiers": {
    "attestByDelegation((bytes32,(address,uint64,bool,bytes32,bytes,uint256),(uint8,bytes32,bytes32),address,uint64))": "3c042715",
    "eip712Domain()": "84b0196e",
    "getAttestTypeHash()": "12b11a17",
    "getAttester(bytes32)": "10d736d5",
    "getDomainSeparator()": "ed24911d",
    "getEAS()": "65c40b9c",
    "getName()": "17d7de7c",
    "getRevokeTypeHash()": "b83010d3",
    "multiAttestByDelegation((bytes32,(address,uint64,bool,bytes32,bytes,uint256)[],(uint8,bytes32,bytes32)[],address,uint64)[])": "95411525",
    "multiRevokeByDelegation((bytes32,(bytes32,uint256)[],(uint8,bytes32,bytes32)[],address,uint64)[])": "0eabf660",
    "revokeByDelegation((bytes32,(bytes32,uint256),(uint8,bytes32,bytes32),address,uint64))": "a6d4dbc7",
    "verifyAttest((bytes32,(address,uint64,bool,bytes32,bytes,uint256),(uint8,bytes32,bytes32),address,uint64))": "b82b7acc",
    "verifyRevoke((bytes32,(bytes32,uint256),(uint8,bytes32,bytes32),address,uint64))": "dda94e21",
    "version()": "54fd4d50"
  },
  "id": 59
}