{
  "abi": [
    {
      "inputs": [
        {
          "internalType": "contract IEAS",
          "name": "eas",
          "type": "address"
        },
        {
          "internalType": "uint256",
          "name": "validAfter",
          "type": "uint256"
        }
      ],
      "stateMutability": "nonpayable",
      "type": "constructor"
    },
    {
      "inputs": [],
      "name": "AccessDenied",
      "type": "error"
    },
    {
      "inputs": [],
      "name": "InsufficientValue",
      "type": "error"
    },
    {
      "inputs": [],
      "name": "InvalidEAS",
      "type": "error"
    },
    {
      "inputs": [],
      "name": "InvalidLength",
      "type": "error"
    },
    {
      "inputs": [],
      "name": "NotPayable",
      "type": "error"
    },
    {
      "inputs": [
        {
          "components": [
            {
              "internalType": "bytes32",
              "name": "uid",
              "type": "bytes32"
            },
            {
              "internalType": "bytes32",
              "name": "schema",
              "type": "bytes32"
            },
            {
              "internalType": "uint64",
              "name": "time",
              "type": "uint64"
            },
            {
              "internalType": "uint64",
              "name": "expirationTime",
              "type": "uint64"
            },
            {
              "internalType": "uint64",
              "name": "revocationTime",
              "type": "uint64"
            },
            {
              "internalType": "bytes32",
              "name": "refUID",
              "type": "bytes32"
            },
            {
              "internalType": "address",
              "name": "recipient",
              "type": "address"
            },
            {
              "internalType": "address",
              "name": "attester",
              "type": "address"
            },
            {
              "internalType": "bool",
              "name": "revocable",
              "type": "bool"
            },
            {
              "internalType": "bytes",
              "name": "data",
              "type": "bytes"
            }
          ],
          "internalType": "struct Attestation",
          "name": "attestation",
          "type": "tuple"
        }
      ],
      "name": "attest",
      "outputs": [
        {
          "internalType": "bool",
          "name": "",
          "type": "bool"
        }
      ],
      "stateMutability": "payable",
      "type": "function"
    },
    {
      "inputs": [],
      "name": "isPayable",
      "outputs": [
        {
          "internalType": "bool",
          "name": "",
          "type": "bool"
        }
      ],
      "stateMutability": "pure",
      "type": "function"
    },
    {
      "inputs": [
        {
          "components": [
            {
              "internalType": "bytes32",
              "name": "uid",
              "type": "bytes32"
            },
            {
              "internalType": "bytes32",
              "name": "schema",
              "type": "bytes32"
            },
            {
              "internalType": "uint64",
              "name": "time",
              "type": "uint64"
            },
            {
              "internalType": "uint64",
              "name": "expirationTime",
              "type": "uint64"
            },
            {
              "internalType": "uint64",
              "name": "revocationTime",
              "type": "uint64"
            },
            {
              "internalType": "bytes32",
              "name": "refUID",
              "type": "bytes32"
            },
            {
              "internalType": "address",
              "name": "recipient",
              "type": "address"
            },
            {
              "internalType": "address",
              "name": "attester",
              "type": "address"
            },
            {
              "internalType": "bool",
              "name": "revocable",
              "type": "bool"
            },
            {
              "internalType": "bytes",
              "name": "data",
              "type": "bytes"
            }
          ],
          "internalType": "struct Attestation[]",
          "name": "attestations",
          "type": "tuple[]"
        },
        {
          "internalType": "uint256[]",
          "name": "values",
          "type": "uint256[]"
        }
      ],
      "name": "multiAttest",
      "outputs": [
        {
          "internalType": "bool",
          "name": "",
          "type": "bool"
        }
      ],
      "stateMutability": "payable",
      "type": "function"
    },
    {
      "inputs": [
        {
          "components": [
            {
              "internalType": "bytes32",
              "name": "uid",
              "type": "bytes32"
            },
            {
              "internalType": "bytes32",
              "name": "schema",
              "type": "bytes32"
            },
            {
              "internalType": "uint64",
              "name": "time",
              "type": "uint64"
            },
            {
              "internalType": "uint64",
              "name": "expirationTime",
              "type": "uint64"
            },
            {
              "internalType": "uint64",
              "name": "revocationTime",
              "type": "uint64"
            },
            {
              "internalType": "bytes32",
              "name": "refUID",
              "type": "bytes32"
            },
            {
              "internalType": "address",
              "name": "recipient",
              "type": "address"
            },
            {
              "internalType": "address",
              "name": "attester",
              "type": "address"
            },
            {
              "internalType": "bool",
              "name": "revocable",
              "type": "bool"
            },
            {
              "internalType": "bytes",
              "name": "data",
              "type": "bytes"
            }
          ],
          "internalType": "struct Attestation[]",
          "name": "attestations",
          "type": "tuple[]"
        },
        {
          "internalType": "uint256[]",
          "name": "values",
          "type": "uint256[]"
        }
      ],
      "name": "multiRevoke",
      "outputs": [
        {
          "internalType": "bool",
          "name": "",
          "type": "bool"
        }
      ],
      "stateMutability": "payable",
      "type": "function"
    },
    {
      "inputs": [
        {
          "components": [
            {
              "internalType": "bytes32",
              "name": "uid",
              "type": "bytes32"
            },
            {
              "internalType": "bytes32",
              "name": "schema",
              "type": "bytes32"
            },
            {
              "internalType": "uint64",
              "name": "time",
              "type": "uint64"
            },
            {
              "internalType": "uint64",
              "name": "expirationTime",
              "type": "uint64"
            },
            {
              "internalType": "uint64",
              "name": "revocationTime",
              "type": "uint64"
            },
            {
              "internalType": "bytes32",
              "name": "refUID",
              "type": "bytes32"
            },
            {
              "internalType": "address",
              "name": "recipient",
              "type": "address"
            },
            {
              "internalType": "address",
              "name": "attester",
              "type": "address"
            },
            {
              "internalType": "bool",
              "name": "revocable",
              "type": "bool"
            },
            {
              "internalType": "bytes",
              "name": "data",
              "type": "bytes"
            }
          ],
          "internalType": "struct Attestation",
          "name": "attestation",
          "type": "tuple"
        }
      ],
      "name": "revoke",
      "outputs": [
        {
          "internalType": "bool",
          "name": "",
          "type": "bool"
        }
      ],
      "stateMutability": "payable",
      "type": "function"
    },
    {
      "inputs": [],
      "name": "version",
      "outputs": [
        {
          "internalType": "string",
          "name": "",
          "type": "string"
        }
      ],
      "stateMutability": "view",
      "type": "function"
    },
    {
      "stateMutability": "payable",
      "type": "receive"
    }
  ],
  "bytecode": {
    "object": "0x61012060405234801561001157600080fd5b506040516108bf3803806108bf8339810160408190526100309161007d565b6001608052600360a052600060c052816001600160a01b038116610067576040516341bc07ff60e11b815260040160405180910390fd5b6001600160a01b031660e05261010052506100b7565b6000806040838503121561009057600080fd5b82516001600160a01b03811681146100a757600080fd5b6020939093015192949293505050565b60805160a05160c05160e051610100516107c46100fb60003960006104510152600061040d01526000610170015260006101470152600061011e01526107c46000f3fe6080604052600436106100595760003560e01c806354fd4d501461007c57806388e5b2d9146100a757806391db0b7e146100ca578063ce46e046146100dd578063e49617e1146100f1578063e60c35051461010457600080fd5b3661007757604051631574f9f360e01b815260040160405180910390fd5b600080fd5b34801561008857600080fd5b50610091610117565b60405161009e919061058f565b60405180910390f35b6100ba6100b536600461060e565b6101ba565b604051901515815260200161009e565b6100ba6100d836600461060e565b610289565b3480156100e957600080fd5b5060006100ba565b6100ba6100ff36600461067a565b610348565b6100ba61011236600461067a565b61035b565b60606101427f000000000000000000000000000000000000000000000000000000000000000061036f565b61016b7f000000000000000000000000000000000000000000000000000000000000000061036f565b6101947f000000000000000000000000000000000000000000000000000000000000000061036f565b6040516020016101a6939291906106bd565b604051602081830303815290604052905090565b60006101c4610402565b838281146101e55760405163251f56a160e21b815260040160405180910390fd5b3460005b8281101561027957600086868381811061020557610205610717565b9050602002013590508281111561022f5760405163044044a560e21b815260040160405180910390fd5b61025c89898481811061024457610244610717565b9050602002810190610256919061072d565b50600190565b61026d576000945050505050610281565b909103906001016101e9565b506001925050505b949350505050565b6000610293610402565b838281146102b45760405163251f56a160e21b815260040160405180910390fd5b3460005b828110156102795760008686838181106102d4576102d4610717565b905060200201359050828111156102fe5760405163044044a560e21b815260040160405180910390fd5b61032b89898481811061031357610313610717565b9050602002810190610325919061072d565b8261044d565b61033c576000945050505050610281565b909103906001016102b8565b6000610352610402565b60015b92915050565b6000610365610402565b610355823461044d565b6060600061037c83610493565b600101905060008167ffffffffffffffff81111561039c5761039c61074e565b6040519080825280601f01601f1916602001820160405280156103c6576020820181803683370190505b5090508181016020015b600019016f181899199a1a9b1b9c1cb0b131b232b360811b600a86061a8153600a85049450846103d057509392505050565b336001600160a01b037f0000000000000000000000000000000000000000000000000000000000000000161461044b57604051634ca8886760e01b815260040160405180910390fd5b565b60007f00000000000000000000000000000000000000000000000000000000000000006104806080850160608601610764565b67ffffffffffffffff1610159392505050565b60008072184f03e93ff9f4daa797ed6e38ed64bf6a1f0160401b83106104d25772184f03e93ff9f4daa797ed6e38ed64bf6a1f0160401b830492506040015b6d04ee2d6d415b85acef810000000083106104fe576d04ee2d6d415b85acef8100000000830492506020015b662386f26fc10000831061051c57662386f26fc10000830492506010015b6305f5e1008310610534576305f5e100830492506008015b612710831061054857612710830492506004015b6064831061055a576064830492506002015b600a83106103555760010192915050565b60005b8381101561058657818101518382015260200161056e565b50506000910152565b60208152600082518060208401526105ae81604085016020870161056b565b601f01601f19169190910160400192915050565b60008083601f8401126105d457600080fd5b50813567ffffffffffffffff8111156105ec57600080fd5b6020830191508360208260051b850101111561060757600080fd5b9250929050565b6000806000806040858703121561062457600080fd5b843567ffffffffffffffff8082111561063c57600080fd5b610648888389016105c2565b9096509450602087013591508082111561066157600080fd5b5061066e878288016105c2565b95989497509550505050565b60006020828403121561068c57600080fd5b813567ffffffffffffffff8111156106a357600080fd5b820161014081850312156106b657600080fd5b9392505050565b600084516106cf81846020890161056b565b8083019050601760f91b80825285516106ef816001850160208a0161056b565b6001920191820152835161070a81600284016020880161056b565b0160020195945050505050565b634e487b7160e01b600052603260045260246000fd5b6000823561013e1983360301811261074457600080fd5b9190910192915050565b634e487b7160e01b600052604160045260246000fd5b60006020828403121561077657600080fd5b813567ffffffffffffffff811681146106b657600080fdfea264697066735822122065fd61389f1ab20984711182badfd0f0ed11c5f3c348c2b270ab8f33a230dba764736f6c63430008130033",
    "linkReferences": {}
  },
  "methodIdentifiers": {
    "attest((bytes32,bytes32,uint64,uint64,uint64,bytes32,address,address,bool,bytes))": "e60c3505",
    "isPayable()": "ce46e046",
    "multiAttest((bytes32,bytes32,uint64,uint64,uint64,bytes32,address,address,bool,bytes)[],uint256[])": "91db0b7e",
    "multiRevoke((bytes32,bytes32,uint64,uint64,uint64,bytes32,address,address,bool,bytes)[],uint256[])": "88e5b2d9",
    "revoke((bytes32,bytes32,uint64,uint64,uint64,bytes32,address,address,bool,bytes))": "e49617e1",
    "version()": "54fd4d50"
  },
  "id": 48
}