{
  "abi": [
    {
      "inputs": [
        {
          "internalType": "contract IEAS",
          "name": "eas",
          "type": "address"
        },
        {
          "internalType": "uint256",
          "name": "incentive",
          "type": "uint256"
        }
      ],
      "stateMutability": "nonpayable",
      "type": "constructor"
    },
    {
      "inputs": [],
      "name": "AccessDenied",
      "type": "error"
    },
    {
      "inputs": [],
      "name": "InsufficientValue",
      "type": "error"
    },
    {
      "inputs": [],
      "name": "InvalidEAS",
      "type": "error"
    },
    {
      "inputs": [],
      "name": "InvalidLength",
      "type": "error"
    },
    {
      "inputs": [],
      "name": "InvalidValue",
      "type": "error"
    },
    {
      "inputs": [],
      "name": "NotPayable",
      "type": "error"
    },
    {
      "inputs": [
        {
          "components": [
            {
              "internalType": "bytes32",
              "name": "uid",
              "type": "bytes32"
            },
            {
              "internalType": "bytes32",
              "name": "schema",
              "type": "bytes32"
            },
            {
              "internalType": "uint64",
              "name": "time",
              "type": "uint64"
            },
            {
              "internalType": "uint64",
              "name": "expirationTime",
              "type": "uint64"
            },
            {
              "internalType": "uint64",
              "name": "revocationTime",
              "type": "uint64"
            },
            {
              "internalType": "bytes32",
              "name": "refUID",
              "type": "bytes32"
            },
            {
              "internalType": "address",
              "name": "recipient",
              "type": "address"
            },
            {
              "internalType": "address",
              "name": "attester",
              "type": "address"
            },
            {
              "internalType": "bool",
              "name": "revocable",
              "type": "bool"
            },
            {
              "internalType": "bytes",
              "name": "data",
              "type": "bytes"
            }
          ],
          "internalType": "struct Attestation",
          "name": "attestation",
          "type": "tuple"
        }
      ],
      "name": "attest",
      "outputs": [
        {
          "internalType": "bool",
          "name": "",
          "type": "bool"
        }
      ],
      "stateMutability": "payable",
      "type": "function"
    },
    {
      "inputs": [],
      "name": "isPayable",
      "outputs": [
        {
          "internalType": "bool",
          "name": "",
          "type": "bool"
        }
      ],
      "stateMutability": "pure",
      "type": "function"
    },
    {
      "inputs": [
        {
          "components": [
            {
              "internalType": "bytes32",
              "name": "uid",
              "type": "bytes32"
            },
            {
              "internalType": "bytes32",
              "name": "schema",
              "type": "bytes32"
            },
            {
              "internalType": "uint64",
              "name": "time",
              "type": "uint64"
            },
            {
              "internalType": "uint64",
              "name": "expirationTime",
              "type": "uint64"
            },
            {
              "internalType": "uint64",
              "name": "revocationTime",
              "type": "uint64"
            },
            {
              "internalType": "bytes32",
              "name": "refUID",
              "type": "bytes32"
            },
            {
              "internalType": "address",
              "name": "recipient",
              "type": "address"
            },
            {
              "internalType": "address",
              "name": "attester",
              "type": "address"
            },
            {
              "internalType": "bool",
              "name": "revocable",
              "type": "bool"
            },
            {
              "internalType": "bytes",
              "name": "data",
              "type": "bytes"
            }
          ],
          "internalType": "struct Attestation[]",
          "name": "attestations",
          "type": "tuple[]"
        },
        {
          "internalType": "uint256[]",
          "name": "values",
          "type": "uint256[]"
        }
      ],
      "name": "multiAttest",
      "outputs": [
        {
          "internalType": "bool",
          "name": "",
          "type": "bool"
        }
      ],
      "stateMutability": "payable",
      "type": "function"
    },
    {
      "inputs": [
        {
          "components": [
            {
              "internalType": "bytes32",
              "name": "uid",
              "type": "bytes32"
            },
            {
              "internalType": "bytes32",
              "name": "schema",
              "type": "bytes32"
            },
            {
              "internalType": "uint64",
              "name": "time",
              "type": "uint64"
            },
            {
              "internalType": "uint64",
              "name": "expirationTime",
              "type": "uint64"
            },
            {
              "internalType": "uint64",
              "name": "revocationTime",
              "type": "uint64"
            },
            {
              "internalType": "bytes32",
              "name": "refUID",
              "type": "bytes32"
            },
            {
              "internalType": "address",
              "name": "recipient",
              "type": "address"
            },
            {
              "internalType": "address",
              "name": "attester",
              "type": "address"
            },
            {
              "internalType": "bool",
              "name": "revocable",
              "type": "bool"
            },
            {
              "internalType": "bytes",
              "name": "data",
              "type": "bytes"
            }
          ],
          "internalType": "struct Attestation[]",
          "name": "attestations",
          "type": "tuple[]"
        },
        {
          "internalType": "uint256[]",
          "name": "values",
          "type": "uint256[]"
        }
      ],
      "name": "multiRevoke",
      "outputs": [
        {
          "internalType": "bool",
          "name": "",
          "type": "bool"
        }
      ],
      "stateMutability": "payable",
      "type": "function"
    },
    {
      "inputs": [
        {
          "components": [
            {
              "internalType": "bytes32",
              "name": "uid",
              "type": "bytes32"
            },
            {
              "internalType": "bytes32",
              "name": "schema",
              "type": "bytes32"
            },
            {
              "internalType": "uint64",
              "name": "time",
              "type": "uint64"
            },
            {
              "internalType": "uint64",
              "name": "expirationTime",
              "type": "uint64"
            },
            {
              "internalType": "uint64",
              "name": "revocationTime",
              "type": "uint64"
            },
            {
              "internalType": "bytes32",
              "name": "refUID",
              "type": "bytes32"
            },
            {
              "internalType": "address",
              "name": "recipient",
              "type": "address"
            },
            {
              "internalType": "address",
              "name": "attester",
              "type": "address"
            },
            {
              "internalType": "bool",
              "name": "revocable",
              "type": "bool"
            },
            {
              "internalType": "bytes",
              "name": "data",
              "type": "bytes"
            }
          ],
          "internalType": "struct Attestation",
          "name": "attestation",
          "type": "tuple"
        }
      ],
      "name": "revoke",
      "outputs": [
        {
          "internalType": "bool",
          "name": "",
          "type": "bool"
        }
      ],
      "stateMutability": "payable",
      "type": "function"
    },
    {
      "inputs": [],
      "name": "version",
      "outputs": [
        {
          "internalType": "string",
          "name": "",
          "type": "string"
        }
      ],
      "stateMutability": "view",
      "type": "function"
    },
    {
      "stateMutability": "payable",
      "type": "receive"
    }
  ],
  "bytecode": {
    "object": "0x61012060405234801561001157600080fd5b50604051610af4380380610af48339810160408190526100309161007d565b6001608052600360a052600060c052816001600160a01b038116610067576040516341bc07ff60e11b815260040160405180910390fd5b6001600160a01b031660e05261010052506100b7565b6000806040838503121561009057600080fd5b82516001600160a01b03811681146100a757600080fd5b6020939093015192949293505050565b60805160a05160c05160e051610100516109e461011060003960008181610441015281816104710152818161049f015261051c015260006103fd01526000610159015260006101300152600061010701526109e46000f3fe6080604052600436106100595760003560e01c806354fd4d501461006557806388e5b2d91461009057806391db0b7e146100b3578063ce46e046146100c6578063e49617e1146100da578063e60c3505146100ed57600080fd5b3661006057005b600080fd5b34801561007157600080fd5b5061007a610100565b604051610087919061078f565b60405180910390f35b6100a361009e36600461080e565b6101a3565b6040519015158152602001610087565b6100a36100c136600461080e565b610272565b3480156100d257600080fd5b5060016100a3565b6100a36100e836600461087a565b610331565b6100a36100fb36600461087a565b61034b565b606061012b7f000000000000000000000000000000000000000000000000000000000000000061035f565b6101547f000000000000000000000000000000000000000000000000000000000000000061035f565b61017d7f000000000000000000000000000000000000000000000000000000000000000061035f565b60405160200161018f939291906108bd565b604051602081830303815290604052905090565b60006101ad6103f2565b838281146101ce5760405163251f56a160e21b815260040160405180910390fd5b3460005b828110156102625760008686838181106101ee576101ee610917565b905060200201359050828111156102185760405163044044a560e21b815260040160405180910390fd5b61024589898481811061022d5761022d610917565b905060200281019061023f919061092d565b8261043d565b61025657600094505050505061026a565b909103906001016101d2565b506001925050505b949350505050565b600061027c6103f2565b8382811461029d5760405163251f56a160e21b815260040160405180910390fd5b3460005b828110156102625760008686838181106102bd576102bd610917565b905060200201359050828111156102e75760405163044044a560e21b815260040160405180910390fd5b6103148989848181106102fc576102fc610917565b905060200281019061030e919061092d565b826104ed565b61032557600094505050505061026a565b909103906001016102a1565b600061033b6103f2565b610345823461043d565b92915050565b60006103556103f2565b61034582346104ed565b6060600061036c83610570565b600101905060008167ffffffffffffffff81111561038c5761038c61094e565b6040519080825280601f01601f1916602001820160405280156103b6576020820181803683370190505b5090508181016020015b600019016f181899199a1a9b1b9c1cb0b131b232b360811b600a86061a8153600a85049450846103c057509392505050565b336001600160a01b037f0000000000000000000000000000000000000000000000000000000000000000161461043b57604051634ca8886760e01b815260040160405180910390fd5b565b60007f000000000000000000000000000000000000000000000000000000000000000082101561046f57506000610345565b7f00000000000000000000000000000000000000000000000000000000000000008211156104e4576104e46104c47f000000000000000000000000000000000000000000000000000000000000000084610964565b6104d5610100860160e08701610985565b6001600160a01b031690610648565b50600192915050565b600081156104fd57506000610345565b61050e610100840160e08501610985565b6001600160a01b03166108fc7f00000000000000000000000000000000000000000000000000000000000000009081150290604051600060405180830381858888f19350505050158015610566573d6000803e3d6000fd5b5060019392505050565b60008072184f03e93ff9f4daa797ed6e38ed64bf6a1f0160401b83106105af5772184f03e93ff9f4daa797ed6e38ed64bf6a1f0160401b830492506040015b6d04ee2d6d415b85acef810000000083106105db576d04ee2d6d415b85acef8100000000830492506020015b662386f26fc1000083106105f957662386f26fc10000830492506010015b6305f5e1008310610611576305f5e100830492506008015b612710831061062557612710830492506004015b60648310610637576064830492506002015b600a83106103455760010192915050565b8047101561069d5760405162461bcd60e51b815260206004820152601d60248201527f416464726573733a20696e73756666696369656e742062616c616e636500000060448201526064015b60405180910390fd5b6000826001600160a01b03168260405160006040518083038185875af1925050503d80600081146106ea576040519150601f19603f3d011682016040523d82523d6000602084013e6106ef565b606091505b50509050806107665760405162461bcd60e51b815260206004820152603a60248201527f416464726573733a20756e61626c6520746f2073656e642076616c75652c207260448201527f6563697069656e74206d617920686176652072657665727465640000000000006064820152608401610694565b505050565b60005b8381101561078657818101518382015260200161076e565b50506000910152565b60208152600082518060208401526107ae81604085016020870161076b565b601f01601f19169190910160400192915050565b60008083601f8401126107d457600080fd5b50813567ffffffffffffffff8111156107ec57600080fd5b6020830191508360208260051b850101111561080757600080fd5b9250929050565b6000806000806040858703121561082457600080fd5b843567ffffffffffffffff8082111561083c57600080fd5b610848888389016107c2565b9096509450602087013591508082111561086157600080fd5b5061086e878288016107c2565b95989497509550505050565b60006020828403121561088c57600080fd5b813567ffffffffffffffff8111156108a357600080fd5b820161014081850312156108b657600080fd5b9392505050565b600084516108cf81846020890161076b565b8083019050601760f91b80825285516108ef816001850160208a0161076b565b6001920191820152835161090a81600284016020880161076b565b0160020195945050505050565b634e487b7160e01b600052603260045260246000fd5b6000823561013e1983360301811261094457600080fd5b9190910192915050565b634e487b7160e01b600052604160045260246000fd5b8181038181111561034557634e487b7160e01b600052601160045260246000fd5b60006020828403121561099757600080fd5b81356001600160a01b03811681146108b657600080fdfea2646970667358221220f7c0531a66d1743e3092ef567316cb4d1a0daf0a24c5c3a1f9186545f370baed64736f6c63430008130033",
    "linkReferences": {}
  },
  "methodIdentifiers": {
    "attest((bytes32,bytes32,uint64,uint64,uint64,bytes32,address,address,bool,bytes))": "e60c3505",
    "isPayable()": "ce46e046",
    "multiAttest((bytes32,bytes32,uint64,uint64,uint64,bytes32,address,address,bool,bytes)[],uint256[])": "91db0b7e",
    "multiRevoke((bytes32,bytes32,uint64,uint64,uint64,bytes32,address,address,bool,bytes)[],uint256[])": "88e5b2d9",
    "revoke((bytes32,bytes32,uint64,uint64,uint64,bytes32,address,address,bool,bytes))": "e49617e1",
    "version()": "54fd4d50"
  },
  "id": 49
}