{
  "abi": [
    {
      "inputs": [
        {
          "internalType": "contract IEAS",
          "name": "eas",
          "type": "address"
        },
        {
          "internalType": "string",
          "name": "name",
          "type": "string"
        }
      ],
      "stateMutability": "nonpayable",
      "type": "constructor"
    },
    {
      "inputs": [],
      "name": "AccessDenied",
      "type": "error"
    },
    {
      "inputs": [],
      "name": "DeadlineExpired",
      "type": "error"
    },
    {
      "inputs": [],
      "name": "InvalidEAS",
      "type": "error"
    },
    {
      "inputs": [],
      "name": "InvalidLength",
      "type": "error"
    },
    {
      "inputs": [],
      "name": "InvalidShortString",
      "type": "error"
    },
    {
      "inputs": [],
      "name": "InvalidSignature",
      "type": "error"
    },
    {
      "inputs": [],
      "name": "NotFound",
      "type": "error"
    },
    {
      "inputs": [
        {
          "internalType": "string",
          "name": "str",
          "type": "string"
        }
      ],
      "name": "StringTooLong",
      "type": "error"
    },
    {
      "inputs": [],
      "name": "UsedSignature",
      "type": "error"
    },
    {
      "anonymous": false,
      "inputs": [],
      "name": "EIP712DomainChanged",
      "type": "event"
    },
    {
      "anonymous": false,
      "inputs": [
        {
          "indexed": true,
          "internalType": "address",
          "name": "previousOwner",
          "type": "address"
        },
        {
          "indexed": true,
          "internalType": "address",
          "name": "newOwner",
          "type": "address"
        }
      ],
      "name": "OwnershipTransferred",
      "type": "event"
    },
    {
      "inputs": [
        {
          "components": [
            {
              "internalType": "bytes32",
              "name": "schema",
              "type": "bytes32"
            },
            {
              "components": [
                {
                  "internalType": "address",
                  "name": "recipient",
                  "type": "address"
                },
                {
                  "internalType": "uint64",
                  "name": "expirationTime",
                  "type": "uint64"
                },
                {
                  "internalType": "bool",
                  "name": "revocable",
                  "type": "bool"
                },
                {
                  "internalType": "bytes32",
                  "name": "refUID",
                  "type": "bytes32"
                },
                {
                  "internalType": "bytes",
                  "name": "data",
                  "type": "bytes"
                },
                {
                  "internalType": "uint256",
                  "name": "value",
                  "type": "uint256"
                }
              ],
              "internalType": "struct AttestationRequestData",
              "name": "data",
              "type": "tuple"
            },
            {
              "components": [
                {
                  "internalType": "uint8",
                  "name": "v",
                  "type": "uint8"
                },
                {
                  "internalType": "bytes32",
                  "name": "r",
                  "type": "bytes32"
                },
                {
                  "internalType": "bytes32",
                  "name": "s",
                  "type": "bytes32"
                }
              ],
              "internalType": "struct Signature",
              "name": "signature",
              "type": "tuple"
            },
            {
              "internalType": "address",
              "name": "attester",
              "type": "address"
            },
            {
              "internalType": "uint64",
              "name": "deadline",
              "type": "uint64"
            }
          ],
          "internalType": "struct DelegatedProxyAttestationRequest",
          "name": "delegatedRequest",
          "type": "tuple"
        }
      ],
      "name": "attestByDelegation",
      "outputs": [
        {
          "internalType": "bytes32",
          "name": "",
          "type": "bytes32"
        }
      ],
      "stateMutability": "payable",
      "type": "function"
    },
    {
      "inputs": [],
      "name": "eip712Domain",
      "outputs": [
        {
          "internalType": "bytes1",
          "name": "fields",
          "type": "bytes1"
        },
        {
          "internalType": "string",
          "name": "name",
          "type": "string"
        },
        {
          "internalType": "string",
          "name": "version",
          "type": "string"
        },
        {
          "internalType": "uint256",
          "name": "chainId",
          "type": "uint256"
        },
        {
          "internalType": "address",
          "name": "verifyingContract",
          "type": "address"
        },
        {
          "internalType": "bytes32",
          "name": "salt",
          "type": "bytes32"
        },
        {
          "internalType": "uint256[]",
          "name": "extensions",
          "type": "uint256[]"
        }
      ],
      "stateMutability": "view",
      "type": "function"
    },
    {
      "inputs": [],
      "name": "getAttestTypeHash",
      "outputs": [
        {
          "internalType": "bytes32",
          "name": "",
          "type": "bytes32"
        }
      ],
      "stateMutability": "pure",
      "type": "function"
    },
    {
      "inputs": [
        {
          "internalType": "bytes32",
          "name": "uid",
          "type": "bytes32"
        }
      ],
      "name": "getAttester",
      "outputs": [
        {
          "internalType": "address",
          "name": "",
          "type": "address"
        }
      ],
      "stateMutability": "view",
      "type": "function"
    },
    {
      "inputs": [],
      "name": "getDomainSeparator",
      "outputs": [
        {
          "internalType": "bytes32",
          "name": "",
          "type": "bytes32"
        }
      ],
      "stateMutability": "view",
      "type": "function"
    },
    {
      "inputs": [],
      "name": "getEAS",
      "outputs": [
        {
          "internalType": "contract IEAS",
          "name": "",
          "type": "address"
        }
      ],
      "stateMutability": "view",
      "type": "function"
    },
    {
      "inputs": [],
      "name": "getName",
      "outputs": [
        {
          "internalType": "string",
          "name": "",
          "type": "string"
        }
      ],
      "stateMutability": "view",
      "type": "function"
    },
    {
      "inputs": [],
      "name": "getRevokeTypeHash",
      "outputs": [
        {
          "internalType": "bytes32",
          "name": "",
          "type": "bytes32"
        }
      ],
      "stateMutability": "pure",
      "type": "function"
    },
    {
      "inputs": [
        {
          "components": [
            {
              "internalType": "bytes32",
              "name": "schema",
              "type": "bytes32"
            },
            {
              "components": [
                {
                  "internalType": "address",
                  "name": "recipient",
                  "type": "address"
                },
                {
                  "internalType": "uint64",
                  "name": "expirationTime",
                  "type": "uint64"
                },
                {
                  "internalType": "bool",
                  "name": "revocable",
                  "type": "bool"
                },
                {
                  "internalType": "bytes32",
                  "name": "refUID",
                  "type": "bytes32"
                },
                {
                  "internalType": "bytes",
                  "name": "data",
                  "type": "bytes"
                },
                {
                  "internalType": "uint256",
                  "name": "value",
                  "type": "uint256"
                }
              ],
              "internalType": "struct AttestationRequestData[]",
              "name": "data",
              "type": "tuple[]"
            },
            {
              "components": [
                {
                  "internalType": "uint8",
                  "name": "v",
                  "type": "uint8"
                },
                {
                  "internalType": "bytes32",
                  "name": "r",
                  "type": "bytes32"
                },
                {
                  "internalType": "bytes32",
                  "name": "s",
                  "type": "bytes32"
                }
              ],
              "internalType": "struct Signature[]",
              "name": "signatures",
              "type": "tuple[]"
            },
            {
              "internalType": "address",
              "name": "attester",
              "type": "address"
            },
            {
              "internalType": "uint64",
              "name": "deadline",
              "type": "uint64"
            }
          ],
          "internalType": "struct MultiDelegatedProxyAttestationRequest[]",
          "name": "multiDelegatedRequests",
          "type": "tuple[]"
        }
      ],
      "name": "multiAttestByDelegation",
      "outputs": [
        {
          "internalType": "bytes32[]",
          "name": "",
          "type": "bytes32[]"
        }
      ],
      "stateMutability": "payable",
      "type": "function"
    },
    {
      "inputs": [
        {
          "components": [
            {
              "internalType": "bytes32",
              "name": "schema",
              "type": "bytes32"
            },
            {
              "components": [
                {
                  "internalType": "bytes32",
                  "name": "uid",
                  "type": "bytes32"
                },
                {
                  "internalType": "uint256",
                  "name": "value",
                  "type": "uint256"
                }
              ],
              "internalType": "struct RevocationRequestData[]",
              "name": "data",
              "type": "tuple[]"
            },
            {
              "components": [
                {
                  "internalType": "uint8",
                  "name": "v",
                  "type": "uint8"
                },
                {
                  "internalType": "bytes32",
                  "name": "r",
                  "type": "bytes32"
                },
                {
                  "internalType": "bytes32",
                  "name": "s",
                  "type": "bytes32"
                }
              ],
              "internalType": "struct Signature[]",
              "name": "signatures",
              "type": "tuple[]"
            },
            {
              "internalType": "address",
              "name": "revoker",
              "type": "address"
            },
            {
              "internalType": "uint64",
              "name": "deadline",
              "type": "uint64"
            }
          ],
          "internalType": "struct MultiDelegatedProxyRevocationRequest[]",
          "name": "multiDelegatedRequests",
          "type": "tuple[]"
        }
      ],
      "name": "multiRevokeByDelegation",
      "outputs": [],
      "stateMutability": "payable",
      "type": "function"
    },
    {
      "inputs": [],
      "name": "owner",
      "outputs": [
        {
          "internalType": "address",
          "name": "",
          "type": "address"
        }
      ],
      "stateMutability": "view",
      "type": "function"
    },
    {
      "inputs": [],
      "name": "renounceOwnership",
      "outputs": [],
      "stateMutability": "nonpayable",
      "type": "function"
    },
    {
      "inputs": [
        {
          "components": [
            {
              "internalType": "bytes32",
              "name": "schema",
              "type": "bytes32"
            },
            {
              "components": [
                {
                  "internalType": "bytes32",
                  "name": "uid",
                  "type": "bytes32"
                },
                {
                  "internalType": "uint256",
                  "name": "value",
                  "type": "uint256"
                }
              ],
              "internalType": "struct RevocationRequestData",
              "name": "data",
              "type": "tuple"
            },
            {
              "components": [
                {
                  "internalType": "uint8",
                  "name": "v",
                  "type": "uint8"
                },
                {
                  "internalType": "bytes32",
                  "name": "r",
                  "type": "bytes32"
                },
                {
                  "internalType": "bytes32",
                  "name": "s",
                  "type": "bytes32"
                }
              ],
              "internalType": "struct Signature",
              "name": "signature",
              "type": "tuple"
            },
            {
              "internalType": "address",
              "name": "revoker",
              "type": "address"
            },
            {
              "internalType": "uint64",
              "name": "deadline",
              "type": "uint64"
            }
          ],
          "internalType": "struct DelegatedProxyRevocationRequest",
          "name": "delegatedRequest",
          "type": "tuple"
        }
      ],
      "name": "revokeByDelegation",
      "outputs": [],
      "stateMutability": "payable",
      "type": "function"
    },
    {
      "inputs": [
        {
          "internalType": "address",
          "name": "newOwner",
          "type": "address"
        }
      ],
      "name": "transferOwnership",
      "outputs": [],
      "stateMutability": "nonpayable",
      "type": "function"
    },
    {
      "inputs": [],
      "name": "version",
      "outputs": [
        {
          "internalType": "string",
          "name": "",
          "type": "string"
        }
      ],
      "stateMutability": "view",
      "type": "function"
    }
  ],
  "bytecode": {
    "object": "0x6101e06040523480156200001257600080fd5b5060405162002b3438038062002b348339810160408190526200003591620002a2565b6040805180820190915260058152640312e332e360dc1b60208201526001608052600360a052600060c081905283918391829190620000769083906200018b565b61018052620000878160016200018b565b6101a052815160208084019190912061014052815190820120610160524661010052620001186101405161016051604080517f8b73c3c69bb8fe3d512ecc4cf759cc79239f7b179b0ffacaa9a75d522b39400f60208201529081019290925260608201524660808201523060a082015260009060c00160405160208183030381529060405280519060200120905090565b60e052505030610120526001600160a01b0382166200014a576040516341bc07ff60e11b815260040160405180910390fd5b6001600160a01b0382166101c05260026200016682826200040c565b505050620001836200017d620001c460201b60201c565b620001c8565b505062000532565b6000602083511015620001ab57620001a3836200021a565b9050620001be565b81620001b884826200040c565b5060ff90505b92915050565b3390565b600580546001600160a01b038381166001600160a01b0319831681179093556040519116919082907f8be0079c531659141344cd1fd0a4f28419497f9722a3daafe3b4186f6b6457e090600090a35050565b600080829050601f8151111562000251578260405163305a27a960e01b8152600401620002489190620004d8565b60405180910390fd5b80516200025e826200050d565b179392505050565b634e487b7160e01b600052604160045260246000fd5b60005b83811015620002995781810151838201526020016200027f565b50506000910152565b60008060408385031215620002b657600080fd5b82516001600160a01b0381168114620002ce57600080fd5b60208401519092506001600160401b0380821115620002ec57600080fd5b818501915085601f8301126200030157600080fd5b81518181111562000316576200031662000266565b604051601f8201601f19908116603f0116810190838211818310171562000341576200034162000266565b816040528281528860208487010111156200035b57600080fd5b6200036e8360208301602088016200027c565b80955050505050509250929050565b600181811c908216806200039257607f821691505b602082108103620003b357634e487b7160e01b600052602260045260246000fd5b50919050565b601f8211156200040757600081815260208120601f850160051c81016020861015620003e25750805b601f850160051c820191505b818110156200040357828155600101620003ee565b5050505b505050565b81516001600160401b0381111562000428576200042862000266565b62000440816200043984546200037d565b84620003b9565b602080601f8311600181146200047857600084156200045f5750858301515b600019600386901b1c1916600185901b17855562000403565b600085815260208120601f198616915b82811015620004a95788860151825594840194600190910190840162000488565b5085821015620004c85787850151600019600388901b60f8161c191681555b5050505050600190811b01905550565b6020815260008251806020840152620004f98160408501602087016200027c565b601f01601f19169190910160400192915050565b80516020808301519190811015620003b35760001960209190910360031b1b16919050565b60805160a05160c05160e05161010051610120516101405161016051610180516101a0516101c05161255f620005d5600039600081816101eb01528181610848015281816108ce01528181610dca0152610f640152600061050b015260006104e101526000611100015260006110d8015260006110330152600061105d01526000611087015260006104750152600061044c01526000610423015261255f6000f3fe6080604052600436106100e85760003560e01c8063715018a61161008a578063a6d4dbc711610059578063a6d4dbc71461028a578063b83010d31461029d578063ed24911d146102d0578063f2fde38b146102e557600080fd5b8063715018a61461020f57806384b0196e146102245780638da5cb5b1461024c578063954115251461026a57600080fd5b806317d7de7c116100c657806317d7de7c146101925780633c042715146101b457806354fd4d50146101c757806365c40b9c146101dc57600080fd5b80630eabf660146100ed57806310d736d51461010257806312b11a1714610155575b600080fd5b6101006100fb366004611935565b610305565b005b34801561010e57600080fd5b5061013861011d366004611976565b6000908152600360205260409020546001600160a01b031690565b6040516001600160a01b0390911681526020015b60405180910390f35b34801561016157600080fd5b507fea02ffba7dcb45f6fc649714d23f315eef12e3b27f9a7735d8d8bf41eb2b1af15b60405190815260200161014c565b34801561019e57600080fd5b506101a7610366565b60405161014c91906119df565b6101846101c23660046119f9565b6103f8565b3480156101d357600080fd5b506101a761041c565b3480156101e857600080fd5b507f0000000000000000000000000000000000000000000000000000000000000000610138565b34801561021b57600080fd5b506101006104bf565b34801561023057600080fd5b506102396104d3565b60405161014c9796959493929190611a33565b34801561025857600080fd5b506005546001600160a01b0316610138565b61027d610278366004611935565b61055b565b60405161014c9190611ac9565b610100610298366004611b01565b610599565b3480156102a957600080fd5b507f78a69a78c1a55cdff5cbf949580b410778cd9e4d1ecbe6f06a7fa8dc2441b57d610184565b3480156102dc57600080fd5b506101846105b8565b3480156102f157600080fd5b50610100610300366004611b36565b6105c7565b8060005b818110156103565761034e84848381811061032657610326611b51565b90506020028101906103389190611b67565b610349906080810190606001611b36565b610642565b600101610309565b506103618383610670565b505050565b60606002805461037590611b87565b80601f01602080910402602001604051908101604052809291908181526020018280546103a190611b87565b80156103ee5780601f106103c3576101008083540402835291602001916103ee565b820191906000526020600020905b8154815290600101906020018083116103d157829003601f168201915b5050505050905090565b600061040d61034960c0840160a08501611b36565b610416826108b7565b92915050565b60606104477f00000000000000000000000000000000000000000000000000000000000000006109d0565b6104707f00000000000000000000000000000000000000000000000000000000000000006109d0565b6104997f00000000000000000000000000000000000000000000000000000000000000006109d0565b6040516020016104ab93929190611bbb565b604051602081830303815290604052905090565b6104c7610a62565b6104d16000610abc565b565b6000606080828080836105067f000000000000000000000000000000000000000000000000000000000000000083610b0e565b6105317f00000000000000000000000000000000000000000000000000000000000000006001610b0e565b60408051600080825260208201909252600f60f81b9b939a50919850469750309650945092509050565b60608160005b818110156105865761057e85858381811061032657610326611b51565b600101610561565b506105918484610bb9565b949350505050565b6105ac61034960e0830160c08401611b36565b6105b581610f4b565b50565b60006105c2611026565b905090565b6105cf610a62565b6001600160a01b0381166106395760405162461bcd60e51b815260206004820152602660248201527f4f776e61626c653a206e6577206f776e657220697320746865207a65726f206160448201526564647265737360d01b60648201526084015b60405180910390fd5b6105b581610abc565b6005546001600160a01b038281169116146105b557604051634ca8886760e01b815260040160405180910390fd5b806000816001600160401b0381111561068b5761068b611c15565b6040519080825280602002602001820160405280156106d157816020015b6040805180820190915260008152606060208201528152602001906001900390816106a95790505b50905060005b828110156108305760008585838181106106f3576106f3611b51565b90506020028101906107059190611b67565b61070e90611e0c565b602081015180519192509080158061072b57508260400151518114155b156107495760405163251f56a160e21b815260040160405180910390fd5b60005b818110156107e557600083828151811061076857610768611b51565b602002602001015190506107dc6040518060a0016040528087600001518152602001838152602001876040015185815181106107a6576107a6611b51565b6020026020010151815260200187606001516001600160a01b0316815260200187608001516001600160401b0316815250611151565b5060010161074c565b506040518060400160405280846000015181526020018381525085858151811061081157610811611b51565b60200260200101819052505050506108298160010190565b90506106d7565b50604051634cb7e9e560e01b81526001600160a01b037f00000000000000000000000000000000000000000000000000000000000000001690634cb7e9e590349061087f908590600401611f06565b6000604051808303818588803b15801561089857600080fd5b505af11580156108ac573d6000803e3d6000fd5b505050505050505050565b60006108ca6108c5836120bb565b611304565b60007f00000000000000000000000000000000000000000000000000000000000000006001600160a01b031663f17325e7346040518060400160405280876000013581526020018780602001906109219190612133565b61092a90612149565b8152506040518363ffffffff1660e01b815260040161094991906121b9565b60206040518083038185885af1158015610967573d6000803e3d6000fd5b50505050506040513d601f19601f8201168201806040525081019061098c91906121de565b905061099e60c0840160a08501611b36565b600082815260036020526040902080546001600160a01b0319166001600160a01b039290921691909117905592915050565b606060006109dd83611489565b60010190506000816001600160401b038111156109fc576109fc611c15565b6040519080825280601f01601f191660200182016040528015610a26576020820181803683370190505b5090508181016020015b600019016f181899199a1a9b1b9c1cb0b131b232b360811b600a86061a8153600a8504945084610a3057509392505050565b6005546001600160a01b031633146104d15760405162461bcd60e51b815260206004820181905260248201527f4f776e61626c653a2063616c6c6572206973206e6f7420746865206f776e65726044820152606401610630565b600580546001600160a01b038381166001600160a01b0319831681179093556040519116919082907f8be0079c531659141344cd1fd0a4f28419497f9722a3daafe3b4186f6b6457e090600090a35050565b606060ff8314610b2857610b2183611561565b9050610416565b818054610b3490611b87565b80601f0160208091040260200160405190810160405280929190818152602001828054610b6090611b87565b8015610bad5780601f10610b8257610100808354040283529160200191610bad565b820191906000526020600020905b815481529060010190602001808311610b9057829003601f168201915b50505050509050610416565b6060816000816001600160401b03811115610bd657610bd6611c15565b604051908082528060200260200182016040528015610c1c57816020015b604080518082019091526000815260606020820152815260200190600190039081610bf45790505b50905060005b82811015610dc55736868683818110610c3d57610c3d611b51565b9050602002810190610c4f9190611b67565b9050366000610c6160208401846121f7565b909250905080801580610c825750610c7c6040850185612240565b90508114155b15610ca05760405163251f56a160e21b815260040160405180910390fd5b60005b81811015610d7357610d6b6040518060a0016040528087600001358152602001868685818110610cd557610cd5611b51565b9050602002810190610ce79190612133565b610cf090612149565b8152602001610d026040890189612240565b85818110610d1257610d12611b51565b905060600201803603810190610d289190612288565b8152602001610d3d6080890160608a01611b36565b6001600160a01b03168152602001610d5b60a0890160808a016122a4565b6001600160401b03169052611304565b600101610ca3565b50604080518082019091528435815260208101610d9084866122bf565b815250868681518110610da557610da5611b51565b602002602001018190525050505050610dbe8160010190565b9050610c22565b5060007f00000000000000000000000000000000000000000000000000000000000000006001600160a01b03166344adc90e34846040518363ffffffff1660e01b8152600401610e159190612332565b60006040518083038185885af1158015610e33573d6000803e3d6000fd5b50505050506040513d6000823e601f3d908101601f19168201604052610e5c91908101906123e9565b90506000805b84811015610f3f5736888883818110610e7d57610e7d611b51565b9050602002810190610e8f9190611b67565b9050366000610ea160208401846121f7565b90925090508060005b81811015610f2957610ec26080860160608701611b36565b600360008a8a81518110610ed857610ed8611b51565b6020026020010151815260200190815260200160002060006101000a8154816001600160a01b0302191690836001600160a01b03160217905550866001019650610f228160010190565b9050610eaa565b5050505050610f388160010190565b9050610e62565b50909695505050505050565b610f62610f5d36839003830183612479565b611151565b7f00000000000000000000000000000000000000000000000000000000000000006001600160a01b031663469262673460405180604001604052808560000135815260200185602001803603810190610fbb91906124e5565b90526040516001600160e01b031960e085901b16815281516004820152602091820151805160248301529091015160448201526064016000604051808303818588803b15801561100a57600080fd5b505af115801561101e573d6000803e3d6000fd5b505050505050565b6000306001600160a01b037f00000000000000000000000000000000000000000000000000000000000000001614801561107f57507f000000000000000000000000000000000000000000000000000000000000000046145b156110a957507f000000000000000000000000000000000000000000000000000000000000000090565b6105c2604080517f8b73c3c69bb8fe3d512ecc4cf759cc79239f7b179b0ffacaa9a75d522b39400f60208201527f0000000000000000000000000000000000000000000000000000000000000000918101919091527f000000000000000000000000000000000000000000000000000000000000000060608201524660808201523060a082015260009060c00160405160208183030381529060405280519060200120905090565b60808101516001600160401b0316158015906111825750426001600160401b031681608001516001600160401b0316105b156111a057604051631ab7da6b60e01b815260040160405180910390fd5b6020808201518051600090815260039092526040909120546001600160a01b0316806111df5760405163c5723b5160e01b815260040160405180910390fd5b6001600160a01b038116331461120857604051634ca8886760e01b815260040160405180910390fd5b6040830151611216816115a0565b606080850151855185516020808801516080808b0151604080517f78a69a78c1a55cdff5cbf949580b410778cd9e4d1ecbe6f06a7fa8dc2441b57d958101959095526001600160a01b0390971696840196909652958201939093529384015260a08301526001600160401b031660c08201526000906112ae9060e0015b6040516020818303038152906040528051906020012061165f565b905084606001516001600160a01b03166112d68284600001518560200151866040015161168c565b6001600160a01b0316146112fd57604051638baa579f60e01b815260040160405180910390fd5b5050505050565b60808101516001600160401b0316158015906113355750426001600160401b031681608001516001600160401b0316105b1561135357604051631ab7da6b60e01b815260040160405180910390fd5b60208101516040820151611366816115a0565b60006114347fea02ffba7dcb45f6fc649714d23f315eef12e3b27f9a7735d8d8bf41eb2b1af160001b8560600151866000015186600001518760200151886040015189606001518a60800151805190602001208b60a001518d608001516040516020016112939a99989796959493929190998a526001600160a01b0398891660208b015260408a01979097529490961660608801526001600160401b03928316608088015290151560a087015260c086015260e0850193909352610100840152166101208201526101400190565b905083606001516001600160a01b031661145c8284600001518560200151866040015161168c565b6001600160a01b03161461148357604051638baa579f60e01b815260040160405180910390fd5b50505050565b60008072184f03e93ff9f4daa797ed6e38ed64bf6a1f0160401b83106114c85772184f03e93ff9f4daa797ed6e38ed64bf6a1f0160401b830492506040015b6d04ee2d6d415b85acef810000000083106114f4576d04ee2d6d415b85acef8100000000830492506020015b662386f26fc10000831061151257662386f26fc10000830492506010015b6305f5e100831061152a576305f5e100830492506008015b612710831061153e57612710830492506004015b60648310611550576064830492506002015b600a83106104165760010192915050565b6060600061156e836116b4565b604080516020808252818301909252919250600091906020820181803683375050509182525060208101929092525090565b8051602080830151604080850151905160f89490941b6001600160f81b031916928401929092526021830152604182015260009060610160405160208183030381529060405290506004816040516115f89190612501565b9081526040519081900360200190205460ff16156116295760405163333a6a0960e21b815260040160405180910390fd5b600160048260405161163b9190612501565b908152604051908190036020019020805491151560ff199092169190911790555050565b600061041661166c611026565b8360405161190160f01b8152600281019290925260228201526042902090565b600080600061169d878787876116dc565b915091506116aa816117a0565b5095945050505050565b600060ff8216601f81111561041657604051632cd44ac360e21b815260040160405180910390fd5b6000807f7fffffffffffffffffffffffffffffff5d576e7357a4501ddfe92f46681b20a08311156117135750600090506003611797565b6040805160008082526020820180845289905260ff881692820192909252606081018690526080810185905260019060a0016020604051602081039080840390855afa158015611767573d6000803e3d6000fd5b5050604051601f1901519150506001600160a01b03811661179057600060019250925050611797565b9150600090505b94509492505050565b60008160048111156117b4576117b4612513565b036117bc5750565b60018160048111156117d0576117d0612513565b0361181d5760405162461bcd60e51b815260206004820152601860248201527f45434453413a20696e76616c6964207369676e617475726500000000000000006044820152606401610630565b600281600481111561183157611831612513565b0361187e5760405162461bcd60e51b815260206004820152601f60248201527f45434453413a20696e76616c6964207369676e6174757265206c656e677468006044820152606401610630565b600381600481111561189257611892612513565b036105b55760405162461bcd60e51b815260206004820152602260248201527f45434453413a20696e76616c6964207369676e6174757265202773272076616c604482015261756560f01b6064820152608401610630565b60008083601f8401126118fc57600080fd5b5081356001600160401b0381111561191357600080fd5b6020830191508360208260051b850101111561192e57600080fd5b9250929050565b6000806020838503121561194857600080fd5b82356001600160401b0381111561195e57600080fd5b61196a858286016118ea565b90969095509350505050565b60006020828403121561198857600080fd5b5035919050565b60005b838110156119aa578181015183820152602001611992565b50506000910152565b600081518084526119cb81602086016020860161198f565b601f01601f19169290920160200192915050565b6020815260006119f260208301846119b3565b9392505050565b600060208284031215611a0b57600080fd5b81356001600160401b03811115611a2157600080fd5b820160e081850312156119f257600080fd5b60ff60f81b881681526000602060e081840152611a5360e084018a6119b3565b8381036040850152611a65818a6119b3565b606085018990526001600160a01b038816608086015260a0850187905284810360c0860152855180825283870192509083019060005b81811015611ab757835183529284019291840191600101611a9b565b50909c9b505050505050505050505050565b6020808252825182820181905260009190848201906040850190845b81811015610f3f57835183529284019291840191600101611ae5565b60006101008284031215611b1457600080fd5b50919050565b80356001600160a01b0381168114611b3157600080fd5b919050565b600060208284031215611b4857600080fd5b6119f282611b1a565b634e487b7160e01b600052603260045260246000fd5b60008235609e19833603018112611b7d57600080fd5b9190910192915050565b600181811c90821680611b9b57607f821691505b602082108103611b1457634e487b7160e01b600052602260045260246000fd5b60008451611bcd81846020890161198f565b8083019050601760f91b8082528551611bed816001850160208a0161198f565b60019201918201528351611c0881600284016020880161198f565b0160020195945050505050565b634e487b7160e01b600052604160045260246000fd5b60405160a081016001600160401b0381118282101715611c4d57611c4d611c15565b60405290565b60405160c081016001600160401b0381118282101715611c4d57611c4d611c15565b604051601f8201601f191681016001600160401b0381118282101715611c9d57611c9d611c15565b604052919050565b60006001600160401b03821115611cbe57611cbe611c15565b5060051b60200190565b600060408284031215611cda57600080fd5b604051604081018181106001600160401b0382111715611cfc57611cfc611c15565b604052823581526020928301359281019290925250919050565b600060608284031215611d2857600080fd5b604051606081018181106001600160401b0382111715611d4a57611d4a611c15565b604052905080823560ff81168114611d6157600080fd5b8082525060208301356020820152604083013560408201525092915050565b600082601f830112611d9157600080fd5b81356020611da6611da183611ca5565b611c75565b82815260609283028501820192828201919087851115611dc557600080fd5b8387015b85811015611de857611ddb8982611d16565b8452928401928101611dc9565b5090979650505050505050565b80356001600160401b0381168114611b3157600080fd5b600060a08236031215611e1e57600080fd5b611e26611c2b565b823581526020808401356001600160401b0380821115611e4557600080fd5b9085019036601f830112611e5857600080fd5b8135611e66611da182611ca5565b81815260069190911b83018401908481019036831115611e8557600080fd5b938501935b82851015611eae57611e9c3686611cc8565b82528582019150604085019450611e8a565b80868801525050506040860135925080831115611eca57600080fd5b5050611ed836828601611d80565b604083015250611eea60608401611b1a565b6060820152611efb60808401611df5565b608082015292915050565b60006020808301818452808551808352604092508286019150828160051b8701018488016000805b84811015611fa857898403603f19018652825180518552880151888501889052805188860181905290890190839060608701905b80831015611f9357611f7f82855180518252602090810151910152565b928b019260019290920191908a0190611f62565b50978a01979550505091870191600101611f2e565b50919998505050505050505050565b600082601f830112611fc857600080fd5b81356001600160401b03811115611fe157611fe1611c15565b611ff4601f8201601f1916602001611c75565b81815284602083860101111561200957600080fd5b816020850160208301376000918101602001919091529392505050565b600060c0828403121561203857600080fd5b612040611c53565b905061204b82611b1a565b815261205960208301611df5565b60208201526040820135801515811461207157600080fd5b60408201526060828101359082015260808201356001600160401b0381111561209957600080fd5b6120a584828501611fb7565b60808301525060a082013560a082015292915050565b600060e082360312156120cd57600080fd5b6120d5611c2b565b8235815260208301356001600160401b038111156120f257600080fd5b6120fe36828601612026565b6020830152506121113660408501611d16565b604082015261212260a08401611b1a565b6060820152611efb60c08401611df5565b6000823560be19833603018112611b7d57600080fd5b60006104163683612026565b60018060a01b0381511682526001600160401b036020820151166020830152604081015115156040830152606081015160608301526000608082015160c060808501526121a560c08501826119b3565b60a093840151949093019390935250919050565b6020815281516020820152600060208301516040808401526105916060840182612155565b6000602082840312156121f057600080fd5b5051919050565b6000808335601e1984360301811261220e57600080fd5b8301803591506001600160401b0382111561222857600080fd5b6020019150600581901b360382131561192e57600080fd5b6000808335601e1984360301811261225757600080fd5b8301803591506001600160401b0382111561227157600080fd5b602001915060608102360382131561192e57600080fd5b60006060828403121561229a57600080fd5b6119f28383611d16565b6000602082840312156122b657600080fd5b6119f282611df5565b60006122cd611da184611ca5565b80848252602080830192508560051b8501368111156122eb57600080fd5b855b818110156123265780356001600160401b0381111561230c5760008081fd5b61231836828a01612026565b8652509382019382016122ed565b50919695505050505050565b602080825282518282018190526000919060409081850190600581811b8701840188860187805b858110156123d957603f198b85030187528251805185528901518985018990528051898601819052908a0190606081881b870181019190870190855b818110156123c357605f198985030183526123b1848651612155565b948e01949350918d0191600101612395565b505050978a019794505091880191600101612359565b50919a9950505050505050505050565b600060208083850312156123fc57600080fd5b82516001600160401b0381111561241257600080fd5b8301601f8101851361242357600080fd5b8051612431611da182611ca5565b81815260059190911b8201830190838101908783111561245057600080fd5b928401925b8284101561246e57835182529284019290840190612455565b979650505050505050565b6000610100828403121561248c57600080fd5b612494611c2b565b823581526124a58460208501611cc8565b60208201526124b78460608501611d16565b60408201526124c860c08401611b1a565b60608201526124d960e08401611df5565b60808201529392505050565b6000604082840312156124f757600080fd5b6119f28383611cc8565b60008251611b7d81846020870161198f565b634e487b7160e01b600052602160045260246000fdfea26469706673582212205be2ce99822d3c0d1b4cf9148c7fec7bc1313c824fb228c8fac92597be313dc564736f6c63430008130033",
    "linkReferences": {}
  },
  "methodIdentifiers": {
    "attestByDelegation((bytes32,(address,uint64,bool,bytes32,bytes,uint256),(uint8,bytes32,bytes32),address,uint64))": "3c042715",
    "eip712Domain()": "84b0196e",
    "getAttestTypeHash()": "12b11a17",
    "getAttester(bytes32)": "10d736d5",
    "getDomainSeparator()": "ed24911d",
    "getEAS()": "65c40b9c",
    "getName()": "17d7de7c",
    "getRevokeTypeHash()": "b83010d3",
    "multiAttestByDelegation((bytes32,(address,uint64,bool,bytes32,bytes,uint256)[],(uint8,bytes32,bytes32)[],address,uint64)[])": "95411525",
    "multiRevokeByDelegation((bytes32,(bytes32,uint256)[],(uint8,bytes32,bytes32)[],address,uint64)[])": "0eabf660",
    "owner()": "8da5cb5b",
    "renounceOwnership()": "715018a6",
    "revokeByDelegation((bytes32,(bytes32,uint256),(uint8,bytes32,bytes32),address,uint64))": "a6d4dbc7",
    "transferOwnership(address)": "f2fde38b",
    "version()": "54fd4d50"
  },
  "id": 42
}