{
  "abi": [
    {
      "inputs": [
        {
          "internalType": "contract ISchemaRegistry",
          "name": "registry",
          "type": "address"
        }
      ],
      "stateMutability": "nonpayable",
      "type": "constructor"
    },
    {
      "inputs": [],
      "name": "AccessDenied",
      "type": "error"
    },
    {
      "inputs": [],
      "name": "AlreadyRevoked",
      "type": "error"
    },
    {
      "inputs": [],
      "name": "AlreadyRevokedOffchain",
      "type": "error"
    },
    {
      "inputs": [],
      "name": "AlreadyTimestamped",
      "type": "error"
    },
    {
      "inputs": [],
      "name": "DeadlineExpired",
      "type": "error"
    },
    {
      "inputs": [],
      "name": "InsufficientValue",
      "type": "error"
    },
    {
      "inputs": [],
      "name": "InvalidAttestation",
      "type": "error"
    },
    {
      "inputs": [],
      "name": "InvalidAttestations",
      "type": "error"
    },
    {
      "inputs": [],
      "name": "InvalidExpirationTime",
      "type": "error"
    },
    {
      "inputs": [],
      "name": "InvalidLength",
      "type": "error"
    },
    {
      "inputs": [],
      "name": "InvalidNonce",
      "type": "error"
    },
    {
      "inputs": [],
      "name": "InvalidOffset",
      "type": "error"
    },
    {
      "inputs": [],
      "name": "InvalidRegistry",
      "type": "error"
    },
    {
      "inputs": [],
      "name": "InvalidRevocation",
      "type": "error"
    },
    {
      "inputs": [],
      "name": "InvalidRevocations",
      "type": "error"
    },
    {
      "inputs": [],
      "name": "InvalidSchema",
      "type": "error"
    },
    {
      "inputs": [],
      "name": "InvalidShortString",
      "type": "error"
    },
    {
      "inputs": [],
      "name": "InvalidSignature",
      "type": "error"
    },
    {
      "inputs": [],
      "name": "InvalidVerifier",
      "type": "error"
    },
    {
      "inputs": [],
      "name": "Irrevocable",
      "type": "error"
    },
    {
      "inputs": [],
      "name": "NotFound",
      "type": "error"
    },
    {
      "inputs": [],
      "name": "NotPayable",
      "type": "error"
    },
    {
      "inputs": [
        {
          "internalType": "string",
          "name": "str",
          "type": "string"
        }
      ],
      "name": "StringTooLong",
      "type": "error"
    },
    {
      "inputs": [],
      "name": "WrongSchema",
      "type": "error"
    },
    {
      "anonymous": false,
      "inputs": [
        {
          "indexed": true,
          "internalType": "address",
          "name": "recipient",
          "type": "address"
        },
        {
          "indexed": true,
          "internalType": "address",
          "name": "attester",
          "type": "address"
        },
        {
          "indexed": false,
          "internalType": "bytes32",
          "name": "uid",
          "type": "bytes32"
        },
        {
          "indexed": true,
          "internalType": "bytes32",
          "name": "schemaUID",
          "type": "bytes32"
        }
      ],
      "name": "Attested",
      "type": "event"
    },
    {
      "anonymous": false,
      "inputs": [],
      "name": "EIP712DomainChanged",
      "type": "event"
    },
    {
      "anonymous": false,
      "inputs": [
        {
          "indexed": false,
          "internalType": "uint256",
          "name": "oldNonce",
          "type": "uint256"
        },
        {
          "indexed": false,
          "internalType": "uint256",
          "name": "newNonce",
          "type": "uint256"
        }
      ],
      "name": "NonceIncreased",
      "type": "event"
    },
    {
      "anonymous": false,
      "inputs": [
        {
          "indexed": true,
          "internalType": "address",
          "name": "recipient",
          "type": "address"
        },
        {
          "indexed": true,
          "internalType": "address",
          "name": "attester",
          "type": "address"
        },
        {
          "indexed": false,
          "internalType": "bytes32",
          "name": "uid",
          "type": "bytes32"
        },
        {
          "indexed": true,
          "internalType": "bytes32",
          "name": "schemaUID",
          "type": "bytes32"
        }
      ],
      "name": "Revoked",
      "type": "event"
    },
    {
      "anonymous": false,
      "inputs": [
        {
          "indexed": true,
          "internalType": "address",
          "name": "revoker",
          "type": "address"
        },
        {
          "indexed": true,
          "internalType": "bytes32",
          "name": "data",
          "type": "bytes32"
        },
        {
          "indexed": true,
          "internalType": "uint64",
          "name": "timestamp",
          "type": "uint64"
        }
      ],
      "name": "RevokedOffchain",
      "type": "event"
    },
    {
      "anonymous": false,
      "inputs": [
        {
          "indexed": true,
          "internalType": "bytes32",
          "name": "data",
          "type": "bytes32"
        },
        {
          "indexed": true,
          "internalType": "uint64",
          "name": "timestamp",
          "type": "uint64"
        }
      ],
      "name": "Timestamped",
      "type": "event"
    },
    {
      "inputs": [
        {
          "components": [
            {
              "internalType": "bytes32",
              "name": "schema",
              "type": "bytes32"
            },
            {
              "components": [
                {
                  "internalType": "address",
                  "name": "recipient",
                  "type": "address"
                },
                {
                  "internalType": "uint64",
                  "name": "expirationTime",
                  "type": "uint64"
                },
                {
                  "internalType": "bool",
                  "name": "revocable",
                  "type": "bool"
                },
                {
                  "internalType": "bytes32",
                  "name": "refUID",
                  "type": "bytes32"
                },
                {
                  "internalType": "bytes",
                  "name": "data",
                  "type": "bytes"
                },
                {
                  "internalType": "uint256",
                  "name": "value",
                  "type": "uint256"
                }
              ],
              "internalType": "struct AttestationRequestData",
              "name": "data",
              "type": "tuple"
            }
          ],
          "internalType": "struct AttestationRequest",
          "name": "request",
          "type": "tuple"
        }
      ],
      "name": "attest",
      "outputs": [
        {
          "internalType": "bytes32",
          "name": "",
          "type": "bytes32"
        }
      ],
      "stateMutability": "payable",
      "type": "function"
    },
    {
      "inputs": [
        {
          "components": [
            {
              "internalType": "bytes32",
              "name": "schema",
              "type": "bytes32"
            },
            {
              "components": [
                {
                  "internalType": "address",
                  "name": "recipient",
                  "type": "address"
                },
                {
                  "internalType": "uint64",
                  "name": "expirationTime",
                  "type": "uint64"
                },
                {
                  "internalType": "bool",
                  "name": "revocable",
                  "type": "bool"
                },
                {
                  "internalType": "bytes32",
                  "name": "refUID",
                  "type": "bytes32"
                },
                {
                  "internalType": "bytes",
                  "name": "data",
                  "type": "bytes"
                },
                {
                  "internalType": "uint256",
                  "name": "value",
                  "type": "uint256"
                }
              ],
              "internalType": "struct AttestationRequestData",
              "name": "data",
              "type": "tuple"
            },
            {
              "components": [
                {
                  "internalType": "uint8",
                  "name": "v",
                  "type": "uint8"
                },
                {
                  "internalType": "bytes32",
                  "name": "r",
                  "type": "bytes32"
                },
                {
                  "internalType": "bytes32",
                  "name": "s",
                  "type": "bytes32"
                }
              ],
              "internalType": "struct Signature",
              "name": "signature",
              "type": "tuple"
            },
            {
              "internalType": "address",
              "name": "attester",
              "type": "address"
            },
            {
              "internalType": "uint64",
              "name": "deadline",
              "type": "uint64"
            }
          ],
          "internalType": "struct DelegatedAttestationRequest",
          "name": "delegatedRequest",
          "type": "tuple"
        }
      ],
      "name": "attestByDelegation",
      "outputs": [
        {
          "internalType": "bytes32",
          "name": "",
          "type": "bytes32"
        }
      ],
      "stateMutability": "payable",
      "type": "function"
    },
    {
      "inputs": [],
      "name": "eip712Domain",
      "outputs": [
        {
          "internalType": "bytes1",
          "name": "fields",
          "type": "bytes1"
        },
        {
          "internalType": "string",
          "name": "name",
          "type": "string"
        },
        {
          "internalType": "string",
          "name": "version",
          "type": "string"
        },
        {
          "internalType": "uint256",
          "name": "chainId",
          "type": "uint256"
        },
        {
          "internalType": "address",
          "name": "verifyingContract",
          "type": "address"
        },
        {
          "internalType": "bytes32",
          "name": "salt",
          "type": "bytes32"
        },
        {
          "internalType": "uint256[]",
          "name": "extensions",
          "type": "uint256[]"
        }
      ],
      "stateMutability": "view",
      "type": "function"
    },
    {
      "inputs": [],
      "name": "getAttestTypeHash",
      "outputs": [
        {
          "internalType": "bytes32",
          "name": "",
          "type": "bytes32"
        }
      ],
      "stateMutability": "pure",
      "type": "function"
    },
    {
      "inputs": [
        {
          "internalType": "bytes32",
          "name": "uid",
          "type": "bytes32"
        }
      ],
      "name": "getAttestation",
      "outputs": [
        {
          "components": [
            {
              "internalType": "bytes32",
              "name": "uid",
              "type": "bytes32"
            },
            {
              "internalType": "bytes32",
              "name": "schema",
              "type": "bytes32"
            },
            {
              "internalType": "uint64",
              "name": "time",
              "type": "uint64"
            },
            {
              "internalType": "uint64",
              "name": "expirationTime",
              "type": "uint64"
            },
            {
              "internalType": "uint64",
              "name": "revocationTime",
              "type": "uint64"
            },
            {
              "internalType": "bytes32",
              "name": "refUID",
              "type": "bytes32"
            },
            {
              "internalType": "address",
              "name": "recipient",
              "type": "address"
            },
            {
              "internalType": "address",
              "name": "attester",
              "type": "address"
            },
            {
              "internalType": "bool",
              "name": "revocable",
              "type": "bool"
            },
            {
              "internalType": "bytes",
              "name": "data",
              "type": "bytes"
            }
          ],
          "internalType": "struct Attestation",
          "name": "",
          "type": "tuple"
        }
      ],
      "stateMutability": "view",
      "type": "function"
    },
    {
      "inputs": [],
      "name": "getDomainSeparator",
      "outputs": [
        {
          "internalType": "bytes32",
          "name": "",
          "type": "bytes32"
        }
      ],
      "stateMutability": "view",
      "type": "function"
    },
    {
      "inputs": [],
      "name": "getName",
      "outputs": [
        {
          "internalType": "string",
          "name": "",
          "type": "string"
        }
      ],
      "stateMutability": "view",
      "type": "function"
    },
    {
      "inputs": [
        {
          "internalType": "address",
          "name": "account",
          "type": "address"
        }
      ],
      "name": "getNonce",
      "outputs": [
        {
          "internalType": "uint256",
          "name": "",
          "type": "uint256"
        }
      ],
      "stateMutability": "view",
      "type": "function"
    },
    {
      "inputs": [
        {
          "internalType": "address",
          "name": "revoker",
          "type": "address"
        },
        {
          "internalType": "bytes32",
          "name": "data",
          "type": "bytes32"
        }
      ],
      "name": "getRevokeOffchain",
      "outputs": [
        {
          "internalType": "uint64",
          "name": "",
          "type": "uint64"
        }
      ],
      "stateMutability": "view",
      "type": "function"
    },
    {
      "inputs": [],
      "name": "getRevokeTypeHash",
      "outputs": [
        {
          "internalType": "bytes32",
          "name": "",
          "type": "bytes32"
        }
      ],
      "stateMutability": "pure",
      "type": "function"
    },
    {
      "inputs": [],
      "name": "getSchemaRegistry",
      "outputs": [
        {
          "internalType": "contract ISchemaRegistry",
          "name": "",
          "type": "address"
        }
      ],
      "stateMutability": "view",
      "type": "function"
    },
    {
      "inputs": [],
      "name": "getTime",
      "outputs": [
        {
          "internalType": "uint64",
          "name": "",
          "type": "uint64"
        }
      ],
      "stateMutability": "view",
      "type": "function"
    },
    {
      "inputs": [
        {
          "internalType": "bytes32",
          "name": "data",
          "type": "bytes32"
        }
      ],
      "name": "getTimestamp",
      "outputs": [
        {
          "internalType": "uint64",
          "name": "",
          "type": "uint64"
        }
      ],
      "stateMutability": "view",
      "type": "function"
    },
    {
      "inputs": [
        {
          "internalType": "uint256",
          "name": "newNonce",
          "type": "uint256"
        }
      ],
      "name": "increaseNonce",
      "outputs": [],
      "stateMutability": "nonpayable",
      "type": "function"
    },
    {
      "inputs": [
        {
          "internalType": "bytes32",
          "name": "uid",
          "type": "bytes32"
        }
      ],
      "name": "isAttestationValid",
      "outputs": [
        {
          "internalType": "bool",
          "name": "",
          "type": "bool"
        }
      ],
      "stateMutability": "view",
      "type": "function"
    },
    {
      "inputs": [
        {
          "components": [
            {
              "internalType": "bytes32",
              "name": "schema",
              "type": "bytes32"
            },
            {
              "components": [
                {
                  "internalType": "address",
                  "name": "recipient",
                  "type": "address"
                },
                {
                  "internalType": "uint64",
                  "name": "expirationTime",
                  "type": "uint64"
                },
                {
                  "internalType": "bool",
                  "name": "revocable",
                  "type": "bool"
                },
                {
                  "internalType": "bytes32",
                  "name": "refUID",
                  "type": "bytes32"
                },
                {
                  "internalType": "bytes",
                  "name": "data",
                  "type": "bytes"
                },
                {
                  "internalType": "uint256",
                  "name": "value",
                  "type": "uint256"
                }
              ],
              "internalType": "struct AttestationRequestData[]",
              "name": "data",
              "type": "tuple[]"
            }
          ],
          "internalType": "struct MultiAttestationRequest[]",
          "name": "multiRequests",
          "type": "tuple[]"
        }
      ],
      "name": "multiAttest",
      "outputs": [
        {
          "internalType": "bytes32[]",
          "name": "",
          "type": "bytes32[]"
        }
      ],
      "stateMutability": "payable",
      "type": "function"
    },
    {
      "inputs": [
        {
          "components": [
            {
              "internalType": "bytes32",
              "name": "schema",
              "type": "bytes32"
            },
            {
              "components": [
                {
                  "internalType": "address",
                  "name": "recipient",
                  "type": "address"
                },
                {
                  "internalType": "uint64",
                  "name": "expirationTime",
                  "type": "uint64"
                },
                {
                  "internalType": "bool",
                  "name": "revocable",
                  "type": "bool"
                },
                {
                  "internalType": "bytes32",
                  "name": "refUID",
                  "type": "bytes32"
                },
                {
                  "internalType": "bytes",
                  "name": "data",
                  "type": "bytes"
                },
                {
                  "internalType": "uint256",
                  "name": "value",
                  "type": "uint256"
                }
              ],
              "internalType": "struct AttestationRequestData[]",
              "name": "data",
              "type": "tuple[]"
            },
            {
              "components": [
                {
                  "internalType": "uint8",
                  "name": "v",
                  "type": "uint8"
                },
                {
                  "internalType": "bytes32",
                  "name": "r",
                  "type": "bytes32"
                },
                {
                  "internalType": "bytes32",
                  "name": "s",
                  "type": "bytes32"
                }
              ],
              "internalType": "struct Signature[]",
              "name": "signatures",
              "type": "tuple[]"
            },
            {
              "internalType": "address",
              "name": "attester",
              "type": "address"
            },
            {
              "internalType": "uint64",
              "name": "deadline",
              "type": "uint64"
            }
          ],
          "internalType": "struct MultiDelegatedAttestationRequest[]",
          "name": "multiDelegatedRequests",
          "type": "tuple[]"
        }
      ],
      "name": "multiAttestByDelegation",
      "outputs": [
        {
          "internalType": "bytes32[]",
          "name": "",
          "type": "bytes32[]"
        }
      ],
      "stateMutability": "payable",
      "type": "function"
    },
    {
      "inputs": [
        {
          "components": [
            {
              "internalType": "bytes32",
              "name": "schema",
              "type": "bytes32"
            },
            {
              "components": [
                {
                  "internalType": "bytes32",
                  "name": "uid",
                  "type": "bytes32"
                },
                {
                  "internalType": "uint256",
                  "name": "value",
                  "type": "uint256"
                }
              ],
              "internalType": "struct RevocationRequestData[]",
              "name": "data",
              "type": "tuple[]"
            }
          ],
          "internalType": "struct MultiRevocationRequest[]",
          "name": "multiRequests",
          "type": "tuple[]"
        }
      ],
      "name": "multiRevoke",
      "outputs": [],
      "stateMutability": "payable",
      "type": "function"
    },
    {
      "inputs": [
        {
          "components": [
            {
              "internalType": "bytes32",
              "name": "schema",
              "type": "bytes32"
            },
            {
              "components": [
                {
                  "internalType": "bytes32",
                  "name": "uid",
                  "type": "bytes32"
                },
                {
                  "internalType": "uint256",
                  "name": "value",
                  "type": "uint256"
                }
              ],
              "internalType": "struct RevocationRequestData[]",
              "name": "data",
              "type": "tuple[]"
            },
            {
              "components": [
                {
                  "internalType": "uint8",
                  "name": "v",
                  "type": "uint8"
                },
                {
                  "internalType": "bytes32",
                  "name": "r",
                  "type": "bytes32"
                },
                {
                  "internalType": "bytes32",
                  "name": "s",
                  "type": "bytes32"
                }
              ],
              "internalType": "struct Signature[]",
              "name": "signatures",
              "type": "tuple[]"
            },
            {
              "internalType": "address",
              "name": "revoker",
              "type": "address"
            },
            {
              "internalType": "uint64",
              "name": "deadline",
              "type": "uint64"
            }
          ],
          "internalType": "struct MultiDelegatedRevocationRequest[]",
          "name": "multiDelegatedRequests",
          "type": "tuple[]"
        }
      ],
      "name": "multiRevokeByDelegation",
      "outputs": [],
      "stateMutability": "payable",
      "type": "function"
    },
    {
      "inputs": [
        {
          "internalType": "bytes32[]",
          "name": "data",
          "type": "bytes32[]"
        }
      ],
      "name": "multiRevokeOffchain",
      "outputs": [
        {
          "internalType": "uint64",
          "name": "",
          "type": "uint64"
        }
      ],
      "stateMutability": "nonpayable",
      "type": "function"
    },
    {
      "inputs": [
        {
          "internalType": "bytes32[]",
          "name": "data",
          "type": "bytes32[]"
        }
      ],
      "name": "multiTimestamp",
      "outputs": [
        {
          "internalType": "uint64",
          "name": "",
          "type": "uint64"
        }
      ],
      "stateMutability": "nonpayable",
      "type": "function"
    },
    {
      "inputs": [
        {
          "components": [
            {
              "internalType": "bytes32",
              "name": "schema",
              "type": "bytes32"
            },
            {
              "components": [
                {
                  "internalType": "bytes32",
                  "name": "uid",
                  "type": "bytes32"
                },
                {
                  "internalType": "uint256",
                  "name": "value",
                  "type": "uint256"
                }
              ],
              "internalType": "struct RevocationRequestData",
              "name": "data",
              "type": "tuple"
            }
          ],
          "internalType": "struct RevocationRequest",
          "name": "request",
          "type": "tuple"
        }
      ],
      "name": "revoke",
      "outputs": [],
      "stateMutability": "payable",
      "type": "function"
    },
    {
      "inputs": [
        {
          "components": [
            {
              "internalType": "bytes32",
              "name": "schema",
              "type": "bytes32"
            },
            {
              "components": [
                {
                  "internalType": "bytes32",
                  "name": "uid",
                  "type": "bytes32"
                },
                {
                  "internalType": "uint256",
                  "name": "value",
                  "type": "uint256"
                }
              ],
              "internalType": "struct RevocationRequestData",
              "name": "data",
              "type": "tuple"
            },
            {
              "components": [
                {
                  "internalType": "uint8",
                  "name": "v",
                  "type": "uint8"
                },
                {
                  "internalType": "bytes32",
                  "name": "r",
                  "type": "bytes32"
                },
                {
                  "internalType": "bytes32",
                  "name": "s",
                  "type": "bytes32"
                }
              ],
              "internalType": "struct Signature",
              "name": "signature",
              "type": "tuple"
            },
            {
              "internalType": "address",
              "name": "revoker",
              "type": "address"
            },
            {
              "internalType": "uint64",
              "name": "deadline",
              "type": "uint64"
            }
          ],
          "internalType": "struct DelegatedRevocationRequest",
          "name": "delegatedRequest",
          "type": "tuple"
        }
      ],
      "name": "revokeByDelegation",
      "outputs": [],
      "stateMutability": "payable",
      "type": "function"
    },
    {
      "inputs": [
        {
          "internalType": "bytes32",
          "name": "data",
          "type": "bytes32"
        }
      ],
      "name": "revokeOffchain",
      "outputs": [
        {
          "internalType": "uint64",
          "name": "",
          "type": "uint64"
        }
      ],
      "stateMutability": "nonpayable",
      "type": "function"
    },
    {
      "inputs": [
        {
          "internalType": "uint64",
          "name": "newTime",
          "type": "uint64"
        }
      ],
      "name": "setTime",
      "outputs": [],
      "stateMutability": "nonpayable",
      "type": "function"
    },
    {
      "inputs": [
        {
          "internalType": "bytes32",
          "name": "data",
          "type": "bytes32"
        }
      ],
      "name": "timestamp",
      "outputs": [
        {
          "internalType": "uint64",
          "name": "",
          "type": "uint64"
        }
      ],
      "stateMutability": "nonpayable",
      "type": "function"
    },
    {
      "inputs": [],
      "name": "version",
      "outputs": [
        {
          "internalType": "string",
          "name": "",
          "type": "string"
        }
      ],
      "stateMutability": "view",
      "type": "function"
    }
  ],
  "bytecode": {
    "object": "0x6101e0604052600780546001600160401b03191690553480156200002257600080fd5b50604051620043103803806200431083398101604081905262000045916200021d565b60408051808201825260038082526245415360e81b602080840191909152835180850190945260058452640312e332e360dc1b90840152600160805260a052600060c0819052839290829082906200009f90839062000198565b61018052620000b081600162000198565b6101a052815160208084019190912061014052815190820120610160524661010052620001416101405161016051604080517f8b73c3c69bb8fe3d512ecc4cf759cc79239f7b179b0ffacaa9a75d522b39400f60208201529081019290925260608201524660808201523060a082015260009060c00160405160208183030381529060405280519060200120905090565b60e052505030610120526002620001598382620002f4565b5050506001600160a01b03811662000184576040516311a1e69760e01b815260040160405180910390fd5b6001600160a01b03166101c0525062000435565b6000602083511015620001b857620001b083620001d1565b9050620001cb565b81620001c58482620002f4565b5060ff90505b92915050565b600080829050601f8151111562000208578260405163305a27a960e01b8152600401620001ff9190620003c0565b60405180910390fd5b8051620002158262000410565b179392505050565b6000602082840312156200023057600080fd5b81516001600160a01b03811681146200024857600080fd5b9392505050565b634e487b7160e01b600052604160045260246000fd5b600181811c908216806200027a57607f821691505b6020821081036200029b57634e487b7160e01b600052602260045260246000fd5b50919050565b601f821115620002ef57600081815260208120601f850160051c81016020861015620002ca5750805b601f850160051c820191505b81811015620002eb57828155600101620002d6565b5050505b505050565b81516001600160401b038111156200031057620003106200024f565b620003288162000321845462000265565b84620002a1565b602080601f831160018114620003605760008415620003475750858301515b600019600386901b1c1916600185901b178555620002eb565b600085815260208120601f198616915b82811015620003915788860151825594840194600190910190840162000370565b5085821015620003b05787850151600019600388901b60f8161c191681555b5050505050600190811b01905550565b600060208083528351808285015260005b81811015620003ef57858101830151858201604001528201620003d1565b506000604082860101526040601f19601f8301168501019250505092915050565b805160208083015191908110156200029b5760001960209190910360031b1b16919050565b60805160a05160c05160e05161010051610120516101405161016051610180516101a0516101c051613e46620004ca60003960008181610567015281816114110152611b3c01526000610cd001526000610ca6015260006123ab01526000612383015260006122de015260006123080152600061233201526000610bbf01526000610b9601526000610b6d0152613e466000f3fe60806040526004361061019c5760003560e01c80637e4e1292116100ec578063cf190f341161008a578063e71ff36511610064578063e71ff36514610518578063ed24911d14610538578063f10b5cc81461054d578063f17325e71461059157600080fd5b8063cf190f3414610483578063d45c4435146104a3578063e30bb563146104d957600080fd5b8063a3112a64116100c6578063a3112a64146103c4578063a6d4dbc7146103f1578063b469318d14610404578063b83010d31461045057600080fd5b80637e4e12921461034b57806384b0196e1461038957806395411525146103b157600080fd5b806344adc90e116101595780634d003070116101335780634d003070146102e157806354fd4d5014610301578063557ed1ba1461031657806379f7573a1461032b57600080fd5b806344adc90e1461029b57806346926267146102bb5780634cb7e9e5146102ce57600080fd5b80630eabf660146101a157806312b11a17146101b657806313893f61146101f857806317d7de7c146102305780632d0335ab146102525780633c04271514610288575b600080fd5b6101b46101af366004612f30565b6105a4565b005b3480156101c257600080fd5b507ffeb2925a02bae3dae48d424a0437a2b6ac939aa9230ddc55a1a76f065d9880765b6040519081526020015b60405180910390f35b34801561020457600080fd5b50610218610213366004612f30565b6106f6565b6040516001600160401b0390911681526020016101ef565b34801561023c57600080fd5b50610245610746565b6040516101ef9190612fc1565b34801561025e57600080fd5b506101e561026d366004613000565b6001600160a01b031660009081526003602052604090205490565b6101e561029636600461301d565b6107d8565b6102ae6102a9366004612f30565b6108bd565b6040516101ef9190613057565b6101b46102c936600461309b565b610a06565b6101b46102dc366004612f30565b610a8a565b3480156102ed57600080fd5b506102186102fc3660046130b3565b610b4f565b34801561030d57600080fd5b50610245610b66565b34801561032257600080fd5b50610218610c09565b34801561033757600080fd5b506101b46103463660046130b3565b610c18565b34801561035757600080fd5b506101b46103663660046130e3565b6007805467ffffffffffffffff19166001600160401b0392909216919091179055565b34801561039557600080fd5b5061039e610c98565b6040516101ef9796959493929190613139565b6102ae6103bf366004612f30565b610d20565b3480156103d057600080fd5b506103e46103df3660046130b3565b610f4d565b6040516101ef9190613265565b6101b46103ff366004613278565b611093565b34801561041057600080fd5b5061021861041f36600461328b565b6001600160a01b0391909116600090815260066020908152604080832093835292905220546001600160401b031690565b34801561045c57600080fd5b507fb5d556f07587ec0f08cf386545cc4362c702a001650c2058002615ee5c9d1e756101e5565b34801561048f57600080fd5b5061021861049e3660046130b3565b611138565b3480156104af57600080fd5b506102186104be3660046130b3565b6000908152600560205260409020546001600160401b031690565b3480156104e557600080fd5b506105086104f43660046130b3565b600090815260046020526040902054151590565b60405190151581526020016101ef565b34801561052457600080fd5b50610218610533366004612f30565b611150565b34801561054457600080fd5b506101e5611193565b34801561055957600080fd5b506040516001600160a01b037f00000000000000000000000000000000000000000000000000000000000000001681526020016101ef565b6101e561059f3660046132b7565b61119d565b348160005b818110156106ef576000198201811460008686848181106105cc576105cc6132f1565b90506020028101906105de9190613307565b6105e790613529565b602081015180519192509080158061060457508260400151518114155b156106225760405163251f56a160e21b815260040160405180910390fd5b60005b818110156106b8576106b06040518060a0016040528086600001518152602001858481518110610657576106576132f1565b602002602001015181526020018660400151848151811061067a5761067a6132f1565b6020026020010151815260200186606001516001600160a01b0316815260200186608001516001600160401b031681525061123d565b600101610625565b506106ce83600001518385606001518a886113ee565b6106d89088613639565b9650505050506106e88160010190565b90506105a9565b5050505050565b600080610701611879565b90508260005b8181101561073a5761073233878784818110610725576107256132f1565b90506020020135856118a2565b600101610707565b50909150505b92915050565b6060600280546107559061364c565b80601f01602080910402602001604051908101604052809291908181526020018280546107819061364c565b80156107ce5780601f106107a3576101008083540402835291602001916107ce565b820191906000526020600020905b8154815290600101906020018083116107b157829003601f168201915b5050505050905090565b60006107eb6107e683613782565b611955565b604080516001808252818301909252600091816020015b6040805160c081018252600080825260208083018290529282018190526060808301829052608083015260a0820152825260001990920191018161080257905050905061085260208401846137fc565b61085b90613812565b8160008151811061086e5761086e6132f1565b602090810291909101015261089783358261088f60c0870160a08801613000565b346001611ab0565b602001516000815181106108ad576108ad6132f1565b6020026020010151915050919050565b6060816000816001600160401b038111156108da576108da613327565b60405190808252806020026020018201604052801561090d57816020015b60608152602001906001900390816108f85790505b509050600034815b848110156109f0576000198501811436898984818110610937576109376132f1565b9050602002810190610949919061381e565b90506109586020820182613834565b905060000361097a5760405163251f56a160e21b815260040160405180910390fd5b600061099f823561098e6020850185613834565b6109979161387d565b338887611ab0565b80519091506109ae9086613639565b945080602001518785815181106109c7576109c76132f1565b6020026020010181905250806020015151860195505050506109e98160010190565b9050610915565b506109fb838361201b565b979650505050505050565b604080516001808252818301909252600091816020015b6040805180820190915260008082526020820152815260200190600190039081610a1d579050509050610a58368390038301602084016138f0565b81600081518110610a6b57610a6b6132f1565b6020908102919091010152610a85823582333460016113ee565b505050565b348160005b818110156106ef576000198201811436868684818110610ab157610ab16132f1565b9050602002810190610ac3919061381e565b9050610b308135610ad7602084018461390c565b808060200260200160405190810160405280939291908181526020016000905b82821015610b2357610b14604083028601368190038101906138f0565b81526020019060010190610af7565b50505050503388866113ee565b610b3a9086613639565b94505050610b488160010190565b9050610a8f565b600080610b5a611879565b90506107408382612104565b6060610b917f0000000000000000000000000000000000000000000000000000000000000000612194565b610bba7f0000000000000000000000000000000000000000000000000000000000000000612194565b610be37f0000000000000000000000000000000000000000000000000000000000000000612194565b604051602001610bf593929190613955565b604051602081830303815290604052905090565b6000610c13611879565b905090565b33600090815260036020526040902054808211610c4857604051633ab3447f60e11b815260040160405180910390fd5b3360009081526003602090815260409182902084905581518381529081018490527f57b09af877df9068fd60a69d7b21f5576b8b38955812d6ae4ac52942f1e38fb7910160405180910390a15050565b600060608082808083610ccb7f000000000000000000000000000000000000000000000000000000000000000083612226565b610cf67f00000000000000000000000000000000000000000000000000000000000000006001612226565b60408051600080825260208201909252600f60f81b9b939a50919850469750309650945092509050565b6060816000816001600160401b03811115610d3d57610d3d613327565b604051908082528060200260200182016040528015610d7057816020015b6060815260200190600190039081610d5b5790505b509050600034815b848110156109f0576000198501811436898984818110610d9a57610d9a6132f1565b9050602002810190610dac9190613307565b9050366000610dbe6020840184613834565b909250905080801580610ddf5750610dd960408501856139af565b90508114155b15610dfd5760405163251f56a160e21b815260040160405180910390fd5b60005b81811015610ed057610ec86040518060a0016040528087600001358152602001868685818110610e3257610e326132f1565b9050602002810190610e4491906137fc565b610e4d90613812565b8152602001610e5f60408901896139af565b85818110610e6f57610e6f6132f1565b905060600201803603810190610e8591906139f7565b8152602001610e9a6080890160608a01613000565b6001600160a01b03168152602001610eb860a0890160808a016130e3565b6001600160401b03169052611955565b600101610e00565b506000610ef98535610ee2858761387d565b610ef26080890160608a01613000565b8b8a611ab0565b8051909150610f089089613639565b975080602001518a8881518110610f2157610f216132f1565b602002602001018190525080602001515189019850505050505050610f468160010190565b9050610d78565b610f55612e96565b6000828152600460208181526040928390208351610140810185528154815260018201549281019290925260028101546001600160401b0380821695840195909552600160401b810485166060840152600160801b90049093166080820152600383015460a0820152908201546001600160a01b0390811660c0830152600583015490811660e0830152600160a01b900460ff1615156101008201526006820180549192916101208401919061100a9061364c565b80601f01602080910402602001604051908101604052809291908181526020018280546110369061364c565b80156110835780601f1061105857610100808354040283529160200191611083565b820191906000526020600020905b81548152906001019060200180831161106657829003601f168201915b5050505050815250509050919050565b6110aa6110a536839003830183613a13565b61123d565b604080516001808252818301909252600091816020015b60408051808201909152600080825260208201528152602001906001900390816110c15790505090506110fc368390038301602084016138f0565b8160008151811061110f5761110f6132f1565b6020908102919091010152610a8582358261113060e0860160c08701613000565b3460016113ee565b600080611143611879565b90506107403384836118a2565b60008061115b611879565b90508260005b8181101561073a5761118b86868381811061117e5761117e6132f1565b9050602002013584612104565b600101611161565b6000610c136122d1565b604080516001808252818301909252600091829190816020015b6040805160c081018252600080825260208083018290529282018190526060808301829052608083015260a082015282526000199092019101816111b757905050905061120760208401846137fc565b61121090613812565b81600081518110611223576112236132f1565b602090810291909101015261089783358233346001611ab0565b60808101516001600160401b031615801590611275575061125c611879565b6001600160401b031681608001516001600160401b0316105b1561129357604051631ab7da6b60e01b815260040160405180910390fd5b602080820151604080840151606085015185518451858701516001600160a01b03841660009081526003909852948720805496979496949561136d957fb5d556f07587ec0f08cf386545cc4362c702a001650c2058002615ee5c9d1e7595949392886112fe83613a81565b909155506080808c01516040805160208101999099526001600160a01b039097169688019690965260608701949094529285019190915260a084015260c08301526001600160401b031660e0820152610100015b604051602081830303815290604052805190602001206123fc565b90506113cb8460600151828460200151856040015186600001516040516020016113b793929190928352602083019190915260f81b6001600160f81b031916604082015260410190565b604051602081830303815290604052612429565b6113e857604051638baa579f60e01b815260040160405180910390fd5b50505050565b6040516351753e3760e11b81526004810186905260009081906001600160a01b037f0000000000000000000000000000000000000000000000000000000000000000169063a2ea7c6e90602401600060405180830381865afa158015611458573d6000803e3d6000fd5b505050506040513d6000823e601f3d908101601f191682016040526114809190810190613a9a565b80519091506114a257604051635f9bd90760e11b815260040160405180910390fd5b85516000816001600160401b038111156114be576114be613327565b6040519080825280602002602001820160405280156114f757816020015b6114e4612e96565b8152602001906001900390816114dc5790505b5090506000826001600160401b0381111561151457611514613327565b60405190808252806020026020018201604052801561153d578160200160208202803683370190505b50905060005b8381101561185b5760008a828151811061155f5761155f6132f1565b602090810291909101810151805160009081526004909252604090912080549192509061159f5760405163c5723b5160e01b815260040160405180910390fd5b8c8160010154146115c357604051635f9bd90760e11b815260040160405180910390fd5b60058101546001600160a01b038c81169116146115f357604051634ca8886760e01b815260040160405180910390fd5b6005810154600160a01b900460ff1661161f5760405163157bd4c360e01b815260040160405180910390fd5b6002810154600160801b90046001600160401b0316156116525760405163905e710760e01b815260040160405180910390fd5b61165a611879565b60028201805467ffffffffffffffff60801b198116600160801b6001600160401b03948516810291821793849055604080516101408101825287548152600188015460208201529386169286169290921791830191909152600160401b8304841660608301529091049091166080820152600382015460a082015260048201546001600160a01b0390811660c0830152600583015490811660e0830152600160a01b900460ff16151561010082015260068201805483916101208401916117209061364c565b80601f016020809104026020016040519081016040528092919081815260200182805461174c9061364c565b80156117995780601f1061176e57610100808354040283529160200191611799565b820191906000526020600020905b81548152906001019060200180831161177c57829003601f168201915b5050505050815250508584815181106117b4576117b46132f1565b602002602001018190525081602001518484815181106117d6576117d66132f1565b6020026020010181815250508c8b6001600160a01b03168685815181106117ff576117ff6132f1565b602002602001015160c001516001600160a01b03167ff930a6e2523c9cc298691873087a740550b8fc85a0680830414c148ed927f615856000015160405161184991815260200190565b60405180910390a45050600101611543565b5061186b84838360018b8b61248a565b9a9950505050505050505050565b6007546000906001600160401b03161561189d57506007546001600160401b031690565b504290565b6001600160a01b038316600090815260066020908152604080832085845291829052909120546001600160401b0316156118ef5760405163ec9d6eeb60e01b815260040160405180910390fd5b600083815260208290526040808220805467ffffffffffffffff19166001600160401b0386169081179091559051909185916001600160a01b038816917f92a1f7a41a7c585a8b09e25b195e225b1d43248daca46b0faf9e0792777a222991a450505050565b60808101516001600160401b03161580159061198d5750611974611879565b6001600160401b031681608001516001600160401b0316105b156119ab57604051631ab7da6b60e01b815260040160405180910390fd5b6020808201516040808401516060808601518651855186880151868801519488015160808901518051908b012060a08a01516001600160a01b03871660009081526003909c52988b2080549a9b989a989961136d997ffeb2925a02bae3dae48d424a0437a2b6ac939aa9230ddc55a1a76f065d988076999493928c611a2f83613a81565b919050558e608001516040516020016113529b9a999897969594939291909a8b526001600160a01b03998a1660208c015260408b01989098529590971660608901526001600160401b03938416608089015291151560a088015260c087015260e0860152610100850193909352610120840152166101408201526101600190565b6040805180820190915260008152606060208201528451604080518082019091526000815260606020820152816001600160401b03811115611af457611af4613327565b604051908082528060200260200182016040528015611b1d578160200160208202803683370190505b5060208201526040516351753e3760e11b8152600481018990526000907f00000000000000000000000000000000000000000000000000000000000000006001600160a01b03169063a2ea7c6e90602401600060405180830381865afa158015611b8b573d6000803e3d6000fd5b505050506040513d6000823e601f3d908101601f19168201604052611bb39190810190613a9a565b8051909150611bd557604051635f9bd90760e11b815260040160405180910390fd5b6000836001600160401b03811115611bef57611bef613327565b604051908082528060200260200182016040528015611c2857816020015b611c15612e96565b815260200190600190039081611c0d5790505b5090506000846001600160401b03811115611c4557611c45613327565b604051908082528060200260200182016040528015611c6e578160200160208202803683370190505b50905060005b85811015611ffa5760008b8281518110611c9057611c906132f1565b6020026020010151905060006001600160401b031681602001516001600160401b031614158015611cde5750611cc4611879565b6001600160401b031681602001516001600160401b031611155b15611cfc576040516308e8b93760e01b815260040160405180910390fd5b8460400151158015611d0f575080604001515b15611d2d5760405163157bd4c360e01b815260040160405180910390fd5b60006040518061014001604052806000801b81526020018f8152602001611d52611879565b6001600160401b0316815260200183602001516001600160401b0316815260200160006001600160401b031681526020018360600151815260200183600001516001600160a01b031681526020018d6001600160a01b0316815260200183604001511515815260200183608001518152509050600080600090505b611dd78382612796565b60008181526004602052604090205490925015611df657600101611dcd565b8183526000828152600460208181526040928390208651815590860151600182015591850151600283018054606088015160808901516001600160401b03908116600160801b0267ffffffffffffffff60801b19928216600160401b026fffffffffffffffffffffffffffffffff199094169190951617919091171691909117905560a0850151600383015560c085015190820180546001600160a01b039283166001600160a01b031990911617905560e08501516005830180546101008801511515600160a01b026001600160a81b031990911692909316919091179190911790556101208401518491906006820190611ef19082613bbf565b505050606084015115611f2f576060840151600090815260046020526040902054611f2f5760405163c5723b5160e01b815260040160405180910390fd5b82878681518110611f4257611f426132f1565b60200260200101819052508360a00151868681518110611f6457611f646132f1565b6020026020010181815250508189602001518681518110611f8757611f876132f1565b6020026020010181815250508f8e6001600160a01b031685600001516001600160a01b03167f8bf46bf4cfd674fa735a3d63ec1c9ad4153f033c290341f3a588b75685141b3585604051611fdd91815260200190565b60405180910390a450505050611ff38160010190565b9050611c74565b5061200a83838360008c8c61248a565b845250919998505050505050505050565b60606000826001600160401b0381111561203757612037613327565b604051908082528060200260200182016040528015612060578160200160208202803683370190505b508451909150600090815b818110156120f9576000878281518110612087576120876132f1565b6020026020010151905060008151905060005b818110156120e5578281815181106120b4576120b46132f1565b60200260200101518787815181106120ce576120ce6132f1565b60209081029190910101526001958601950161209a565b5050506120f28160010190565b905061206b565b509195945050505050565b6000828152600560205260409020546001600160401b03161561213a576040516317133ca360e11b815260040160405180910390fd5b600082815260056020526040808220805467ffffffffffffffff19166001600160401b0385169081179091559051909184917f5aafceeb1c7ad58e4a84898bdee37c02c0fc46e7d24e6b60e8209449f183459f9190a35050565b606060006121a1836127f5565b60010190506000816001600160401b038111156121c0576121c0613327565b6040519080825280601f01601f1916602001820160405280156121ea576020820181803683370190505b5090508181016020015b600019016f181899199a1a9b1b9c1cb0b131b232b360811b600a86061a8153600a85049450846121f457509392505050565b606060ff831461224057612239836128cd565b9050610740565b81805461224c9061364c565b80601f01602080910402602001604051908101604052809291908181526020018280546122789061364c565b80156122c55780601f1061229a576101008083540402835291602001916122c5565b820191906000526020600020905b8154815290600101906020018083116122a857829003601f168201915b50505050509050610740565b6000306001600160a01b037f00000000000000000000000000000000000000000000000000000000000000001614801561232a57507f000000000000000000000000000000000000000000000000000000000000000046145b1561235457507f000000000000000000000000000000000000000000000000000000000000000090565b610c13604080517f8b73c3c69bb8fe3d512ecc4cf759cc79239f7b179b0ffacaa9a75d522b39400f60208201527f0000000000000000000000000000000000000000000000000000000000000000918101919091527f000000000000000000000000000000000000000000000000000000000000000060608201524660808201523060a082015260009060c00160405160208183030381529060405280519060200120905090565b60006107406124096122d1565b8360405161190160f01b8152600281019290925260228201526042902090565b6000806000612438858561290c565b9092509050600081600481111561245157612451613c7e565b14801561246f5750856001600160a01b0316826001600160a01b0316145b806124805750612480868686612951565b9695505050505050565b845160009060018190036124e2576124da88886000815181106124af576124af6132f1565b6020026020010151886000815181106124ca576124ca6132f1565b6020026020010151888888612a3d565b915050612480565b60208801516001600160a01b03811661255d5760005b8281101561254257878181518110612512576125126132f1565b602002602001015160001461253a57604051631574f9f360e01b815260040160405180910390fd5b6001016124f8565b5083156125525761255285612c79565b600092505050612480565b600080826001600160a01b031663ce46e0466040518163ffffffff1660e01b8152600401602060405180830381865afa15801561259e573d6000803e3d6000fd5b505050506040513d601f19601f820116820180604052508101906125c29190613c94565b905060005b8481101561264d5760008a82815181106125e3576125e36132f1565b60200260200101519050806000036125fb5750612645565b8261261957604051631574f9f360e01b815260040160405180910390fd5b8881111561263a5760405163044044a560e21b815260040160405180910390fd5b978890039792909201915b6001016125c7565b5087156126e9576040516388e5b2d960e01b81526001600160a01b038416906388e5b2d9908490612684908e908e90600401613cb1565b60206040518083038185885af11580156126a2573d6000803e3d6000fd5b50505050506040513d601f19601f820116820180604052508101906126c79190613c94565b6126e45760405163bf2f3a8b60e01b815260040160405180910390fd5b612779565b6040516348ed85bf60e11b81526001600160a01b038416906391db0b7e908490612719908e908e90600401613cb1565b60206040518083038185885af1158015612737573d6000803e3d6000fd5b50505050506040513d601f19601f8201168201806040525081019061275c9190613c94565b6127795760405163e8bee83960e01b815260040160405180910390fd5b85156127885761278887612c79565b509998505050505050505050565b60208083015160c084015160e0850151604080870151606088015161010089015160a08a01516101208b015194516000996127d799989796918c9101613d27565b60405160208183030381529060405280519060200120905092915050565b60008072184f03e93ff9f4daa797ed6e38ed64bf6a1f0160401b83106128345772184f03e93ff9f4daa797ed6e38ed64bf6a1f0160401b830492506040015b6d04ee2d6d415b85acef81000000008310612860576d04ee2d6d415b85acef8100000000830492506020015b662386f26fc10000831061287e57662386f26fc10000830492506010015b6305f5e1008310612896576305f5e100830492506008015b61271083106128aa57612710830492506004015b606483106128bc576064830492506002015b600a83106107405760010192915050565b606060006128da83612c8c565b604080516020808252818301909252919250600091906020820181803683375050509182525060208101929092525090565b60008082516041036129425760208301516040840151606085015160001a61293687828585612cb4565b9450945050505061294a565b506000905060025b9250929050565b6000806000856001600160a01b0316631626ba7e60e01b868660405160240161297b929190613dc4565b60408051601f198184030181529181526020820180516001600160e01b03166001600160e01b03199094169390931790925290516129b99190613de5565b600060405180830381855afa9150503d80600081146129f4576040519150601f19603f3d011682016040523d82523d6000602084013e6129f9565b606091505b5091509150818015612a0d57506020815110155b801561248057508051630b135d3f60e11b90612a329083016020908101908401613df7565b149695505050505050565b60208601516000906001600160a01b038116612a8b578515612a7257604051631574f9f360e01b815260040160405180910390fd5b8215612a8157612a8184612c79565b6000915050612480565b8515612b3757806001600160a01b031663ce46e0466040518163ffffffff1660e01b8152600401602060405180830381865afa158015612acf573d6000803e3d6000fd5b505050506040513d601f19601f82011682018060405250810190612af39190613c94565b612b1057604051631574f9f360e01b815260040160405180910390fd5b83861115612b315760405163044044a560e21b815260040160405180910390fd5b85840393505b8415612bd05760405163e49617e160e01b81526001600160a01b0382169063e49617e1908890612b6b908b90600401613265565b60206040518083038185885af1158015612b89573d6000803e3d6000fd5b50505050506040513d601f19601f82011682018060405250810190612bae9190613c94565b612bcb5760405163ccf3bb2760e01b815260040160405180910390fd5b612c5e565b60405163e60c350560e01b81526001600160a01b0382169063e60c3505908890612bfe908b90600401613265565b60206040518083038185885af1158015612c1c573d6000803e3d6000fd5b50505050506040513d601f19601f82011682018060405250810190612c419190613c94565b612c5e5760405163bd8ba84d60e01b815260040160405180910390fd5b8215612c6d57612c6d84612c79565b50939695505050505050565b8015612c8957612c893382612d78565b50565b600060ff8216601f81111561074057604051632cd44ac360e21b815260040160405180910390fd5b6000807f7fffffffffffffffffffffffffffffff5d576e7357a4501ddfe92f46681b20a0831115612ceb5750600090506003612d6f565b6040805160008082526020820180845289905260ff881692820192909252606081018690526080810185905260019060a0016020604051602081039080840390855afa158015612d3f573d6000803e3d6000fd5b5050604051601f1901519150506001600160a01b038116612d6857600060019250925050612d6f565b9150600090505b94509492505050565b80471015612dcd5760405162461bcd60e51b815260206004820152601d60248201527f416464726573733a20696e73756666696369656e742062616c616e636500000060448201526064015b60405180910390fd5b6000826001600160a01b03168260405160006040518083038185875af1925050503d8060008114612e1a576040519150601f19603f3d011682016040523d82523d6000602084013e612e1f565b606091505b5050905080610a855760405162461bcd60e51b815260206004820152603a60248201527f416464726573733a20756e61626c6520746f2073656e642076616c75652c207260448201527f6563697069656e74206d617920686176652072657665727465640000000000006064820152608401612dc4565b604080516101408101825260008082526020820181905291810182905260608082018390526080820183905260a0820183905260c0820183905260e0820183905261010082019290925261012081019190915290565b60008083601f840112612efe57600080fd5b5081356001600160401b03811115612f1557600080fd5b6020830191508360208260051b850101111561294a57600080fd5b60008060208385031215612f4357600080fd5b82356001600160401b03811115612f5957600080fd5b612f6585828601612eec565b90969095509350505050565b60005b83811015612f8c578181015183820152602001612f74565b50506000910152565b60008151808452612fad816020860160208601612f71565b601f01601f19169290920160200192915050565b602081526000612fd46020830184612f95565b9392505050565b6001600160a01b0381168114612c8957600080fd5b8035612ffb81612fdb565b919050565b60006020828403121561301257600080fd5b8135612fd481612fdb565b60006020828403121561302f57600080fd5b81356001600160401b0381111561304557600080fd5b820160e08185031215612fd457600080fd5b6020808252825182820181905260009190848201906040850190845b8181101561308f57835183529284019291840191600101613073565b50909695505050505050565b6000606082840312156130ad57600080fd5b50919050565b6000602082840312156130c557600080fd5b5035919050565b80356001600160401b0381168114612ffb57600080fd5b6000602082840312156130f557600080fd5b612fd4826130cc565b600081518084526020808501945080840160005b8381101561312e57815187529582019590820190600101613112565b509495945050505050565b60ff60f81b8816815260e06020820152600061315860e0830189612f95565b828103604084015261316a8189612f95565b606084018890526001600160a01b038716608085015260a0840186905283810360c0850152905061186b81856130fe565b6000610140825184526020830151602085015260408301516131c860408601826001600160401b03169052565b5060608301516131e360608601826001600160401b03169052565b5060808301516131fe60808601826001600160401b03169052565b5060a083015160a085015260c083015161322360c08601826001600160a01b03169052565b5060e083015161323e60e08601826001600160a01b03169052565b50610100838101511515908501526101208084015181860183905261248083870182612f95565b602081526000612fd4602083018461319b565b600061010082840312156130ad57600080fd5b6000806040838503121561329e57600080fd5b82356132a981612fdb565b946020939093013593505050565b6000602082840312156132c957600080fd5b81356001600160401b038111156132df57600080fd5b820160408185031215612fd457600080fd5b634e487b7160e01b600052603260045260246000fd5b60008235609e1983360301811261331d57600080fd5b9190910192915050565b634e487b7160e01b600052604160045260246000fd5b60405160a081016001600160401b038111828210171561335f5761335f613327565b60405290565b60405160c081016001600160401b038111828210171561335f5761335f613327565b604051608081016001600160401b038111828210171561335f5761335f613327565b604051601f8201601f191681016001600160401b03811182821017156133d1576133d1613327565b604052919050565b60006001600160401b038211156133f2576133f2613327565b5060051b60200190565b60006040828403121561340e57600080fd5b604051604081018181106001600160401b038211171561343057613430613327565b604052823581526020928301359281019290925250919050565b60006060828403121561345c57600080fd5b604051606081018181106001600160401b038211171561347e5761347e613327565b604052905080823560ff8116811461349557600080fd5b8082525060208301356020820152604083013560408201525092915050565b600082601f8301126134c557600080fd5b813560206134da6134d5836133d9565b6133a9565b828152606092830285018201928282019190878511156134f957600080fd5b8387015b8581101561351c5761350f898261344a565b84529284019281016134fd565b5090979650505050505050565b600060a0823603121561353b57600080fd5b61354361333d565b823581526020808401356001600160401b038082111561356257600080fd5b9085019036601f83011261357557600080fd5b81356135836134d5826133d9565b81815260069190911b830184019084810190368311156135a257600080fd5b938501935b828510156135cb576135b936866133fc565b825285820191506040850194506135a7565b808688015250505060408601359250808311156135e757600080fd5b50506135f5368286016134b4565b60408301525061360760608401612ff0565b6060820152613618608084016130cc565b608082015292915050565b634e487b7160e01b600052601160045260246000fd5b8181038181111561074057610740613623565b600181811c9082168061366057607f821691505b6020821081036130ad57634e487b7160e01b600052602260045260246000fd5b8015158114612c8957600080fd5b60006001600160401b038211156136a7576136a7613327565b50601f01601f191660200190565b600060c082840312156136c757600080fd5b6136cf613365565b905081356136dc81612fdb565b815260206136eb8382016130cc565b8183015260408301356136fd81613680565b60408301526060838101359083015260808301356001600160401b0381111561372557600080fd5b8301601f8101851361373657600080fd5b80356137446134d58261368e565b818152868483850101111561375857600080fd5b818484018583013760008483830101528060808601525050505060a082013560a082015292915050565b600060e0823603121561379457600080fd5b61379c61333d565b8235815260208301356001600160401b038111156137b957600080fd5b6137c5368286016136b5565b6020830152506137d8366040850161344a565b604082015260a08301356137eb81612fdb565b606082015261361860c084016130cc565b6000823560be1983360301811261331d57600080fd5b600061074036836136b5565b60008235603e1983360301811261331d57600080fd5b6000808335601e1984360301811261384b57600080fd5b8301803591506001600160401b0382111561386557600080fd5b6020019150600581901b360382131561294a57600080fd5b600061388b6134d5846133d9565b80848252602080830192508560051b8501368111156138a957600080fd5b855b818110156138e45780356001600160401b038111156138ca5760008081fd5b6138d636828a016136b5565b8652509382019382016138ab565b50919695505050505050565b60006040828403121561390257600080fd5b612fd483836133fc565b6000808335601e1984360301811261392357600080fd5b8301803591506001600160401b0382111561393d57600080fd5b6020019150600681901b360382131561294a57600080fd5b60008451613967818460208901612f71565b8083019050601760f91b8082528551613987816001850160208a01612f71565b600192019182015283516139a2816002840160208801612f71565b0160020195945050505050565b6000808335601e198436030181126139c657600080fd5b8301803591506001600160401b038211156139e057600080fd5b602001915060608102360382131561294a57600080fd5b600060608284031215613a0957600080fd5b612fd4838361344a565b60006101008284031215613a2657600080fd5b613a2e61333d565b82358152613a3f84602085016133fc565b6020820152613a51846060850161344a565b604082015260c0830135613a6481612fdb565b6060820152613a7560e084016130cc565b60808201529392505050565b600060018201613a9357613a93613623565b5060010190565b60006020808385031215613aad57600080fd5b82516001600160401b0380821115613ac457600080fd5b9084019060808287031215613ad857600080fd5b613ae0613387565b8251815283830151613af181612fdb565b818501526040830151613b0381613680565b6040820152606083015182811115613b1a57600080fd5b80840193505086601f840112613b2f57600080fd5b82519150613b3f6134d58361368e565b8281528785848601011115613b5357600080fd5b613b6283868301878701612f71565b60608201529695505050505050565b601f821115610a8557600081815260208120601f850160051c81016020861015613b985750805b601f850160051c820191505b81811015613bb757828155600101613ba4565b505050505050565b81516001600160401b03811115613bd857613bd8613327565b613bec81613be6845461364c565b84613b71565b602080601f831160018114613c215760008415613c095750858301515b600019600386901b1c1916600185901b178555613bb7565b600085815260208120601f198616915b82811015613c5057888601518255948401946001909101908401613c31565b5085821015613c6e5787850151600019600388901b60f8161c191681555b5050505050600190811b01905550565b634e487b7160e01b600052602160045260246000fd5b600060208284031215613ca657600080fd5b8151612fd481613680565b6000604082016040835280855180835260608501915060608160051b8601019250602080880160005b83811015613d0857605f19888703018552613cf686835161319b565b95509382019390820190600101613cda565b505085840381870152505050613d1e81856130fe565b95945050505050565b89815260006bffffffffffffffffffffffff19808b60601b166020840152808a60601b166034840152506001600160401b0360c01b808960c01b166048840152808860c01b1660508401525085151560f81b60588301528460598301528351613d97816079850160208801612f71565b60e09390931b6001600160e01b03191660799290930191820192909252607d019998505050505050505050565b828152604060208201526000613ddd6040830184612f95565b949350505050565b6000825161331d818460208701612f71565b600060208284031215613e0957600080fd5b505191905056fea2646970667358221220e2eabe40dd112cba51e8941d1cab173a502fb2840411b23c0e5929c4c1cfcb5464736f6c63430008130033",
    "linkReferences": {}
  },
  "methodIdentifiers": {
    "attest((bytes32,(address,uint64,bool,bytes32,bytes,uint256)))": "f17325e7",
    "attestByDelegation((bytes32,(address,uint64,bool,bytes32,bytes,uint256),(uint8,bytes32,bytes32),address,uint64))": "3c042715",
    "eip712Domain()": "84b0196e",
    "getAttestTypeHash()": "12b11a17",
    "getAttestation(bytes32)": "a3112a64",
    "getDomainSeparator()": "ed24911d",
    "getName()": "17d7de7c",
    "getNonce(address)": "2d0335ab",
    "getRevokeOffchain(address,bytes32)": "b469318d",
    "getRevokeTypeHash()": "b83010d3",
    "getSchemaRegistry()": "f10b5cc8",
    "getTime()": "557ed1ba",
    "getTimestamp(bytes32)": "d45c4435",
    "increaseNonce(uint256)": "79f7573a",
    "isAttestationValid(bytes32)": "e30bb563",
    "multiAttest((bytes32,(address,uint64,bool,bytes32,bytes,uint256)[])[])": "44adc90e",
    "multiAttestByDelegation((bytes32,(address,uint64,bool,bytes32,bytes,uint256)[],(uint8,bytes32,bytes32)[],address,uint64)[])": "95411525",
    "multiRevoke((bytes32,(bytes32,uint256)[])[])": "4cb7e9e5",
    "multiRevokeByDelegation((bytes32,(bytes32,uint256)[],(uint8,bytes32,bytes32)[],address,uint64)[])": "0eabf660",
    "multiRevokeOffchain(bytes32[])": "13893f61",
    "multiTimestamp(bytes32[])": "e71ff365",
    "revoke((bytes32,(bytes32,uint256)))": "46926267",
    "revokeByDelegation((bytes32,(bytes32,uint256),(uint8,bytes32,bytes32),address,uint64))": "a6d4dbc7",
    "revokeOffchain(bytes32)": "cf190f34",
    "setTime(uint64)": "7e4e1292",
    "timestamp(bytes32)": "4d003070",
    "version()": "54fd4d50"
  },
  "id": 54
}