{
  "abi": [
    {
      "inputs": [
        {
          "internalType": "contract EAS",
          "name": "_eas",
          "type": "address"
        },
        {
          "internalType": "contract IWorldID",
          "name": "_worldId",
          "type": "address"
        }
      ],
      "stateMutability": "nonpayable",
      "type": "constructor"
    },
    {
      "inputs": [],
      "name": "InvalidNullifier",
      "type": "error"
    },
    {
      "inputs": [
        {
          "internalType": "string",
          "name": "_name",
          "type": "string"
        },
        {
          "internalType": "string",
          "name": "_postalAddress",
          "type": "string"
        },
        {
          "internalType": "string",
          "name": "_city",
          "type": "string"
        },
        {
          "internalType": "string",
          "name": "_country",
          "type": "string"
        },
        {
          "internalType": "string",
          "name": "_photoUrl",
          "type": "string"
        },
        {
          "internalType": "string",
          "name": "_latitude",
          "type": "string"
        },
        {
          "internalType": "string",
          "name": "_longitude",
          "type": "string"
        }
      ],
      "name": "addRestaurant",
      "outputs": [],
      "stateMutability": "nonpayable",
      "type": "function"
    },
    {
      "inputs": [
        {
          "internalType": "string",
          "name": "_reviewText",
          "type": "string"
        },
        {
          "internalType": "uint256",
          "name": "_rating",
          "type": "uint256"
        },
        {
          "internalType": "uint256",
          "name": "_restaurantId",
          "type": "uint256"
        },
        {
          "internalType": "uint256",
          "name": "root",
          "type": "uint256"
        },
        {
          "internalType": "uint256",
          "name": "nullifierHash",
          "type": "uint256"
        },
        {
          "internalType": "uint256[8]",
          "name": "proof",
          "type": "uint256[8]"
        },
        {
          "internalType": "string",
          "name": "_actionId",
          "type": "string"
        }
      ],
      "name": "addReview",
      "outputs": [],
      "stateMutability": "nonpayable",
      "type": "function"
    },
    {
      "inputs": [
        {
          "components": [
            {
              "internalType": "bytes32",
              "name": "schema",
              "type": "bytes32"
            },
            {
              "components": [
                {
                  "internalType": "address",
                  "name": "recipient",
                  "type": "address"
                },
                {
                  "internalType": "uint64",
                  "name": "expirationTime",
                  "type": "uint64"
                },
                {
                  "internalType": "bool",
                  "name": "revocable",
                  "type": "bool"
                },
                {
                  "internalType": "bytes32",
                  "name": "refUID",
                  "type": "bytes32"
                },
                {
                  "internalType": "bytes",
                  "name": "data",
                  "type": "bytes"
                },
                {
                  "internalType": "uint256",
                  "name": "value",
                  "type": "uint256"
                }
              ],
              "internalType": "struct AttestationRequestData",
              "name": "data",
              "type": "tuple"
            }
          ],
          "internalType": "struct AttestationRequest",
          "name": "request",
          "type": "tuple"
        }
      ],
      "name": "attest",
      "outputs": [
        {
          "internalType": "bytes32",
          "name": "",
          "type": "bytes32"
        }
      ],
      "stateMutability": "payable",
      "type": "function"
    },
    {
      "inputs": [
        {
          "internalType": "address",
          "name": "restaurant",
          "type": "address"
        },
        {
          "internalType": "address",
          "name": "client",
          "type": "address"
        }
      ],
      "name": "getAttestationIds",
      "outputs": [
        {
          "internalType": "bytes32[]",
          "name": "",
          "type": "bytes32[]"
        }
      ],
      "stateMutability": "view",
      "type": "function"
    },
    {
      "inputs": [
        {
          "internalType": "address",
          "name": "restaurant",
          "type": "address"
        },
        {
          "internalType": "address",
          "name": "client",
          "type": "address"
        }
      ],
      "name": "getAttestations",
      "outputs": [
        {
          "components": [
            {
              "internalType": "bytes32",
              "name": "uid",
              "type": "bytes32"
            },
            {
              "internalType": "bytes32",
              "name": "schema",
              "type": "bytes32"
            },
            {
              "internalType": "uint64",
              "name": "time",
              "type": "uint64"
            },
            {
              "internalType": "uint64",
              "name": "expirationTime",
              "type": "uint64"
            },
            {
              "internalType": "uint64",
              "name": "revocationTime",
              "type": "uint64"
            },
            {
              "internalType": "bytes32",
              "name": "refUID",
              "type": "bytes32"
            },
            {
              "internalType": "address",
              "name": "recipient",
              "type": "address"
            },
            {
              "internalType": "address",
              "name": "attester",
              "type": "address"
            },
            {
              "internalType": "bool",
              "name": "revocable",
              "type": "bool"
            },
            {
              "internalType": "bytes",
              "name": "data",
              "type": "bytes"
            }
          ],
          "internalType": "struct Attestation[]",
          "name": "",
          "type": "tuple[]"
        }
      ],
      "stateMutability": "view",
      "type": "function"
    },
    {
      "inputs": [
        {
          "internalType": "address",
          "name": "client",
          "type": "address"
        }
      ],
      "name": "getClientRestaurantsAndReviews",
      "outputs": [
        {
          "components": [
            {
              "internalType": "uint256",
              "name": "id",
              "type": "uint256"
            },
            {
              "internalType": "string",
              "name": "name",
              "type": "string"
            },
            {
              "internalType": "string",
              "name": "postalAddress",
              "type": "string"
            },
            {
              "internalType": "string",
              "name": "city",
              "type": "string"
            },
            {
              "internalType": "string",
              "name": "country",
              "type": "string"
            },
            {
              "internalType": "string",
              "name": "photoUrl",
              "type": "string"
            },
            {
              "internalType": "string",
              "name": "latitude",
              "type": "string"
            },
            {
              "internalType": "string",
              "name": "longitude",
              "type": "string"
            },
            {
              "internalType": "address",
              "name": "ethAddress",
              "type": "address"
            }
          ],
          "internalType": "struct RestaurantReviews.Restaurant[]",
          "name": "",
          "type": "tuple[]"
        },
        {
          "components": [
            {
              "internalType": "uint256",
              "name": "id",
              "type": "uint256"
            },
            {
              "internalType": "string",
              "name": "reviewText",
              "type": "string"
            },
            {
              "internalType": "uint256",
              "name": "rating",
              "type": "uint256"
            },
            {
              "internalType": "address",
              "name": "userAddress",
              "type": "address"
            },
            {
              "internalType": "uint256",
              "name": "restaurantId",
              "type": "uint256"
            },
            {
              "internalType": "uint256",
              "name": "timestamp",
              "type": "uint256"
            }
          ],
          "internalType": "struct RestaurantReviews.Review[]",
          "name": "",
          "type": "tuple[]"
        }
      ],
      "stateMutability": "view",
      "type": "function"
    },
    {
      "inputs": [
        {
          "internalType": "address",
          "name": "owner",
          "type": "address"
        }
      ],
      "name": "getRestaurantByOwner",
      "outputs": [
        {
          "components": [
            {
              "internalType": "uint256",
              "name": "id",
              "type": "uint256"
            },
            {
              "internalType": "string",
              "name": "name",
              "type": "string"
            },
            {
              "internalType": "string",
              "name": "postalAddress",
              "type": "string"
            },
            {
              "internalType": "string",
              "name": "city",
              "type": "string"
            },
            {
              "internalType": "string",
              "name": "country",
              "type": "string"
            },
            {
              "internalType": "string",
              "name": "photoUrl",
              "type": "string"
            },
            {
              "internalType": "string",
              "name": "latitude",
              "type": "string"
            },
            {
              "internalType": "string",
              "name": "longitude",
              "type": "string"
            },
            {
              "internalType": "address",
              "name": "ethAddress",
              "type": "address"
            }
          ],
          "internalType": "struct RestaurantReviews.Restaurant",
          "name": "",
          "type": "tuple"
        }
      ],
      "stateMutability": "view",
      "type": "function"
    },
    {
      "inputs": [
        {
          "internalType": "uint256",
          "name": "_restaurantId",
          "type": "uint256"
        }
      ],
      "name": "getRestaurantReviews",
      "outputs": [
        {
          "components": [
            {
              "internalType": "uint256",
              "name": "id",
              "type": "uint256"
            },
            {
              "internalType": "string",
              "name": "reviewText",
              "type": "string"
            },
            {
              "internalType": "uint256",
              "name": "rating",
              "type": "uint256"
            },
            {
              "internalType": "address",
              "name": "userAddress",
              "type": "address"
            },
            {
              "internalType": "uint256",
              "name": "restaurantId",
              "type": "uint256"
            },
            {
              "internalType": "uint256",
              "name": "timestamp",
              "type": "uint256"
            }
          ],
          "internalType": "struct RestaurantReviews.Review[]",
          "name": "",
          "type": "tuple[]"
        }
      ],
      "stateMutability": "view",
      "type": "function"
    },
    {
      "inputs": [],
      "name": "getRestaurants",
      "outputs": [
        {
          "components": [
            {
              "internalType": "uint256",
              "name": "id",
              "type": "uint256"
            },
            {
              "internalType": "string",
              "name": "name",
              "type": "string"
            },
            {
              "internalType": "string",
              "name": "postalAddress",
              "type": "string"
            },
            {
              "internalType": "string",
              "name": "city",
              "type": "string"
            },
            {
              "internalType": "string",
              "name": "country",
              "type": "string"
            },
            {
              "internalType": "string",
              "name": "photoUrl",
              "type": "string"
            },
            {
              "internalType": "string",
              "name": "latitude",
              "type": "string"
            },
            {
              "internalType": "string",
              "name": "longitude",
              "type": "string"
            },
            {
              "internalType": "address",
              "name": "ethAddress",
              "type": "address"
            }
          ],
          "internalType": "struct RestaurantReviews.Restaurant[]",
          "name": "",
          "type": "tuple[]"
        }
      ],
      "stateMutability": "view",
      "type": "function"
    },
    {
      "inputs": [],
      "name": "getRestaurantsAndReviews",
      "outputs": [
        {
          "components": [
            {
              "internalType": "uint256",
              "name": "id",
              "type": "uint256"
            },
            {
              "internalType": "string",
              "name": "name",
              "type": "string"
            },
            {
              "internalType": "string",
              "name": "postalAddress",
              "type": "string"
            },
            {
              "internalType": "string",
              "name": "city",
              "type": "string"
            },
            {
              "internalType": "string",
              "name": "country",
              "type": "string"
            },
            {
              "internalType": "string",
              "name": "photoUrl",
              "type": "string"
            },
            {
              "internalType": "string",
              "name": "latitude",
              "type": "string"
            },
            {
              "internalType": "string",
              "name": "longitude",
              "type": "string"
            },
            {
              "internalType": "address",
              "name": "ethAddress",
              "type": "address"
            }
          ],
          "internalType": "struct RestaurantReviews.Restaurant[]",
          "name": "",
          "type": "tuple[]"
        },
        {
          "components": [
            {
              "internalType": "uint256",
              "name": "id",
              "type": "uint256"
            },
            {
              "internalType": "string",
              "name": "reviewText",
              "type": "string"
            },
            {
              "internalType": "uint256",
              "name": "rating",
              "type": "uint256"
            },
            {
              "internalType": "address",
              "name": "userAddress",
              "type": "address"
            },
            {
              "internalType": "uint256",
              "name": "restaurantId",
              "type": "uint256"
            },
            {
              "internalType": "uint256",
              "name": "timestamp",
              "type": "uint256"
            }
          ],
          "internalType": "struct RestaurantReviews.Review[][]",
          "name": "",
          "type": "tuple[][]"
        }
      ],
      "stateMutability": "view",
      "type": "function"
    },
    {
      "inputs": [
        {
          "internalType": "address",
          "name": "restaurant",
          "type": "address"
        },
        {
          "internalType": "address",
          "name": "client",
          "type": "address"
        }
      ],
      "name": "hasAttestation",
      "outputs": [
        {
          "internalType": "bool",
          "name": "",
          "type": "bool"
        }
      ],
      "stateMutability": "view",
      "type": "function"
    },
    {
      "inputs": [
        {
          "internalType": "address",
          "name": "",
          "type": "address"
        },
        {
          "internalType": "uint256",
          "name": "",
          "type": "uint256"
        }
      ],
      "name": "hasReviewed",
      "outputs": [
        {
          "internalType": "bool",
          "name": "",
          "type": "bool"
        }
      ],
      "stateMutability": "view",
      "type": "function"
    },
    {
      "inputs": [
        {
          "internalType": "uint256",
          "name": "",
          "type": "uint256"
        }
      ],
      "name": "restaurantById",
      "outputs": [
        {
          "internalType": "uint256",
          "name": "id",
          "type": "uint256"
        },
        {
          "internalType": "string",
          "name": "name",
          "type": "string"
        },
        {
          "internalType": "string",
          "name": "postalAddress",
          "type": "string"
        },
        {
          "internalType": "string",
          "name": "city",
          "type": "string"
        },
        {
          "internalType": "string",
          "name": "country",
          "type": "string"
        },
        {
          "internalType": "string",
          "name": "photoUrl",
          "type": "string"
        },
        {
          "internalType": "string",
          "name": "latitude",
          "type": "string"
        },
        {
          "internalType": "string",
          "name": "longitude",
          "type": "string"
        },
        {
          "internalType": "address",
          "name": "ethAddress",
          "type": "address"
        }
      ],
      "stateMutability": "view",
      "type": "function"
    },
    {
      "inputs": [
        {
          "internalType": "uint256",
          "name": "",
          "type": "uint256"
        }
      ],
      "name": "restaurants",
      "outputs": [
        {
          "internalType": "uint256",
          "name": "id",
          "type": "uint256"
        },
        {
          "internalType": "string",
          "name": "name",
          "type": "string"
        },
        {
          "internalType": "string",
          "name": "postalAddress",
          "type": "string"
        },
        {
          "internalType": "string",
          "name": "city",
          "type": "string"
        },
        {
          "internalType": "string",
          "name": "country",
          "type": "string"
        },
        {
          "internalType": "string",
          "name": "photoUrl",
          "type": "string"
        },
        {
          "internalType": "string",
          "name": "latitude",
          "type": "string"
        },
        {
          "internalType": "string",
          "name": "longitude",
          "type": "string"
        },
        {
          "internalType": "address",
          "name": "ethAddress",
          "type": "address"
        }
      ],
      "stateMutability": "view",
      "type": "function"
    },
    {
      "inputs": [
        {
          "internalType": "uint256",
          "name": "",
          "type": "uint256"
        }
      ],
      "name": "reviewById",
      "outputs": [
        {
          "internalType": "uint256",
          "name": "id",
          "type": "uint256"
        },
        {
          "internalType": "string",
          "name": "reviewText",
          "type": "string"
        },
        {
          "internalType": "uint256",
          "name": "rating",
          "type": "uint256"
        },
        {
          "internalType": "address",
          "name": "userAddress",
          "type": "address"
        },
        {
          "internalType": "uint256",
          "name": "restaurantId",
          "type": "uint256"
        },
        {
          "internalType": "uint256",
          "name": "timestamp",
          "type": "uint256"
        }
      ],
      "stateMutability": "view",
      "type": "function"
    },
    {
      "inputs": [
        {
          "internalType": "uint256",
          "name": "",
          "type": "uint256"
        }
      ],
      "name": "reviews",
      "outputs": [
        {
          "internalType": "uint256",
          "name": "id",
          "type": "uint256"
        },
        {
          "internalType": "string",
          "name": "reviewText",
          "type": "string"
        },
        {
          "internalType": "uint256",
          "name": "rating",
          "type": "uint256"
        },
        {
          "internalType": "address",
          "name": "userAddress",
          "type": "address"
        },
        {
          "internalType": "uint256",
          "name": "restaurantId",
          "type": "uint256"
        },
        {
          "internalType": "uint256",
          "name": "timestamp",
          "type": "uint256"
        }
      ],
      "stateMutability": "view",
      "type": "function"
    },
    {
      "inputs": [
        {
          "internalType": "uint256",
          "name": "",
          "type": "uint256"
        },
        {
          "internalType": "uint256",
          "name": "",
          "type": "uint256"
        }
      ],
      "name": "reviewsByRestaurant",
      "outputs": [
        {
          "internalType": "uint256",
          "name": "",
          "type": "uint256"
        }
      ],
      "stateMutability": "view",
      "type": "function"
    }
  ],
  "bytecode": {
    "object": "0x600160a052610120604052602c60c08181529062003a2a60e03960029062000028908262000124565b503480156200003657600080fd5b5060405162003a5638038062003a56833981016040819052620000599162000209565b600980546001600160a01b0319166001600160a01b039384161790551660805262000248565b634e487b7160e01b600052604160045260246000fd5b600181811c90821680620000aa57607f821691505b602082108103620000cb57634e487b7160e01b600052602260045260246000fd5b50919050565b601f8211156200011f57600081815260208120601f850160051c81016020861015620000fa5750805b601f850160051c820191505b818110156200011b5782815560010162000106565b5050505b505050565b81516001600160401b038111156200014057620001406200007f565b620001588162000151845462000095565b84620000d1565b602080601f831160018114620001905760008415620001775750858301515b600019600386901b1c1916600185901b1785556200011b565b600085815260208120601f198616915b82811015620001c157888601518255948401946001909101908401620001a0565b5085821015620001e05787850151600019600388901b60f8161c191681555b5050505050600190811b01905550565b6001600160a01b03811681146200020657600080fd5b50565b600080604083850312156200021d57600080fd5b82516200022a81620001f0565b60208401519092506200023d81620001f0565b809150509250929050565b60805160a0516137bc6200026e6000396000610ea601526000610e7b01526137bc6000f3fe6080604052600436106100fd5760003560e01c80638309f41511610095578063ce1a843611610064578063ce1a84361461031a578063e2c5664c14610347578063e83ddcea14610374578063f17325e714610394578063fce64bfe146103a757600080fd5b80638309f4151461026557806393b8a4c814610297578063ad5461d8146102b7578063b615a2ee146102ec57600080fd5b806333b0a952116100d157806333b0a952146101d35780633985f5de146101f357806362b88082146102165780637cf74ed61461023857600080fd5b8062a1f81a1461010257806305532b2d14610139578063167104fb14610166578063309578ff14610188575b600080fd5b34801561010e57600080fd5b5061012261011d3660046128fd565b6103c7565b604051610130929190612b32565b60405180910390f35b34801561014557600080fd5b50610159610154366004612b60565b610987565b6040516101309190612b79565b34801561017257600080fd5b50610186610181366004612c78565b610be5565b005b34801561019457600080fd5b506101c36101a3366004612d1b565b600660209081526000928352604080842090915290825290205460ff1681565b6040519015158152602001610130565b3480156101df57600080fd5b506101866101ee366004612d47565b6110e7565b3480156101ff57600080fd5b50610208611321565b604051610130929190612e45565b34801561022257600080fd5b5061022b6113ed565b6040516101309190612f40565b34801561024457600080fd5b506102586102533660046128fd565b61186b565b6040516101309190612f53565b34801561027157600080fd5b50610285610280366004612b60565b611d61565b60405161013096959493929190612f66565b3480156102a357600080fd5b506101c36102b2366004612fad565b611e29565b3480156102c357600080fd5b506102d76102d2366004612b60565b611e58565b60405161013099989796959493929190612fe6565b3480156102f857600080fd5b5061030c610307366004613098565b612273565b604051908152602001610130565b34801561032657600080fd5b5061033a610335366004612fad565b6122a4565b60405161013091906130ba565b34801561035357600080fd5b50610367610362366004612fad565b61231d565b60405161013091906130fe565b34801561038057600080fd5b5061028561038f366004612b60565b6124a5565b61030c6103a23660046131eb565b6124da565b3480156103b357600080fd5b506102d76103c2366004612b60565b6125c9565b60008054606091829190816001600160401b038111156103e9576103e9612b8c565b60405190808252806020026020018201604052801561042257816020015b61040f612851565b8152602001906001900390816104075790505b5090506000826001600160401b0381111561043f5761043f612b8c565b60405190808252806020026020018201604052801561047857816020015b6104656128a6565b81526020019060019003908161045d5790505b5090506000805b84811015610976576104c06000828154811061049d5761049d613225565b60009182526020909120600860099092020101546001600160a01b031689611e29565b1561096457600081815481106104d8576104d8613225565b9060005260206000209060090201604051806101200160405290816000820154815260200160018201805461050c9061323b565b80601f01602080910402602001604051908101604052809291908181526020018280546105389061323b565b80156105855780601f1061055a57610100808354040283529160200191610585565b820191906000526020600020905b81548152906001019060200180831161056857829003601f168201915b5050505050815260200160028201805461059e9061323b565b80601f01602080910402602001604051908101604052809291908181526020018280546105ca9061323b565b80156106175780601f106105ec57610100808354040283529160200191610617565b820191906000526020600020905b8154815290600101906020018083116105fa57829003601f168201915b505050505081526020016003820180546106309061323b565b80601f016020809104026020016040519081016040528092919081815260200182805461065c9061323b565b80156106a95780601f1061067e576101008083540402835291602001916106a9565b820191906000526020600020905b81548152906001019060200180831161068c57829003601f168201915b505050505081526020016004820180546106c29061323b565b80601f01602080910402602001604051908101604052809291908181526020018280546106ee9061323b565b801561073b5780601f106107105761010080835404028352916020019161073b565b820191906000526020600020905b81548152906001019060200180831161071e57829003601f168201915b505050505081526020016005820180546107549061323b565b80601f01602080910402602001604051908101604052809291908181526020018280546107809061323b565b80156107cd5780601f106107a2576101008083540402835291602001916107cd565b820191906000526020600020905b8154815290600101906020018083116107b057829003601f168201915b505050505081526020016006820180546107e69061323b565b80601f01602080910402602001604051908101604052809291908181526020018280546108129061323b565b801561085f5780601f106108345761010080835404028352916020019161085f565b820191906000526020600020905b81548152906001019060200180831161084257829003601f168201915b505050505081526020016007820180546108789061323b565b80601f01602080910402602001604051908101604052809291908181526020018280546108a49061323b565b80156108f15780601f106108c6576101008083540402835291602001916108f1565b820191906000526020600020905b8154815290600101906020018083116108d457829003601f168201915b5050509183525050600891909101546001600160a01b0316602090910152845185908490811061092357610923613225565b602002602001018190525061093888826125eb565b83838151811061094a5761094a613225565b6020026020010181905250818061096090613275565b9250505b8061096e81613275565b91505061047f565b508083528152909590945092505050565b60005460609082106109d85760405162461bcd60e51b8152602060048201526015602482015274125b9d985b1a59081c995cdd185d5c985b9d081251605a1b60448201526064015b60405180910390fd5b600082815260056020908152604080832080548251818502810185019093528083529192909190830182828015610a2e57602002820191906000526020600020905b815481526020019060010190808311610a1a575b50505050509050600081516001600160401b03811115610a5057610a50612b8c565b604051908082528060200260200182016040528015610a8957816020015b610a766128a6565b815260200190600190039081610a6e5790505b50905060005b8251811015610bdd576001838281518110610aac57610aac613225565b602002602001015181548110610ac457610ac4613225565b90600052602060002090600602016040518060c001604052908160008201548152602001600182018054610af79061323b565b80601f0160208091040260200160405190810160405280929190818152602001828054610b239061323b565b8015610b705780601f10610b4557610100808354040283529160200191610b70565b820191906000526020600020905b815481529060010190602001808311610b5357829003601f168201915b50505091835250506002820154602082015260038201546001600160a01b03166040820152600482015460608201526005909101546080909101528251839083908110610bbf57610bbf613225565b60200260200101819052508080610bd590613275565b915050610a8f565b509392505050565b600086118015610bf6575060058611155b610c525760405162461bcd60e51b815260206004820152602760248201527f496e76616c696420726174696e673b206d757374206265206265747765656e206044820152663120616e64203560c81b60648201526084016109cf565b6000548510610c9b5760405162461bcd60e51b8152602060048201526015602482015274125b9d985b1a59081c995cdd185d5c985b9d081251605a1b60448201526064016109cf565b610cd460008681548110610cb157610cb1613225565b60009182526020909120600860099092020101546001600160a01b031633611e29565b610d2c5760405162461bcd60e51b815260206004820152602360248201527f5573657220686173206e6f742076697369746564207468652072657374617572604482015262185b9d60ea1b60648201526084016109cf565b33600090815260066020908152604080832088845290915290205460ff1615610da95760405162461bcd60e51b815260206004820152602960248201527f557365722068617320616c726561647920726576696577656420746869732072604482015268195cdd185d5c985b9d60ba1b60648201526084016109cf565b6000610de9610dd76002604051602001610dc3919061329c565b60405160208183030381529060405261281c565b83604051602001610dc3929190613312565b600081815260086020908152604080832088845290915290205490915060ff1615610e565760405162461bcd60e51b815260206004820152601f60248201527f4e756c6c69666965722068617320616c7265616479206265656e20757365640060448201526064016109cf565b6040516bffffffffffffffffffffffff193360601b1660208201526001600160a01b037f00000000000000000000000000000000000000000000000000000000000000001690633bc778e39087907f000000000000000000000000000000000000000000000000000000000000000090610ed290603401610dc3565b8886896040518763ffffffff1660e01b8152600401610ef696959493929190613338565b60006040518083038186803b158015610f0e57600080fd5b505afa158015610f22573d6000803e3d6000fd5b50505060008281526008602090815260408083208884528252808320805460ff191660019081179091558054825160c0810184528181529384018e81529284018d9052336060850152608084018c90524260a0850152808201825593528151600684027fb10e2d527612073b26eecdfd717e6a320cf44b4afac2b0732d9fcbe2b7fa0cf68101918255915193945091928392917fb10e2d527612073b26eecdfd717e6a320cf44b4afac2b0732d9fcbe2b7fa0cf70190610fe290826133bf565b50604082810151600283015560608301516003830180546001600160a01b0319166001600160a01b03909216919091179055608083015160048084019190915560a09093015160059092019190915560008481526020928352208251815590820151829190600182019061105690826133bf565b50604082810151600283015560608301516003830180546001600160a01b0319166001600160a01b039092169190911790556080830151600483015560a09092015160059182015560008a815260209182528281208054600181810183559183528383200195909555338152600682528281209a8152999052909720805460ff191690911790555050505050505050565b600080546040805161012081018252828152602081018b81529181018a9052606081018990526080810188905260a0810187905260c0810186905260e08101859052336101008201526001830184559280528251600983027f290decd9548b62a8d60345a988386fc84ba6bc95484008f6362f93160ef3e5638101918255915192939283927f290decd9548b62a8d60345a988386fc84ba6bc95484008f6362f93160ef3e564019061119990826133bf565b50604082015160028201906111ae90826133bf565b50606082015160038201906111c390826133bf565b50608082015160048201906111d890826133bf565b5060a082015160058201906111ed90826133bf565b5060c0820151600682019061120290826133bf565b5060e0820151600782019061121790826133bf565b506101009190910151600890910180546001600160a01b0319166001600160a01b0390921691909117905560008281526003602090815260409091208251815590820151829190600182019061126d90826133bf565b506040820151600282019061128290826133bf565b506060820151600382019061129790826133bf565b50608082015160048201906112ac90826133bf565b5060a082015160058201906112c190826133bf565b5060c082015160068201906112d690826133bf565b5060e082015160078201906112eb90826133bf565b506101009190910151600890910180546001600160a01b0319166001600160a01b03909216919091179055505050505050505050565b606080600061132e6113ed565b9050600081516001600160401b0381111561134b5761134b612b8c565b60405190808252806020026020018201604052801561137e57816020015b60608152602001906001900390816113695790505b50905060005b82518110156113e3576113b38382815181106113a2576113a2613225565b602002602001015160000151610987565b8282815181106113c5576113c5613225565b602002602001018190525080806113db90613275565b915050611384565b5090939092509050565b60606000805480602002602001604051908101604052809291908181526020016000905b828210156118625783829060005260206000209060090201604051806101200160405290816000820154815260200160018201805461144f9061323b565b80601f016020809104026020016040519081016040528092919081815260200182805461147b9061323b565b80156114c85780601f1061149d576101008083540402835291602001916114c8565b820191906000526020600020905b8154815290600101906020018083116114ab57829003601f168201915b505050505081526020016002820180546114e19061323b565b80601f016020809104026020016040519081016040528092919081815260200182805461150d9061323b565b801561155a5780601f1061152f5761010080835404028352916020019161155a565b820191906000526020600020905b81548152906001019060200180831161153d57829003601f168201915b505050505081526020016003820180546115739061323b565b80601f016020809104026020016040519081016040528092919081815260200182805461159f9061323b565b80156115ec5780601f106115c1576101008083540402835291602001916115ec565b820191906000526020600020905b8154815290600101906020018083116115cf57829003601f168201915b505050505081526020016004820180546116059061323b565b80601f01602080910402602001604051908101604052809291908181526020018280546116319061323b565b801561167e5780601f106116535761010080835404028352916020019161167e565b820191906000526020600020905b81548152906001019060200180831161166157829003601f168201915b505050505081526020016005820180546116979061323b565b80601f01602080910402602001604051908101604052809291908181526020018280546116c39061323b565b80156117105780601f106116e557610100808354040283529160200191611710565b820191906000526020600020905b8154815290600101906020018083116116f357829003601f168201915b505050505081526020016006820180546117299061323b565b80601f01602080910402602001604051908101604052809291908181526020018280546117559061323b565b80156117a25780601f10611777576101008083540402835291602001916117a2565b820191906000526020600020905b81548152906001019060200180831161178557829003601f168201915b505050505081526020016007820180546117bb9061323b565b80601f01602080910402602001604051908101604052809291908181526020018280546117e79061323b565b80156118345780601f1061180957610100808354040283529160200191611834565b820191906000526020600020905b81548152906001019060200180831161181757829003601f168201915b5050509183525050600891909101546001600160a01b03166020918201529082526001929092019101611411565b50505050905090565b611873612851565b60005b600054811015611d2257826001600160a01b03166000828154811061189d5761189d613225565b60009182526020909120600860099092020101546001600160a01b031603611d1057600081815481106118d2576118d2613225565b906000526020600020906009020160405180610120016040529081600082015481526020016001820180546119069061323b565b80601f01602080910402602001604051908101604052809291908181526020018280546119329061323b565b801561197f5780601f106119545761010080835404028352916020019161197f565b820191906000526020600020905b81548152906001019060200180831161196257829003601f168201915b505050505081526020016002820180546119989061323b565b80601f01602080910402602001604051908101604052809291908181526020018280546119c49061323b565b8015611a115780601f106119e657610100808354040283529160200191611a11565b820191906000526020600020905b8154815290600101906020018083116119f457829003601f168201915b50505050508152602001600382018054611a2a9061323b565b80601f0160208091040260200160405190810160405280929190818152602001828054611a569061323b565b8015611aa35780601f10611a7857610100808354040283529160200191611aa3565b820191906000526020600020905b815481529060010190602001808311611a8657829003601f168201915b50505050508152602001600482018054611abc9061323b565b80601f0160208091040260200160405190810160405280929190818152602001828054611ae89061323b565b8015611b355780601f10611b0a57610100808354040283529160200191611b35565b820191906000526020600020905b815481529060010190602001808311611b1857829003601f168201915b50505050508152602001600582018054611b4e9061323b565b80601f0160208091040260200160405190810160405280929190818152602001828054611b7a9061323b565b8015611bc75780601f10611b9c57610100808354040283529160200191611bc7565b820191906000526020600020905b815481529060010190602001808311611baa57829003601f168201915b50505050508152602001600682018054611be09061323b565b80601f0160208091040260200160405190810160405280929190818152602001828054611c0c9061323b565b8015611c595780601f10611c2e57610100808354040283529160200191611c59565b820191906000526020600020905b815481529060010190602001808311611c3c57829003601f168201915b50505050508152602001600782018054611c729061323b565b80601f0160208091040260200160405190810160405280929190818152602001828054611c9e9061323b565b8015611ceb5780601f10611cc057610100808354040283529160200191611ceb565b820191906000526020600020905b815481529060010190602001808311611cce57829003601f168201915b5050509183525050600891909101546001600160a01b03166020909101529392505050565b80611d1a81613275565b915050611876565b5060405162461bcd60e51b8152602060048201526013602482015272139bc81c995cdd185d5c985b9d08199bdd5b99606a1b60448201526064016109cf565b60046020526000908152604090208054600182018054919291611d839061323b565b80601f0160208091040260200160405190810160405280929190818152602001828054611daf9061323b565b8015611dfc5780601f10611dd157610100808354040283529160200191611dfc565b820191906000526020600020905b815481529060010190602001808311611ddf57829003601f168201915b50505050600283015460038401546004850154600590950154939491936001600160a01b03909116925086565b6001600160a01b0380831660009081526007602090815260408083209385168352929052205415155b92915050565b60008181548110611e6857600080fd5b60009182526020909120600990910201805460018201805491935090611e8d9061323b565b80601f0160208091040260200160405190810160405280929190818152602001828054611eb99061323b565b8015611f065780601f10611edb57610100808354040283529160200191611f06565b820191906000526020600020905b815481529060010190602001808311611ee957829003601f168201915b505050505090806002018054611f1b9061323b565b80601f0160208091040260200160405190810160405280929190818152602001828054611f479061323b565b8015611f945780601f10611f6957610100808354040283529160200191611f94565b820191906000526020600020905b815481529060010190602001808311611f7757829003601f168201915b505050505090806003018054611fa99061323b565b80601f0160208091040260200160405190810160405280929190818152602001828054611fd59061323b565b80156120225780601f10611ff757610100808354040283529160200191612022565b820191906000526020600020905b81548152906001019060200180831161200557829003601f168201915b5050505050908060040180546120379061323b565b80601f01602080910402602001604051908101604052809291908181526020018280546120639061323b565b80156120b05780601f10612085576101008083540402835291602001916120b0565b820191906000526020600020905b81548152906001019060200180831161209357829003601f168201915b5050505050908060050180546120c59061323b565b80601f01602080910402602001604051908101604052809291908181526020018280546120f19061323b565b801561213e5780601f106121135761010080835404028352916020019161213e565b820191906000526020600020905b81548152906001019060200180831161212157829003601f168201915b5050505050908060060180546121539061323b565b80601f016020809104026020016040519081016040528092919081815260200182805461217f9061323b565b80156121cc5780601f106121a1576101008083540402835291602001916121cc565b820191906000526020600020905b8154815290600101906020018083116121af57829003601f168201915b5050505050908060070180546121e19061323b565b80601f016020809104026020016040519081016040528092919081815260200182805461220d9061323b565b801561225a5780601f1061222f5761010080835404028352916020019161225a565b820191906000526020600020905b81548152906001019060200180831161223d57829003601f168201915b505050600890930154919250506001600160a01b031689565b6005602052816000526040600020818154811061228f57600080fd5b90600052602060002001600091509150505481565b6001600160a01b03808316600090815260076020908152604080832093851683529281529082902080548351818402810184019094528084526060939283018282801561231057602002820191906000526020600020905b8154815260200190600101908083116122fc575b5050505050905092915050565b6060600061232b84846122a4565b9050600081516001600160401b0381111561234857612348612b8c565b6040519080825280602002602001820160405280156123c957816020015b60408051610140810182526000808252602080830182905292820181905260608083018290526080830182905260a0830182905260c0830182905260e0830182905261010083019190915261012082015282526000199092019101816123665790505b50905060005b825181101561249c5760095483516001600160a01b039091169063a3112a649085908490811061240157612401613225565b60200260200101516040518263ffffffff1660e01b815260040161242791815260200190565b600060405180830381865afa158015612444573d6000803e3d6000fd5b505050506040513d6000823e601f3d908101601f1916820160405261246c9190810190613514565b82828151811061247e5761247e613225565b6020026020010181905250808061249490613275565b9150506123cf565b50949350505050565b600181815481106124b557600080fd5b60009182526020909120600690910201805460018201805491935090611d839061323b565b6000806124e63361186b565b60095460405163f17325e760e01b81529192506000916001600160a01b039091169063f17325e79061251c90879060040161367f565b6020604051808303816000875af115801561253b573d6000803e3d6000fd5b505050506040513d601f19601f8201168201806040525081019061255f919061373b565b6101008301519091506125c2906125796020870187613754565b6125879060208101906128fd565b6001600160a01b0391821660009081526007602090815260408083209390941682529182529182208054600181018255908352912001829055565b9392505050565b60036020526000908152604090208054600182018054919291611e8d9061323b565b6125f36128a6565b60008281526005602090815260408083208054825181850281018501909352808352919290919083018282801561264957602002820191906000526020600020905b815481526020019060010190808311612635575b5050505050905060005b81518110156127c8576000600183838151811061267257612672613225565b60200260200101518154811061268a5761268a613225565b90600052602060002090600602016040518060c0016040529081600082015481526020016001820180546126bd9061323b565b80601f01602080910402602001604051908101604052809291908181526020018280546126e99061323b565b80156127365780601f1061270b57610100808354040283529160200191612736565b820191906000526020600020905b81548152906001019060200180831161271957829003601f168201915b50505050508152602001600282015481526020016003820160009054906101000a90046001600160a01b03166001600160a01b03166001600160a01b03168152602001600482015481526020016005820154815250509050856001600160a01b031681606001516001600160a01b0316036127b5579250611e52915050565b50806127c081613275565b915050612653565b506040518060c00160405280600081526020016040518060200160405280600081525081526020016000815260200160006001600160a01b0316815260200160008152602001600081525091505092915050565b60006008826040516020016128319190613774565b60408051601f198184030181529190528051602090910120901c92915050565b604051806101200160405280600081526020016060815260200160608152602001606081526020016060815260200160608152602001606081526020016060815260200160006001600160a01b031681525090565b6040518060c0016040528060008152602001606081526020016000815260200160006001600160a01b0316815260200160008152602001600081525090565b6001600160a01b03811681146128fa57600080fd5b50565b60006020828403121561290f57600080fd5b81356125c2816128e5565b60005b8381101561293557818101518382015260200161291d565b50506000910152565b6000815180845261295681602086016020860161291a565b601f01601f19169290920160200192915050565b600061012082518452602083015181602086015261298a8286018261293e565b915050604083015184820360408601526129a4828261293e565b915050606083015184820360608601526129be828261293e565b915050608083015184820360808601526129d8828261293e565b91505060a083015184820360a08601526129f2828261293e565b91505060c083015184820360c0860152612a0c828261293e565b91505060e083015184820360e0860152612a26828261293e565b91505061010080840151612a44828701826001600160a01b03169052565b5090949350505050565b600081518084526020808501808196508360051b8101915082860160005b85811015612a96578284038952612a8484835161296a565b98850198935090840190600101612a6c565b5091979650505050505050565b600081518084526020808501808196508360051b8101915082860160005b85811015612a96578284038952815160c081518652868201518188880152612aeb8288018261293e565b604084810151908901526060808501516001600160a01b0316908901526080808501519089015260a093840151939097019290925250509784019790840190600101612ac1565b604081526000612b456040830185612a4e565b8281036020840152612b578185612aa3565b95945050505050565b600060208284031215612b7257600080fd5b5035919050565b6020815260006125c26020830184612aa3565b634e487b7160e01b600052604160045260246000fd5b60405161014081016001600160401b0381118282101715612bc557612bc5612b8c565b60405290565b604051601f8201601f191681016001600160401b0381118282101715612bf357612bf3612b8c565b604052919050565b60006001600160401b03821115612c1457612c14612b8c565b50601f01601f191660200190565b600082601f830112612c3357600080fd5b8135612c46612c4182612bfb565b612bcb565b818152846020838601011115612c5b57600080fd5b816020850160208301376000918101602001919091529392505050565b60008060008060008060006101c0888a031215612c9457600080fd5b87356001600160401b0380821115612cab57600080fd5b612cb78b838c01612c22565b985060208a0135975060408a0135965060608a0135955060808a013594506101a08a0191508a821115612ce957600080fd5b60a08a01935090359080821115612cff57600080fd5b50612d0c8a828b01612c22565b91505092959891949750929550565b60008060408385031215612d2e57600080fd5b8235612d39816128e5565b946020939093013593505050565b600080600080600080600060e0888a031215612d6257600080fd5b87356001600160401b0380821115612d7957600080fd5b612d858b838c01612c22565b985060208a0135915080821115612d9b57600080fd5b612da78b838c01612c22565b975060408a0135915080821115612dbd57600080fd5b612dc98b838c01612c22565b965060608a0135915080821115612ddf57600080fd5b612deb8b838c01612c22565b955060808a0135915080821115612e0157600080fd5b612e0d8b838c01612c22565b945060a08a0135915080821115612e2357600080fd5b612e2f8b838c01612c22565b935060c08a0135915080821115612cff57600080fd5b604081526000612e586040830185612a4e565b6020838203818501528185518084528284019150828160051b85010183880160005b83811015612f3157601f1987840381018652825180518086529088019088860190600581901b87018a0160005b82811015612f1a5785898303018452845160c0815184528d820151818f860152612ed38286018261293e565b604084810151908701526060808501516001600160a01b0316908701526080808501519087015260a09384015193909501929092525050938b0193928b0192600101612ea7565b50988a019896505050928701925050600101612e7a565b50909998505050505050505050565b6020815260006125c26020830184612a4e565b6020815260006125c2602083018461296a565b86815260c060208201526000612f7f60c083018861293e565b6040830196909652506001600160a01b03939093166060840152608083019190915260a09091015292915050565b60008060408385031215612fc057600080fd5b8235612fcb816128e5565b91506020830135612fdb816128e5565b809150509250929050565b60006101208b83528060208401526130008184018c61293e565b90508281036040840152613014818b61293e565b90508281036060840152613028818a61293e565b9050828103608084015261303c818961293e565b905082810360a0840152613050818861293e565b905082810360c0840152613064818761293e565b905082810360e0840152613078818661293e565b91505060018060a01b0383166101008301529a9950505050505050505050565b600080604083850312156130ab57600080fd5b50508035926020909101359150565b6020808252825182820181905260009190848201906040850190845b818110156130f2578351835292840192918401916001016130d6565b50909695505050505050565b60006020808301818452808551808352604092508286019150828160051b87010184880160005b838110156131dd57603f198984030185528151805184528781015188850152868101516001600160401b03908116888601526060808301518216908601526080808301519091169085015260a0808201519085015260c0808201516001600160a01b039081169186019190915260e080830151909116908501526101008082015115159085015261012090810151610140918501829052906131c98186018361293e565b968901969450505090860190600101613125565b509098975050505050505050565b6000602082840312156131fd57600080fd5b81356001600160401b0381111561321357600080fd5b8201604081850312156125c257600080fd5b634e487b7160e01b600052603260045260246000fd5b600181811c9082168061324f57607f821691505b60208210810361326f57634e487b7160e01b600052602260045260246000fd5b50919050565b60006001820161329557634e487b7160e01b600052601160045260246000fd5b5060010190565b60008083546132aa8161323b565b600182811680156132c257600181146132d757613306565b60ff1984168752821515830287019450613306565b8760005260208060002060005b858110156132fd5781548a8201529084019082016132e4565b50505082870194505b50929695505050505050565b8281526000825161332a81602085016020870161291a565b919091016020019392505050565b60006101a0820190508782528660208301528560408301528460608301528360808301526101008360a0840137979650505050505050565b601f8211156133ba57600081815260208120601f850160051c810160208610156133975750805b601f850160051c820191505b818110156133b6578281556001016133a3565b5050505b505050565b81516001600160401b038111156133d8576133d8612b8c565b6133ec816133e6845461323b565b84613370565b602080601f83116001811461342157600084156134095750858301515b600019600386901b1c1916600185901b1785556133b6565b600085815260208120601f198616915b8281101561345057888601518255948401946001909101908401613431565b508582101561346e5787850151600019600388901b60f8161c191681555b5050505050600190811b01905550565b6001600160401b03811681146128fa57600080fd5b805161349e8161347e565b919050565b805161349e816128e5565b80151581146128fa57600080fd5b805161349e816134ae565b600082601f8301126134d857600080fd5b81516134e6612c4182612bfb565b8181528460208386010111156134fb57600080fd5b61350c82602083016020870161291a565b949350505050565b60006020828403121561352657600080fd5b81516001600160401b038082111561353d57600080fd5b90830190610140828603121561355257600080fd5b61355a612ba2565b825181526020830151602082015261357460408401613493565b604082015261358560608401613493565b606082015261359660808401613493565b608082015260a083015160a08201526135b160c084016134a3565b60c08201526135c260e084016134a3565b60e08201526101006135d58185016134bc565b9082015261012083810151838111156135ed57600080fd5b6135f9888287016134c7565b918301919091525095945050505050565b6000808335601e1984360301811261362157600080fd5b83016020810192503590506001600160401b0381111561364057600080fd5b80360382131561364f57600080fd5b9250929050565b81835281816020850137506000828201602090810191909152601f909101601f19169091010190565b60208152813560208201526000602083013560be198436030181126136a357600080fd5b604083810152830180356136b6816128e5565b6001600160a01b0316606084015260208101356136d28161347e565b6001600160401b0316608084015260408101356136ee816134ae565b151560a0840152606081013560c084015261370c608082018261360a565b60c060e086015261372261012086018284613656565b91505060a0820135610100850152809250505092915050565b60006020828403121561374d57600080fd5b5051919050565b6000823560be1983360301811261376a57600080fd5b9190910192915050565b6000825161376a81846020870161291a56fea26469706673582212203e1124bafa520ecb7bb0b22b2a8c6fc5bb2bbda91acbe03628c3f4d3cd58b25f64736f6c634300081300336170705f73746167696e675f3434613264633638306538393833643265393561313339383835626531653861",
    "linkReferences": {}
  },
  "methodIdentifiers": {
    "addRestaurant(string,string,string,string,string,string,string)": "33b0a952",
    "addReview(string,uint256,uint256,uint256,uint256,uint256[8],string)": "167104fb",
    "attest((bytes32,(address,uint64,bool,bytes32,bytes,uint256)))": "f17325e7",
    "getAttestationIds(address,address)": "ce1a8436",
    "getAttestations(address,address)": "e2c5664c",
    "getClientRestaurantsAndReviews(address)": "00a1f81a",
    "getRestaurantByOwner(address)": "7cf74ed6",
    "getRestaurantReviews(uint256)": "05532b2d",
    "getRestaurants()": "62b88082",
    "getRestaurantsAndReviews()": "3985f5de",
    "hasAttestation(address,address)": "93b8a4c8",
    "hasReviewed(address,uint256)": "309578ff",
    "restaurantById(uint256)": "fce64bfe",
    "restaurants(uint256)": "ad5461d8",
    "reviewById(uint256)": "8309f415",
    "reviews(uint256)": "e83ddcea",
    "reviewsByRestaurant(uint256,uint256)": "b615a2ee"
  },
  "id": 30
}