{
  "abi": [
    {
      "inputs": [
        {
          "internalType": "contract ISchemaRegistry",
          "name": "registry",
          "type": "address"
        }
      ],
      "stateMutability": "nonpayable",
      "type": "constructor"
    },
    {
      "inputs": [],
      "name": "AccessDenied",
      "type": "error"
    },
    {
      "inputs": [],
      "name": "AlreadyRevoked",
      "type": "error"
    },
    {
      "inputs": [],
      "name": "AlreadyRevokedOffchain",
      "type": "error"
    },
    {
      "inputs": [],
      "name": "AlreadyTimestamped",
      "type": "error"
    },
    {
      "inputs": [],
      "name": "DeadlineExpired",
      "type": "error"
    },
    {
      "inputs": [],
      "name": "InsufficientValue",
      "type": "error"
    },
    {
      "inputs": [],
      "name": "InvalidAttestation",
      "type": "error"
    },
    {
      "inputs": [],
      "name": "InvalidAttestations",
      "type": "error"
    },
    {
      "inputs": [],
      "name": "InvalidExpirationTime",
      "type": "error"
    },
    {
      "inputs": [],
      "name": "InvalidLength",
      "type": "error"
    },
    {
      "inputs": [],
      "name": "InvalidNonce",
      "type": "error"
    },
    {
      "inputs": [],
      "name": "InvalidOffset",
      "type": "error"
    },
    {
      "inputs": [],
      "name": "InvalidRegistry",
      "type": "error"
    },
    {
      "inputs": [],
      "name": "InvalidRevocation",
      "type": "error"
    },
    {
      "inputs": [],
      "name": "InvalidRevocations",
      "type": "error"
    },
    {
      "inputs": [],
      "name": "InvalidSchema",
      "type": "error"
    },
    {
      "inputs": [],
      "name": "InvalidShortString",
      "type": "error"
    },
    {
      "inputs": [],
      "name": "InvalidSignature",
      "type": "error"
    },
    {
      "inputs": [],
      "name": "InvalidVerifier",
      "type": "error"
    },
    {
      "inputs": [],
      "name": "Irrevocable",
      "type": "error"
    },
    {
      "inputs": [],
      "name": "NotFound",
      "type": "error"
    },
    {
      "inputs": [],
      "name": "NotPayable",
      "type": "error"
    },
    {
      "inputs": [
        {
          "internalType": "string",
          "name": "str",
          "type": "string"
        }
      ],
      "name": "StringTooLong",
      "type": "error"
    },
    {
      "inputs": [],
      "name": "WrongSchema",
      "type": "error"
    },
    {
      "anonymous": false,
      "inputs": [
        {
          "indexed": true,
          "internalType": "address",
          "name": "recipient",
          "type": "address"
        },
        {
          "indexed": true,
          "internalType": "address",
          "name": "attester",
          "type": "address"
        },
        {
          "indexed": false,
          "internalType": "bytes32",
          "name": "uid",
          "type": "bytes32"
        },
        {
          "indexed": true,
          "internalType": "bytes32",
          "name": "schemaUID",
          "type": "bytes32"
        }
      ],
      "name": "Attested",
      "type": "event"
    },
    {
      "anonymous": false,
      "inputs": [],
      "name": "EIP712DomainChanged",
      "type": "event"
    },
    {
      "anonymous": false,
      "inputs": [
        {
          "indexed": false,
          "internalType": "uint256",
          "name": "oldNonce",
          "type": "uint256"
        },
        {
          "indexed": false,
          "internalType": "uint256",
          "name": "newNonce",
          "type": "uint256"
        }
      ],
      "name": "NonceIncreased",
      "type": "event"
    },
    {
      "anonymous": false,
      "inputs": [
        {
          "indexed": true,
          "internalType": "address",
          "name": "recipient",
          "type": "address"
        },
        {
          "indexed": true,
          "internalType": "address",
          "name": "attester",
          "type": "address"
        },
        {
          "indexed": false,
          "internalType": "bytes32",
          "name": "uid",
          "type": "bytes32"
        },
        {
          "indexed": true,
          "internalType": "bytes32",
          "name": "schemaUID",
          "type": "bytes32"
        }
      ],
      "name": "Revoked",
      "type": "event"
    },
    {
      "anonymous": false,
      "inputs": [
        {
          "indexed": true,
          "internalType": "address",
          "name": "revoker",
          "type": "address"
        },
        {
          "indexed": true,
          "internalType": "bytes32",
          "name": "data",
          "type": "bytes32"
        },
        {
          "indexed": true,
          "internalType": "uint64",
          "name": "timestamp",
          "type": "uint64"
        }
      ],
      "name": "RevokedOffchain",
      "type": "event"
    },
    {
      "anonymous": false,
      "inputs": [
        {
          "indexed": true,
          "internalType": "bytes32",
          "name": "data",
          "type": "bytes32"
        },
        {
          "indexed": true,
          "internalType": "uint64",
          "name": "timestamp",
          "type": "uint64"
        }
      ],
      "name": "Timestamped",
      "type": "event"
    },
    {
      "inputs": [
        {
          "components": [
            {
              "internalType": "bytes32",
              "name": "schema",
              "type": "bytes32"
            },
            {
              "components": [
                {
                  "internalType": "address",
                  "name": "recipient",
                  "type": "address"
                },
                {
                  "internalType": "uint64",
                  "name": "expirationTime",
                  "type": "uint64"
                },
                {
                  "internalType": "bool",
                  "name": "revocable",
                  "type": "bool"
                },
                {
                  "internalType": "bytes32",
                  "name": "refUID",
                  "type": "bytes32"
                },
                {
                  "internalType": "bytes",
                  "name": "data",
                  "type": "bytes"
                },
                {
                  "internalType": "uint256",
                  "name": "value",
                  "type": "uint256"
                }
              ],
              "internalType": "struct AttestationRequestData",
              "name": "data",
              "type": "tuple"
            }
          ],
          "internalType": "struct AttestationRequest",
          "name": "request",
          "type": "tuple"
        }
      ],
      "name": "attest",
      "outputs": [
        {
          "internalType": "bytes32",
          "name": "",
          "type": "bytes32"
        }
      ],
      "stateMutability": "payable",
      "type": "function"
    },
    {
      "inputs": [
        {
          "components": [
            {
              "internalType": "bytes32",
              "name": "schema",
              "type": "bytes32"
            },
            {
              "components": [
                {
                  "internalType": "address",
                  "name": "recipient",
                  "type": "address"
                },
                {
                  "internalType": "uint64",
                  "name": "expirationTime",
                  "type": "uint64"
                },
                {
                  "internalType": "bool",
                  "name": "revocable",
                  "type": "bool"
                },
                {
                  "internalType": "bytes32",
                  "name": "refUID",
                  "type": "bytes32"
                },
                {
                  "internalType": "bytes",
                  "name": "data",
                  "type": "bytes"
                },
                {
                  "internalType": "uint256",
                  "name": "value",
                  "type": "uint256"
                }
              ],
              "internalType": "struct AttestationRequestData",
              "name": "data",
              "type": "tuple"
            },
            {
              "components": [
                {
                  "internalType": "uint8",
                  "name": "v",
                  "type": "uint8"
                },
                {
                  "internalType": "bytes32",
                  "name": "r",
                  "type": "bytes32"
                },
                {
                  "internalType": "bytes32",
                  "name": "s",
                  "type": "bytes32"
                }
              ],
              "internalType": "struct Signature",
              "name": "signature",
              "type": "tuple"
            },
            {
              "internalType": "address",
              "name": "attester",
              "type": "address"
            },
            {
              "internalType": "uint64",
              "name": "deadline",
              "type": "uint64"
            }
          ],
          "internalType": "struct DelegatedAttestationRequest",
          "name": "delegatedRequest",
          "type": "tuple"
        }
      ],
      "name": "attestByDelegation",
      "outputs": [
        {
          "internalType": "bytes32",
          "name": "",
          "type": "bytes32"
        }
      ],
      "stateMutability": "payable",
      "type": "function"
    },
    {
      "inputs": [],
      "name": "eip712Domain",
      "outputs": [
        {
          "internalType": "bytes1",
          "name": "fields",
          "type": "bytes1"
        },
        {
          "internalType": "string",
          "name": "name",
          "type": "string"
        },
        {
          "internalType": "string",
          "name": "version",
          "type": "string"
        },
        {
          "internalType": "uint256",
          "name": "chainId",
          "type": "uint256"
        },
        {
          "internalType": "address",
          "name": "verifyingContract",
          "type": "address"
        },
        {
          "internalType": "bytes32",
          "name": "salt",
          "type": "bytes32"
        },
        {
          "internalType": "uint256[]",
          "name": "extensions",
          "type": "uint256[]"
        }
      ],
      "stateMutability": "view",
      "type": "function"
    },
    {
      "inputs": [],
      "name": "getAttestTypeHash",
      "outputs": [
        {
          "internalType": "bytes32",
          "name": "",
          "type": "bytes32"
        }
      ],
      "stateMutability": "pure",
      "type": "function"
    },
    {
      "inputs": [
        {
          "internalType": "bytes32",
          "name": "uid",
          "type": "bytes32"
        }
      ],
      "name": "getAttestation",
      "outputs": [
        {
          "components": [
            {
              "internalType": "bytes32",
              "name": "uid",
              "type": "bytes32"
            },
            {
              "internalType": "bytes32",
              "name": "schema",
              "type": "bytes32"
            },
            {
              "internalType": "uint64",
              "name": "time",
              "type": "uint64"
            },
            {
              "internalType": "uint64",
              "name": "expirationTime",
              "type": "uint64"
            },
            {
              "internalType": "uint64",
              "name": "revocationTime",
              "type": "uint64"
            },
            {
              "internalType": "bytes32",
              "name": "refUID",
              "type": "bytes32"
            },
            {
              "internalType": "address",
              "name": "recipient",
              "type": "address"
            },
            {
              "internalType": "address",
              "name": "attester",
              "type": "address"
            },
            {
              "internalType": "bool",
              "name": "revocable",
              "type": "bool"
            },
            {
              "internalType": "bytes",
              "name": "data",
              "type": "bytes"
            }
          ],
          "internalType": "struct Attestation",
          "name": "",
          "type": "tuple"
        }
      ],
      "stateMutability": "view",
      "type": "function"
    },
    {
      "inputs": [],
      "name": "getDomainSeparator",
      "outputs": [
        {
          "internalType": "bytes32",
          "name": "",
          "type": "bytes32"
        }
      ],
      "stateMutability": "view",
      "type": "function"
    },
    {
      "inputs": [],
      "name": "getName",
      "outputs": [
        {
          "internalType": "string",
          "name": "",
          "type": "string"
        }
      ],
      "stateMutability": "view",
      "type": "function"
    },
    {
      "inputs": [
        {
          "internalType": "address",
          "name": "account",
          "type": "address"
        }
      ],
      "name": "getNonce",
      "outputs": [
        {
          "internalType": "uint256",
          "name": "",
          "type": "uint256"
        }
      ],
      "stateMutability": "view",
      "type": "function"
    },
    {
      "inputs": [
        {
          "internalType": "address",
          "name": "revoker",
          "type": "address"
        },
        {
          "internalType": "bytes32",
          "name": "data",
          "type": "bytes32"
        }
      ],
      "name": "getRevokeOffchain",
      "outputs": [
        {
          "internalType": "uint64",
          "name": "",
          "type": "uint64"
        }
      ],
      "stateMutability": "view",
      "type": "function"
    },
    {
      "inputs": [],
      "name": "getRevokeTypeHash",
      "outputs": [
        {
          "internalType": "bytes32",
          "name": "",
          "type": "bytes32"
        }
      ],
      "stateMutability": "pure",
      "type": "function"
    },
    {
      "inputs": [],
      "name": "getSchemaRegistry",
      "outputs": [
        {
          "internalType": "contract ISchemaRegistry",
          "name": "",
          "type": "address"
        }
      ],
      "stateMutability": "view",
      "type": "function"
    },
    {
      "inputs": [
        {
          "internalType": "bytes32",
          "name": "data",
          "type": "bytes32"
        }
      ],
      "name": "getTimestamp",
      "outputs": [
        {
          "internalType": "uint64",
          "name": "",
          "type": "uint64"
        }
      ],
      "stateMutability": "view",
      "type": "function"
    },
    {
      "inputs": [
        {
          "internalType": "uint256",
          "name": "newNonce",
          "type": "uint256"
        }
      ],
      "name": "increaseNonce",
      "outputs": [],
      "stateMutability": "nonpayable",
      "type": "function"
    },
    {
      "inputs": [
        {
          "internalType": "bytes32",
          "name": "uid",
          "type": "bytes32"
        }
      ],
      "name": "isAttestationValid",
      "outputs": [
        {
          "internalType": "bool",
          "name": "",
          "type": "bool"
        }
      ],
      "stateMutability": "view",
      "type": "function"
    },
    {
      "inputs": [
        {
          "components": [
            {
              "internalType": "bytes32",
              "name": "schema",
              "type": "bytes32"
            },
            {
              "components": [
                {
                  "internalType": "address",
                  "name": "recipient",
                  "type": "address"
                },
                {
                  "internalType": "uint64",
                  "name": "expirationTime",
                  "type": "uint64"
                },
                {
                  "internalType": "bool",
                  "name": "revocable",
                  "type": "bool"
                },
                {
                  "internalType": "bytes32",
                  "name": "refUID",
                  "type": "bytes32"
                },
                {
                  "internalType": "bytes",
                  "name": "data",
                  "type": "bytes"
                },
                {
                  "internalType": "uint256",
                  "name": "value",
                  "type": "uint256"
                }
              ],
              "internalType": "struct AttestationRequestData[]",
              "name": "data",
              "type": "tuple[]"
            }
          ],
          "internalType": "struct MultiAttestationRequest[]",
          "name": "multiRequests",
          "type": "tuple[]"
        }
      ],
      "name": "multiAttest",
      "outputs": [
        {
          "internalType": "bytes32[]",
          "name": "",
          "type": "bytes32[]"
        }
      ],
      "stateMutability": "payable",
      "type": "function"
    },
    {
      "inputs": [
        {
          "components": [
            {
              "internalType": "bytes32",
              "name": "schema",
              "type": "bytes32"
            },
            {
              "components": [
                {
                  "internalType": "address",
                  "name": "recipient",
                  "type": "address"
                },
                {
                  "internalType": "uint64",
                  "name": "expirationTime",
                  "type": "uint64"
                },
                {
                  "internalType": "bool",
                  "name": "revocable",
                  "type": "bool"
                },
                {
                  "internalType": "bytes32",
                  "name": "refUID",
                  "type": "bytes32"
                },
                {
                  "internalType": "bytes",
                  "name": "data",
                  "type": "bytes"
                },
                {
                  "internalType": "uint256",
                  "name": "value",
                  "type": "uint256"
                }
              ],
              "internalType": "struct AttestationRequestData[]",
              "name": "data",
              "type": "tuple[]"
            },
            {
              "components": [
                {
                  "internalType": "uint8",
                  "name": "v",
                  "type": "uint8"
                },
                {
                  "internalType": "bytes32",
                  "name": "r",
                  "type": "bytes32"
                },
                {
                  "internalType": "bytes32",
                  "name": "s",
                  "type": "bytes32"
                }
              ],
              "internalType": "struct Signature[]",
              "name": "signatures",
              "type": "tuple[]"
            },
            {
              "internalType": "address",
              "name": "attester",
              "type": "address"
            },
            {
              "internalType": "uint64",
              "name": "deadline",
              "type": "uint64"
            }
          ],
          "internalType": "struct MultiDelegatedAttestationRequest[]",
          "name": "multiDelegatedRequests",
          "type": "tuple[]"
        }
      ],
      "name": "multiAttestByDelegation",
      "outputs": [
        {
          "internalType": "bytes32[]",
          "name": "",
          "type": "bytes32[]"
        }
      ],
      "stateMutability": "payable",
      "type": "function"
    },
    {
      "inputs": [
        {
          "components": [
            {
              "internalType": "bytes32",
              "name": "schema",
              "type": "bytes32"
            },
            {
              "components": [
                {
                  "internalType": "bytes32",
                  "name": "uid",
                  "type": "bytes32"
                },
                {
                  "internalType": "uint256",
                  "name": "value",
                  "type": "uint256"
                }
              ],
              "internalType": "struct RevocationRequestData[]",
              "name": "data",
              "type": "tuple[]"
            }
          ],
          "internalType": "struct MultiRevocationRequest[]",
          "name": "multiRequests",
          "type": "tuple[]"
        }
      ],
      "name": "multiRevoke",
      "outputs": [],
      "stateMutability": "payable",
      "type": "function"
    },
    {
      "inputs": [
        {
          "components": [
            {
              "internalType": "bytes32",
              "name": "schema",
              "type": "bytes32"
            },
            {
              "components": [
                {
                  "internalType": "bytes32",
                  "name": "uid",
                  "type": "bytes32"
                },
                {
                  "internalType": "uint256",
                  "name": "value",
                  "type": "uint256"
                }
              ],
              "internalType": "struct RevocationRequestData[]",
              "name": "data",
              "type": "tuple[]"
            },
            {
              "components": [
                {
                  "internalType": "uint8",
                  "name": "v",
                  "type": "uint8"
                },
                {
                  "internalType": "bytes32",
                  "name": "r",
                  "type": "bytes32"
                },
                {
                  "internalType": "bytes32",
                  "name": "s",
                  "type": "bytes32"
                }
              ],
              "internalType": "struct Signature[]",
              "name": "signatures",
              "type": "tuple[]"
            },
            {
              "internalType": "address",
              "name": "revoker",
              "type": "address"
            },
            {
              "internalType": "uint64",
              "name": "deadline",
              "type": "uint64"
            }
          ],
          "internalType": "struct MultiDelegatedRevocationRequest[]",
          "name": "multiDelegatedRequests",
          "type": "tuple[]"
        }
      ],
      "name": "multiRevokeByDelegation",
      "outputs": [],
      "stateMutability": "payable",
      "type": "function"
    },
    {
      "inputs": [
        {
          "internalType": "bytes32[]",
          "name": "data",
          "type": "bytes32[]"
        }
      ],
      "name": "multiRevokeOffchain",
      "outputs": [
        {
          "internalType": "uint64",
          "name": "",
          "type": "uint64"
        }
      ],
      "stateMutability": "nonpayable",
      "type": "function"
    },
    {
      "inputs": [
        {
          "internalType": "bytes32[]",
          "name": "data",
          "type": "bytes32[]"
        }
      ],
      "name": "multiTimestamp",
      "outputs": [
        {
          "internalType": "uint64",
          "name": "",
          "type": "uint64"
        }
      ],
      "stateMutability": "nonpayable",
      "type": "function"
    },
    {
      "inputs": [
        {
          "components": [
            {
              "internalType": "bytes32",
              "name": "schema",
              "type": "bytes32"
            },
            {
              "components": [
                {
                  "internalType": "bytes32",
                  "name": "uid",
                  "type": "bytes32"
                },
                {
                  "internalType": "uint256",
                  "name": "value",
                  "type": "uint256"
                }
              ],
              "internalType": "struct RevocationRequestData",
              "name": "data",
              "type": "tuple"
            }
          ],
          "internalType": "struct RevocationRequest",
          "name": "request",
          "type": "tuple"
        }
      ],
      "name": "revoke",
      "outputs": [],
      "stateMutability": "payable",
      "type": "function"
    },
    {
      "inputs": [
        {
          "components": [
            {
              "internalType": "bytes32",
              "name": "schema",
              "type": "bytes32"
            },
            {
              "components": [
                {
                  "internalType": "bytes32",
                  "name": "uid",
                  "type": "bytes32"
                },
                {
                  "internalType": "uint256",
                  "name": "value",
                  "type": "uint256"
                }
              ],
              "internalType": "struct RevocationRequestData",
              "name": "data",
              "type": "tuple"
            },
            {
              "components": [
                {
                  "internalType": "uint8",
                  "name": "v",
                  "type": "uint8"
                },
                {
                  "internalType": "bytes32",
                  "name": "r",
                  "type": "bytes32"
                },
                {
                  "internalType": "bytes32",
                  "name": "s",
                  "type": "bytes32"
                }
              ],
              "internalType": "struct Signature",
              "name": "signature",
              "type": "tuple"
            },
            {
              "internalType": "address",
              "name": "revoker",
              "type": "address"
            },
            {
              "internalType": "uint64",
              "name": "deadline",
              "type": "uint64"
            }
          ],
          "internalType": "struct DelegatedRevocationRequest",
          "name": "delegatedRequest",
          "type": "tuple"
        }
      ],
      "name": "revokeByDelegation",
      "outputs": [],
      "stateMutability": "payable",
      "type": "function"
    },
    {
      "inputs": [
        {
          "internalType": "bytes32",
          "name": "data",
          "type": "bytes32"
        }
      ],
      "name": "revokeOffchain",
      "outputs": [
        {
          "internalType": "uint64",
          "name": "",
          "type": "uint64"
        }
      ],
      "stateMutability": "nonpayable",
      "type": "function"
    },
    {
      "inputs": [
        {
          "internalType": "bytes32",
          "name": "data",
          "type": "bytes32"
        }
      ],
      "name": "timestamp",
      "outputs": [
        {
          "internalType": "uint64",
          "name": "",
          "type": "uint64"
        }
      ],
      "stateMutability": "nonpayable",
      "type": "function"
    },
    {
      "inputs": [],
      "name": "version",
      "outputs": [
        {
          "internalType": "string",
          "name": "",
          "type": "string"
        }
      ],
      "stateMutability": "view",
      "type": "function"
    }
  ],
  "bytecode": {
    "object": "0x6101e06040523480156200001257600080fd5b50604051620041fc380380620041fc83398101604081905262000035916200020c565b60408051808201825260038082526245415360e81b602080840191909152835180850190945260058452640312e332e360dc1b90840152600160805260a052600060c0819052909190829082906200008f90839062000187565b61018052620000a081600162000187565b6101a052815160208084019190912061014052815190820120610160524661010052620001316101405161016051604080517f8b73c3c69bb8fe3d512ecc4cf759cc79239f7b179b0ffacaa9a75d522b39400f60208201529081019290925260608201524660808201523060a082015260009060c00160405160208183030381529060405280519060200120905090565b60e052505030610120526002620001498382620002e3565b5050506001600160a01b03811662000174576040516311a1e69760e01b815260040160405180910390fd5b6001600160a01b03166101c05262000424565b6000602083511015620001a7576200019f83620001c0565b9050620001ba565b81620001b48482620002e3565b5060ff90505b92915050565b600080829050601f81511115620001f7578260405163305a27a960e01b8152600401620001ee9190620003af565b60405180910390fd5b80516200020482620003ff565b179392505050565b6000602082840312156200021f57600080fd5b81516001600160a01b03811681146200023757600080fd5b9392505050565b634e487b7160e01b600052604160045260246000fd5b600181811c908216806200026957607f821691505b6020821081036200028a57634e487b7160e01b600052602260045260246000fd5b50919050565b601f821115620002de57600081815260208120601f850160051c81016020861015620002b95750805b601f850160051c820191505b81811015620002da57828155600101620002c5565b5050505b505050565b81516001600160401b03811115620002ff57620002ff6200023e565b620003178162000310845462000254565b8462000290565b602080601f8311600181146200034f5760008415620003365750858301515b600019600386901b1c1916600185901b178555620002da565b600085815260208120601f198616915b8281101562000380578886015182559484019460019091019084016200035f565b50858210156200039f5787850151600019600388901b60f8161c191681555b5050505050600190811b01905550565b600060208083528351808285015260005b81811015620003de57858101830151858201604001528201620003c0565b506000604082860101526040601f19601f8301168501019250505092915050565b805160208083015191908110156200028a5760001960209190910360031b1b16919050565b60805160a05160c05160e05161010051610120516101405161016051610180516101a0516101c051613d43620004b9600039600081816104de0152818161134d0152611a4101526000610c2301526000610bf9015260006122a801526000612280015260006121db015260006122050152600061222f01526000610b2101526000610af801526000610acf0152613d436000f3fe6080604052600436106101665760003560e01c806384b0196e116100d1578063cf190f341161008a578063e71ff36511610064578063e71ff3651461048f578063ed24911d146104af578063f10b5cc8146104c4578063f17325e71461050857600080fd5b8063cf190f34146103fa578063d45c44351461041a578063e30bb5631461045057600080fd5b806384b0196e146103005780639541152514610328578063a3112a641461033b578063a6d4dbc714610368578063b469318d1461037b578063b83010d3146103c757600080fd5b806344adc90e1161012357806344adc90e1461026557806346926267146102855780634cb7e9e5146102985780634d003070146102ab57806354fd4d50146102cb57806379f7573a146102e057600080fd5b80630eabf6601461016b57806312b11a171461018057806313893f61146101c257806317d7de7c146101fa5780632d0335ab1461021c5780633c04271514610252575b600080fd5b61017e610179366004612e2d565b61051b565b005b34801561018c57600080fd5b507ffeb2925a02bae3dae48d424a0437a2b6ac939aa9230ddc55a1a76f065d9880765b6040519081526020015b60405180910390f35b3480156101ce57600080fd5b506101e26101dd366004612e2d565b61066d565b6040516001600160401b0390911681526020016101b9565b34801561020657600080fd5b5061020f6106b2565b6040516101b99190612ebe565b34801561022857600080fd5b506101af610237366004612efd565b6001600160a01b031660009081526003602052604090205490565b6101af610260366004612f1a565b610744565b610278610273366004612e2d565b610829565b6040516101b99190612f54565b61017e610293366004612f98565b610972565b61017e6102a6366004612e2d565b6109f6565b3480156102b757600080fd5b506101e26102c6366004612fb0565b610abb565b3480156102d757600080fd5b5061020f610ac8565b3480156102ec57600080fd5b5061017e6102fb366004612fb0565b610b6b565b34801561030c57600080fd5b50610315610beb565b6040516101b99796959493929190613004565b610278610336366004612e2d565b610c73565b34801561034757600080fd5b5061035b610356366004612fb0565b610ea0565b6040516101b99190613130565b61017e610376366004613143565b610fe6565b34801561038757600080fd5b506101e2610396366004613156565b6001600160a01b0391909116600090815260066020908152604080832093835292905220546001600160401b031690565b3480156103d357600080fd5b507fb5d556f07587ec0f08cf386545cc4362c702a001650c2058002615ee5c9d1e756101af565b34801561040657600080fd5b506101e2610415366004612fb0565b61108b565b34801561042657600080fd5b506101e2610435366004612fb0565b6000908152600560205260409020546001600160401b031690565b34801561045c57600080fd5b5061047f61046b366004612fb0565b600090815260046020526040902054151590565b60405190151581526020016101b9565b34801561049b57600080fd5b506101e26104aa366004612e2d565b611099565b3480156104bb57600080fd5b506101af6110d1565b3480156104d057600080fd5b506040516001600160a01b037f00000000000000000000000000000000000000000000000000000000000000001681526020016101b9565b6101af610516366004613182565b6110e0565b348160005b8181101561066657600019820181146000868684818110610543576105436131bc565b905060200281019061055591906131d2565b61055e9061340b565b602081015180519192509080158061057b57508260400151518114155b156105995760405163251f56a160e21b815260040160405180910390fd5b60005b8181101561062f576106276040518060a00160405280866000015181526020018584815181106105ce576105ce6131bc565b60200260200101518152602001866040015184815181106105f1576105f16131bc565b6020026020010151815260200186606001516001600160a01b0316815260200186608001516001600160401b0316815250611180565b60010161059c565b5061064583600001518385606001518a8861132a565b61064f908861351b565b96505050505061065f8160010190565b9050610520565b5050505050565b60004282825b818110156106a65761069e33878784818110610691576106916131bc565b90506020020135856117ae565b600101610673565b50909150505b92915050565b6060600280546106c19061352e565b80601f01602080910402602001604051908101604052809291908181526020018280546106ed9061352e565b801561073a5780601f1061070f5761010080835404028352916020019161073a565b820191906000526020600020905b81548152906001019060200180831161071d57829003601f168201915b5050505050905090565b600061075761075283613664565b611861565b604080516001808252818301909252600091816020015b6040805160c081018252600080825260208083018290529282018190526060808301829052608083015260a0820152825260001990920191018161076e5790505090506107be60208401846136de565b6107c7906136f4565b816000815181106107da576107da6131bc565b60209081029190910101526108038335826107fb60c0870160a08801612efd565b3460016119b5565b60200151600081518110610819576108196131bc565b6020026020010151915050919050565b6060816000816001600160401b03811115610846576108466131f2565b60405190808252806020026020018201604052801561087957816020015b60608152602001906001900390816108645790505b509050600034815b8481101561095c5760001985018114368989848181106108a3576108a36131bc565b90506020028101906108b59190613700565b90506108c46020820182613716565b90506000036108e65760405163251f56a160e21b815260040160405180910390fd5b600061090b82356108fa6020850185613716565b6109039161375f565b3388876119b5565b805190915061091a908661351b565b94508060200151878581518110610933576109336131bc565b6020026020010181905250806020015151860195505050506109558160010190565b9050610881565b506109678383611f18565b979650505050505050565b604080516001808252818301909252600091816020015b60408051808201909152600080825260208201528152602001906001900390816109895790505090506109c4368390038301602084016137d2565b816000815181106109d7576109d76131bc565b60209081029190910101526109f18235823334600161132a565b505050565b348160005b81811015610666576000198201811436868684818110610a1d57610a1d6131bc565b9050602002810190610a2f9190613700565b9050610a9c8135610a4360208401846137ee565b808060200260200160405190810160405280939291908181526020016000905b82821015610a8f57610a80604083028601368190038101906137d2565b81526020019060010190610a63565b505050505033888661132a565b610aa6908661351b565b94505050610ab48160010190565b90506109fb565b6000426106ac8382612001565b6060610af37f0000000000000000000000000000000000000000000000000000000000000000612091565b610b1c7f0000000000000000000000000000000000000000000000000000000000000000612091565b610b457f0000000000000000000000000000000000000000000000000000000000000000612091565b604051602001610b5793929190613837565b604051602081830303815290604052905090565b33600090815260036020526040902054808211610b9b57604051633ab3447f60e11b815260040160405180910390fd5b3360009081526003602090815260409182902084905581518381529081018490527f57b09af877df9068fd60a69d7b21f5576b8b38955812d6ae4ac52942f1e38fb7910160405180910390a15050565b600060608082808083610c1e7f000000000000000000000000000000000000000000000000000000000000000083612123565b610c497f00000000000000000000000000000000000000000000000000000000000000006001612123565b60408051600080825260208201909252600f60f81b9b939a50919850469750309650945092509050565b6060816000816001600160401b03811115610c9057610c906131f2565b604051908082528060200260200182016040528015610cc357816020015b6060815260200190600190039081610cae5790505b509050600034815b8481101561095c576000198501811436898984818110610ced57610ced6131bc565b9050602002810190610cff91906131d2565b9050366000610d116020840184613716565b909250905080801580610d325750610d2c6040850185613891565b90508114155b15610d505760405163251f56a160e21b815260040160405180910390fd5b60005b81811015610e2357610e1b6040518060a0016040528087600001358152602001868685818110610d8557610d856131bc565b9050602002810190610d9791906136de565b610da0906136f4565b8152602001610db26040890189613891565b85818110610dc257610dc26131bc565b905060600201803603810190610dd891906138d9565b8152602001610ded6080890160608a01612efd565b6001600160a01b03168152602001610e0b60a0890160808a016138f5565b6001600160401b03169052611861565b600101610d53565b506000610e4c8535610e35858761375f565b610e456080890160608a01612efd565b8b8a6119b5565b8051909150610e5b908961351b565b975080602001518a8881518110610e7457610e746131bc565b602002602001018190525080602001515189019850505050505050610e998160010190565b9050610ccb565b610ea8612d93565b6000828152600460208181526040928390208351610140810185528154815260018201549281019290925260028101546001600160401b0380821695840195909552600160401b810485166060840152600160801b90049093166080820152600383015460a0820152908201546001600160a01b0390811660c0830152600583015490811660e0830152600160a01b900460ff16151561010082015260068201805491929161012084019190610f5d9061352e565b80601f0160208091040260200160405190810160405280929190818152602001828054610f899061352e565b8015610fd65780601f10610fab57610100808354040283529160200191610fd6565b820191906000526020600020905b815481529060010190602001808311610fb957829003601f168201915b5050505050815250509050919050565b610ffd610ff836839003830183613910565b611180565b604080516001808252818301909252600091816020015b604080518082019091526000808252602082015281526020019060019003908161101457905050905061104f368390038301602084016137d2565b81600081518110611062576110626131bc565b60209081029190910101526109f182358261108360e0860160c08701612efd565b34600161132a565b6000426106ac3384836117ae565b60004282825b818110156106a6576110c98686838181106110bc576110bc6131bc565b9050602002013584612001565b60010161109f565b60006110db6121ce565b905090565b604080516001808252818301909252600091829190816020015b6040805160c081018252600080825260208083018290529282018190526060808301829052608083015260a082015282526000199092019101816110fa57905050905061114a60208401846136de565b611153906136f4565b81600081518110611166576111666131bc565b6020908102919091010152610803833582333460016119b5565b60808101516001600160401b0316158015906111b15750426001600160401b031681608001516001600160401b0316105b156111cf57604051631ab7da6b60e01b815260040160405180910390fd5b602080820151604080840151606085015185518451858701516001600160a01b0384166000908152600390985294872080549697949694956112a9957fb5d556f07587ec0f08cf386545cc4362c702a001650c2058002615ee5c9d1e75959493928861123a8361397e565b909155506080808c01516040805160208101999099526001600160a01b039097169688019690965260608701949094529285019190915260a084015260c08301526001600160401b031660e0820152610100015b604051602081830303815290604052805190602001206122f9565b90506113078460600151828460200151856040015186600001516040516020016112f393929190928352602083019190915260f81b6001600160f81b031916604082015260410190565b604051602081830303815290604052612326565b61132457604051638baa579f60e01b815260040160405180910390fd5b50505050565b6040516351753e3760e11b81526004810186905260009081906001600160a01b037f0000000000000000000000000000000000000000000000000000000000000000169063a2ea7c6e90602401600060405180830381865afa158015611394573d6000803e3d6000fd5b505050506040513d6000823e601f3d908101601f191682016040526113bc9190810190613997565b80519091506113de57604051635f9bd90760e11b815260040160405180910390fd5b85516000816001600160401b038111156113fa576113fa6131f2565b60405190808252806020026020018201604052801561143357816020015b611420612d93565b8152602001906001900390816114185790505b5090506000826001600160401b03811115611450576114506131f2565b604051908082528060200260200182016040528015611479578160200160208202803683370190505b50905060005b838110156117905760008a828151811061149b5761149b6131bc565b60209081029190910181015180516000908152600490925260409091208054919250906114db5760405163c5723b5160e01b815260040160405180910390fd5b8c8160010154146114ff57604051635f9bd90760e11b815260040160405180910390fd5b60058101546001600160a01b038c811691161461152f57604051634ca8886760e01b815260040160405180910390fd5b6005810154600160a01b900460ff1661155b5760405163157bd4c360e01b815260040160405180910390fd5b6002810154600160801b90046001600160401b03161561158e5760405163905e710760e01b815260040160405180910390fd5b4260028201805467ffffffffffffffff60801b198116600160801b6001600160401b03948516810291821793849055604080516101408101825287548152600188015460208201529386169286169290921791830191909152600160401b8304841660608301529091049091166080820152600382015460a082015260048201546001600160a01b0390811660c0830152600583015490811660e0830152600160a01b900460ff16151561010082015260068201805483916101208401916116559061352e565b80601f01602080910402602001604051908101604052809291908181526020018280546116819061352e565b80156116ce5780601f106116a3576101008083540402835291602001916116ce565b820191906000526020600020905b8154815290600101906020018083116116b157829003601f168201915b5050505050815250508584815181106116e9576116e96131bc565b6020026020010181905250816020015184848151811061170b5761170b6131bc565b6020026020010181815250508c8b6001600160a01b0316868581518110611734576117346131bc565b602002602001015160c001516001600160a01b03167ff930a6e2523c9cc298691873087a740550b8fc85a0680830414c148ed927f615856000015160405161177e91815260200190565b60405180910390a4505060010161147f565b506117a084838360018b8b612387565b9a9950505050505050505050565b6001600160a01b038316600090815260066020908152604080832085845291829052909120546001600160401b0316156117fb5760405163ec9d6eeb60e01b815260040160405180910390fd5b600083815260208290526040808220805467ffffffffffffffff19166001600160401b0386169081179091559051909185916001600160a01b038816917f92a1f7a41a7c585a8b09e25b195e225b1d43248daca46b0faf9e0792777a222991a450505050565b60808101516001600160401b0316158015906118925750426001600160401b031681608001516001600160401b0316105b156118b057604051631ab7da6b60e01b815260040160405180910390fd5b6020808201516040808401516060808601518651855186880151868801519488015160808901518051908b012060a08a01516001600160a01b03871660009081526003909c52988b2080549a9b989a98996112a9997ffeb2925a02bae3dae48d424a0437a2b6ac939aa9230ddc55a1a76f065d988076999493928c6119348361397e565b919050558e6080015160405160200161128e9b9a999897969594939291909a8b526001600160a01b03998a1660208c015260408b01989098529590971660608901526001600160401b03938416608089015291151560a088015260c087015260e0860152610100850193909352610120840152166101408201526101600190565b6040805180820190915260008152606060208201528451604080518082019091526000815260606020820152816001600160401b038111156119f9576119f96131f2565b604051908082528060200260200182016040528015611a22578160200160208202803683370190505b5060208201526040516351753e3760e11b8152600481018990526000907f00000000000000000000000000000000000000000000000000000000000000006001600160a01b03169063a2ea7c6e90602401600060405180830381865afa158015611a90573d6000803e3d6000fd5b505050506040513d6000823e601f3d908101601f19168201604052611ab89190810190613997565b8051909150611ada57604051635f9bd90760e11b815260040160405180910390fd5b6000836001600160401b03811115611af457611af46131f2565b604051908082528060200260200182016040528015611b2d57816020015b611b1a612d93565b815260200190600190039081611b125790505b5090506000846001600160401b03811115611b4a57611b4a6131f2565b604051908082528060200260200182016040528015611b73578160200160208202803683370190505b50905060005b85811015611ef75760008b8281518110611b9557611b956131bc565b6020026020010151905060006001600160401b031681602001516001600160401b031614158015611bdc5750426001600160401b031681602001516001600160401b031611155b15611bfa576040516308e8b93760e01b815260040160405180910390fd5b8460400151158015611c0d575080604001515b15611c2b5760405163157bd4c360e01b815260040160405180910390fd5b60006040518061014001604052806000801b81526020018f8152602001611c4f4290565b6001600160401b0316815260200183602001516001600160401b0316815260200160006001600160401b031681526020018360600151815260200183600001516001600160a01b031681526020018d6001600160a01b0316815260200183604001511515815260200183608001518152509050600080600090505b611cd48382612693565b60008181526004602052604090205490925015611cf357600101611cca565b8183526000828152600460208181526040928390208651815590860151600182015591850151600283018054606088015160808901516001600160401b03908116600160801b0267ffffffffffffffff60801b19928216600160401b026fffffffffffffffffffffffffffffffff199094169190951617919091171691909117905560a0850151600383015560c085015190820180546001600160a01b039283166001600160a01b031990911617905560e08501516005830180546101008801511515600160a01b026001600160a81b031990911692909316919091179190911790556101208401518491906006820190611dee9082613abc565b505050606084015115611e2c576060840151600090815260046020526040902054611e2c5760405163c5723b5160e01b815260040160405180910390fd5b82878681518110611e3f57611e3f6131bc565b60200260200101819052508360a00151868681518110611e6157611e616131bc565b6020026020010181815250508189602001518681518110611e8457611e846131bc565b6020026020010181815250508f8e6001600160a01b031685600001516001600160a01b03167f8bf46bf4cfd674fa735a3d63ec1c9ad4153f033c290341f3a588b75685141b3585604051611eda91815260200190565b60405180910390a450505050611ef08160010190565b9050611b79565b50611f0783838360008c8c612387565b845250919998505050505050505050565b60606000826001600160401b03811115611f3457611f346131f2565b604051908082528060200260200182016040528015611f5d578160200160208202803683370190505b508451909150600090815b81811015611ff6576000878281518110611f8457611f846131bc565b6020026020010151905060008151905060005b81811015611fe257828181518110611fb157611fb16131bc565b6020026020010151878781518110611fcb57611fcb6131bc565b602090810291909101015260019586019501611f97565b505050611fef8160010190565b9050611f68565b509195945050505050565b6000828152600560205260409020546001600160401b031615612037576040516317133ca360e11b815260040160405180910390fd5b600082815260056020526040808220805467ffffffffffffffff19166001600160401b0385169081179091559051909184917f5aafceeb1c7ad58e4a84898bdee37c02c0fc46e7d24e6b60e8209449f183459f9190a35050565b6060600061209e836126f2565b60010190506000816001600160401b038111156120bd576120bd6131f2565b6040519080825280601f01601f1916602001820160405280156120e7576020820181803683370190505b5090508181016020015b600019016f181899199a1a9b1b9c1cb0b131b232b360811b600a86061a8153600a85049450846120f157509392505050565b606060ff831461213d57612136836127ca565b90506106ac565b8180546121499061352e565b80601f01602080910402602001604051908101604052809291908181526020018280546121759061352e565b80156121c25780601f10612197576101008083540402835291602001916121c2565b820191906000526020600020905b8154815290600101906020018083116121a557829003601f168201915b505050505090506106ac565b6000306001600160a01b037f00000000000000000000000000000000000000000000000000000000000000001614801561222757507f000000000000000000000000000000000000000000000000000000000000000046145b1561225157507f000000000000000000000000000000000000000000000000000000000000000090565b6110db604080517f8b73c3c69bb8fe3d512ecc4cf759cc79239f7b179b0ffacaa9a75d522b39400f60208201527f0000000000000000000000000000000000000000000000000000000000000000918101919091527f000000000000000000000000000000000000000000000000000000000000000060608201524660808201523060a082015260009060c00160405160208183030381529060405280519060200120905090565b60006106ac6123066121ce565b8360405161190160f01b8152600281019290925260228201526042902090565b60008060006123358585612809565b9092509050600081600481111561234e5761234e613b7b565b14801561236c5750856001600160a01b0316826001600160a01b0316145b8061237d575061237d86868661284e565b9695505050505050565b845160009060018190036123df576123d788886000815181106123ac576123ac6131bc565b6020026020010151886000815181106123c7576123c76131bc565b602002602001015188888861293a565b91505061237d565b60208801516001600160a01b03811661245a5760005b8281101561243f5787818151811061240f5761240f6131bc565b602002602001015160001461243757604051631574f9f360e01b815260040160405180910390fd5b6001016123f5565b50831561244f5761244f85612b76565b60009250505061237d565b600080826001600160a01b031663ce46e0466040518163ffffffff1660e01b8152600401602060405180830381865afa15801561249b573d6000803e3d6000fd5b505050506040513d601f19601f820116820180604052508101906124bf9190613b91565b905060005b8481101561254a5760008a82815181106124e0576124e06131bc565b60200260200101519050806000036124f85750612542565b8261251657604051631574f9f360e01b815260040160405180910390fd5b888111156125375760405163044044a560e21b815260040160405180910390fd5b978890039792909201915b6001016124c4565b5087156125e6576040516388e5b2d960e01b81526001600160a01b038416906388e5b2d9908490612581908e908e90600401613bae565b60206040518083038185885af115801561259f573d6000803e3d6000fd5b50505050506040513d601f19601f820116820180604052508101906125c49190613b91565b6125e15760405163bf2f3a8b60e01b815260040160405180910390fd5b612676565b6040516348ed85bf60e11b81526001600160a01b038416906391db0b7e908490612616908e908e90600401613bae565b60206040518083038185885af1158015612634573d6000803e3d6000fd5b50505050506040513d601f19601f820116820180604052508101906126599190613b91565b6126765760405163e8bee83960e01b815260040160405180910390fd5b85156126855761268587612b76565b509998505050505050505050565b60208083015160c084015160e0850151604080870151606088015161010089015160a08a01516101208b015194516000996126d499989796918c9101613c24565b60405160208183030381529060405280519060200120905092915050565b60008072184f03e93ff9f4daa797ed6e38ed64bf6a1f0160401b83106127315772184f03e93ff9f4daa797ed6e38ed64bf6a1f0160401b830492506040015b6d04ee2d6d415b85acef8100000000831061275d576d04ee2d6d415b85acef8100000000830492506020015b662386f26fc10000831061277b57662386f26fc10000830492506010015b6305f5e1008310612793576305f5e100830492506008015b61271083106127a757612710830492506004015b606483106127b9576064830492506002015b600a83106106ac5760010192915050565b606060006127d783612b89565b604080516020808252818301909252919250600091906020820181803683375050509182525060208101929092525090565b600080825160410361283f5760208301516040840151606085015160001a61283387828585612bb1565b94509450505050612847565b506000905060025b9250929050565b6000806000856001600160a01b0316631626ba7e60e01b8686604051602401612878929190613cc1565b60408051601f198184030181529181526020820180516001600160e01b03166001600160e01b03199094169390931790925290516128b69190613ce2565b600060405180830381855afa9150503d80600081146128f1576040519150601f19603f3d011682016040523d82523d6000602084013e6128f6565b606091505b509150915081801561290a57506020815110155b801561237d57508051630b135d3f60e11b9061292f9083016020908101908401613cf4565b149695505050505050565b60208601516000906001600160a01b03811661298857851561296f57604051631574f9f360e01b815260040160405180910390fd5b821561297e5761297e84612b76565b600091505061237d565b8515612a3457806001600160a01b031663ce46e0466040518163ffffffff1660e01b8152600401602060405180830381865afa1580156129cc573d6000803e3d6000fd5b505050506040513d601f19601f820116820180604052508101906129f09190613b91565b612a0d57604051631574f9f360e01b815260040160405180910390fd5b83861115612a2e5760405163044044a560e21b815260040160405180910390fd5b85840393505b8415612acd5760405163e49617e160e01b81526001600160a01b0382169063e49617e1908890612a68908b90600401613130565b60206040518083038185885af1158015612a86573d6000803e3d6000fd5b50505050506040513d601f19601f82011682018060405250810190612aab9190613b91565b612ac85760405163ccf3bb2760e01b815260040160405180910390fd5b612b5b565b60405163e60c350560e01b81526001600160a01b0382169063e60c3505908890612afb908b90600401613130565b60206040518083038185885af1158015612b19573d6000803e3d6000fd5b50505050506040513d601f19601f82011682018060405250810190612b3e9190613b91565b612b5b5760405163bd8ba84d60e01b815260040160405180910390fd5b8215612b6a57612b6a84612b76565b50939695505050505050565b8015612b8657612b863382612c75565b50565b600060ff8216601f8111156106ac57604051632cd44ac360e21b815260040160405180910390fd5b6000807f7fffffffffffffffffffffffffffffff5d576e7357a4501ddfe92f46681b20a0831115612be85750600090506003612c6c565b6040805160008082526020820180845289905260ff881692820192909252606081018690526080810185905260019060a0016020604051602081039080840390855afa158015612c3c573d6000803e3d6000fd5b5050604051601f1901519150506001600160a01b038116612c6557600060019250925050612c6c565b9150600090505b94509492505050565b80471015612cca5760405162461bcd60e51b815260206004820152601d60248201527f416464726573733a20696e73756666696369656e742062616c616e636500000060448201526064015b60405180910390fd5b6000826001600160a01b03168260405160006040518083038185875af1925050503d8060008114612d17576040519150601f19603f3d011682016040523d82523d6000602084013e612d1c565b606091505b50509050806109f15760405162461bcd60e51b815260206004820152603a60248201527f416464726573733a20756e61626c6520746f2073656e642076616c75652c207260448201527f6563697069656e74206d617920686176652072657665727465640000000000006064820152608401612cc1565b604080516101408101825260008082526020820181905291810182905260608082018390526080820183905260a0820183905260c0820183905260e0820183905261010082019290925261012081019190915290565b60008083601f840112612dfb57600080fd5b5081356001600160401b03811115612e1257600080fd5b6020830191508360208260051b850101111561284757600080fd5b60008060208385031215612e4057600080fd5b82356001600160401b03811115612e5657600080fd5b612e6285828601612de9565b90969095509350505050565b60005b83811015612e89578181015183820152602001612e71565b50506000910152565b60008151808452612eaa816020860160208601612e6e565b601f01601f19169290920160200192915050565b602081526000612ed16020830184612e92565b9392505050565b6001600160a01b0381168114612b8657600080fd5b8035612ef881612ed8565b919050565b600060208284031215612f0f57600080fd5b8135612ed181612ed8565b600060208284031215612f2c57600080fd5b81356001600160401b03811115612f4257600080fd5b820160e08185031215612ed157600080fd5b6020808252825182820181905260009190848201906040850190845b81811015612f8c57835183529284019291840191600101612f70565b50909695505050505050565b600060608284031215612faa57600080fd5b50919050565b600060208284031215612fc257600080fd5b5035919050565b600081518084526020808501945080840160005b83811015612ff957815187529582019590820190600101612fdd565b509495945050505050565b60ff60f81b8816815260e06020820152600061302360e0830189612e92565b82810360408401526130358189612e92565b606084018890526001600160a01b038716608085015260a0840186905283810360c085015290506117a08185612fc9565b60006101408251845260208301516020850152604083015161309360408601826001600160401b03169052565b5060608301516130ae60608601826001600160401b03169052565b5060808301516130c960808601826001600160401b03169052565b5060a083015160a085015260c08301516130ee60c08601826001600160a01b03169052565b5060e083015161310960e08601826001600160a01b03169052565b50610100838101511515908501526101208084015181860183905261237d83870182612e92565b602081526000612ed16020830184613066565b60006101008284031215612faa57600080fd5b6000806040838503121561316957600080fd5b823561317481612ed8565b946020939093013593505050565b60006020828403121561319457600080fd5b81356001600160401b038111156131aa57600080fd5b820160408185031215612ed157600080fd5b634e487b7160e01b600052603260045260246000fd5b60008235609e198336030181126131e857600080fd5b9190910192915050565b634e487b7160e01b600052604160045260246000fd5b60405160a081016001600160401b038111828210171561322a5761322a6131f2565b60405290565b60405160c081016001600160401b038111828210171561322a5761322a6131f2565b604051608081016001600160401b038111828210171561322a5761322a6131f2565b604051601f8201601f191681016001600160401b038111828210171561329c5761329c6131f2565b604052919050565b60006001600160401b038211156132bd576132bd6131f2565b5060051b60200190565b6000604082840312156132d957600080fd5b604051604081018181106001600160401b03821117156132fb576132fb6131f2565b604052823581526020928301359281019290925250919050565b60006060828403121561332757600080fd5b604051606081018181106001600160401b0382111715613349576133496131f2565b604052905080823560ff8116811461336057600080fd5b8082525060208301356020820152604083013560408201525092915050565b600082601f83011261339057600080fd5b813560206133a56133a0836132a4565b613274565b828152606092830285018201928282019190878511156133c457600080fd5b8387015b858110156133e7576133da8982613315565b84529284019281016133c8565b5090979650505050505050565b80356001600160401b0381168114612ef857600080fd5b600060a0823603121561341d57600080fd5b613425613208565b823581526020808401356001600160401b038082111561344457600080fd5b9085019036601f83011261345757600080fd5b81356134656133a0826132a4565b81815260069190911b8301840190848101903683111561348457600080fd5b938501935b828510156134ad5761349b36866132c7565b82528582019150604085019450613489565b808688015250505060408601359250808311156134c957600080fd5b50506134d73682860161337f565b6040830152506134e960608401612eed565b60608201526134fa608084016133f4565b608082015292915050565b634e487b7160e01b600052601160045260246000fd5b818103818111156106ac576106ac613505565b600181811c9082168061354257607f821691505b602082108103612faa57634e487b7160e01b600052602260045260246000fd5b8015158114612b8657600080fd5b60006001600160401b03821115613589576135896131f2565b50601f01601f191660200190565b600060c082840312156135a957600080fd5b6135b1613230565b905081356135be81612ed8565b815260206135cd8382016133f4565b8183015260408301356135df81613562565b60408301526060838101359083015260808301356001600160401b0381111561360757600080fd5b8301601f8101851361361857600080fd5b80356136266133a082613570565b818152868483850101111561363a57600080fd5b818484018583013760008483830101528060808601525050505060a082013560a082015292915050565b600060e0823603121561367657600080fd5b61367e613208565b8235815260208301356001600160401b0381111561369b57600080fd5b6136a736828601613597565b6020830152506136ba3660408501613315565b604082015260a08301356136cd81612ed8565b60608201526134fa60c084016133f4565b6000823560be198336030181126131e857600080fd5b60006106ac3683613597565b60008235603e198336030181126131e857600080fd5b6000808335601e1984360301811261372d57600080fd5b8301803591506001600160401b0382111561374757600080fd5b6020019150600581901b360382131561284757600080fd5b600061376d6133a0846132a4565b80848252602080830192508560051b85013681111561378b57600080fd5b855b818110156137c65780356001600160401b038111156137ac5760008081fd5b6137b836828a01613597565b86525093820193820161378d565b50919695505050505050565b6000604082840312156137e457600080fd5b612ed183836132c7565b6000808335601e1984360301811261380557600080fd5b8301803591506001600160401b0382111561381f57600080fd5b6020019150600681901b360382131561284757600080fd5b60008451613849818460208901612e6e565b8083019050601760f91b8082528551613869816001850160208a01612e6e565b60019201918201528351613884816002840160208801612e6e565b0160020195945050505050565b6000808335601e198436030181126138a857600080fd5b8301803591506001600160401b038211156138c257600080fd5b602001915060608102360382131561284757600080fd5b6000606082840312156138eb57600080fd5b612ed18383613315565b60006020828403121561390757600080fd5b612ed1826133f4565b6000610100828403121561392357600080fd5b61392b613208565b8235815261393c84602085016132c7565b602082015261394e8460608501613315565b604082015260c083013561396181612ed8565b606082015261397260e084016133f4565b60808201529392505050565b60006001820161399057613990613505565b5060010190565b600060208083850312156139aa57600080fd5b82516001600160401b03808211156139c157600080fd5b90840190608082870312156139d557600080fd5b6139dd613252565b82518152838301516139ee81612ed8565b818501526040830151613a0081613562565b6040820152606083015182811115613a1757600080fd5b80840193505086601f840112613a2c57600080fd5b82519150613a3c6133a083613570565b8281528785848601011115613a5057600080fd5b613a5f83868301878701612e6e565b60608201529695505050505050565b601f8211156109f157600081815260208120601f850160051c81016020861015613a955750805b601f850160051c820191505b81811015613ab457828155600101613aa1565b505050505050565b81516001600160401b03811115613ad557613ad56131f2565b613ae981613ae3845461352e565b84613a6e565b602080601f831160018114613b1e5760008415613b065750858301515b600019600386901b1c1916600185901b178555613ab4565b600085815260208120601f198616915b82811015613b4d57888601518255948401946001909101908401613b2e565b5085821015613b6b5787850151600019600388901b60f8161c191681555b5050505050600190811b01905550565b634e487b7160e01b600052602160045260246000fd5b600060208284031215613ba357600080fd5b8151612ed181613562565b6000604082016040835280855180835260608501915060608160051b8601019250602080880160005b83811015613c0557605f19888703018552613bf3868351613066565b95509382019390820190600101613bd7565b505085840381870152505050613c1b8185612fc9565b95945050505050565b89815260006bffffffffffffffffffffffff19808b60601b166020840152808a60601b166034840152506001600160401b0360c01b808960c01b166048840152808860c01b1660508401525085151560f81b60588301528460598301528351613c94816079850160208801612e6e565b60e09390931b6001600160e01b03191660799290930191820192909252607d019998505050505050505050565b828152604060208201526000613cda6040830184612e92565b949350505050565b600082516131e8818460208701612e6e565b600060208284031215613d0657600080fd5b505191905056fea26469706673582212200a35d4575ffa2a498e620210069989b0d0d0e8aaf1d1a58b1ec9ad0481c9594664736f6c63430008130033",
    "linkReferences": {}
  },
  "methodIdentifiers": {
    "attest((bytes32,(address,uint64,bool,bytes32,bytes,uint256)))": "f17325e7",
    "attestByDelegation((bytes32,(address,uint64,bool,bytes32,bytes,uint256),(uint8,bytes32,bytes32),address,uint64))": "3c042715",
    "eip712Domain()": "84b0196e",
    "getAttestTypeHash()": "12b11a17",
    "getAttestation(bytes32)": "a3112a64",
    "getDomainSeparator()": "ed24911d",
    "getName()": "17d7de7c",
    "getNonce(address)": "2d0335ab",
    "getRevokeOffchain(address,bytes32)": "b469318d",
    "getRevokeTypeHash()": "b83010d3",
    "getSchemaRegistry()": "f10b5cc8",
    "getTimestamp(bytes32)": "d45c4435",
    "increaseNonce(uint256)": "79f7573a",
    "isAttestationValid(bytes32)": "e30bb563",
    "multiAttest((bytes32,(address,uint64,bool,bytes32,bytes,uint256)[])[])": "44adc90e",
    "multiAttestByDelegation((bytes32,(address,uint64,bool,bytes32,bytes,uint256)[],(uint8,bytes32,bytes32)[],address,uint64)[])": "95411525",
    "multiRevoke((bytes32,(bytes32,uint256)[])[])": "4cb7e9e5",
    "multiRevokeByDelegation((bytes32,(bytes32,uint256)[],(uint8,bytes32,bytes32)[],address,uint64)[])": "0eabf660",
    "multiRevokeOffchain(bytes32[])": "13893f61",
    "multiTimestamp(bytes32[])": "e71ff365",
    "revoke((bytes32,(bytes32,uint256)))": "46926267",
    "revokeByDelegation((bytes32,(bytes32,uint256),(uint8,bytes32,bytes32),address,uint64))": "a6d4dbc7",
    "revokeOffchain(bytes32)": "cf190f34",
    "timestamp(bytes32)": "4d003070",
    "version()": "54fd4d50"
  },
  "id": 34
}