{
  "abi": [
    {
      "inputs": [
        {
          "internalType": "contract IEAS",
          "name": "eas",
          "type": "address"
        }
      ],
      "stateMutability": "nonpayable",
      "type": "constructor"
    },
    {
      "inputs": [],
      "name": "AccessDenied",
      "type": "error"
    },
    {
      "inputs": [],
      "name": "InsufficientValue",
      "type": "error"
    },
    {
      "inputs": [],
      "name": "InvalidEAS",
      "type": "error"
    },
    {
      "inputs": [],
      "name": "InvalidLength",
      "type": "error"
    },
    {
      "inputs": [],
      "name": "NotPayable",
      "type": "error"
    },
    {
      "inputs": [],
      "name": "OutOfBounds",
      "type": "error"
    },
    {
      "inputs": [
        {
          "components": [
            {
              "internalType": "bytes32",
              "name": "uid",
              "type": "bytes32"
            },
            {
              "internalType": "bytes32",
              "name": "schema",
              "type": "bytes32"
            },
            {
              "internalType": "uint64",
              "name": "time",
              "type": "uint64"
            },
            {
              "internalType": "uint64",
              "name": "expirationTime",
              "type": "uint64"
            },
            {
              "internalType": "uint64",
              "name": "revocationTime",
              "type": "uint64"
            },
            {
              "internalType": "bytes32",
              "name": "refUID",
              "type": "bytes32"
            },
            {
              "internalType": "address",
              "name": "recipient",
              "type": "address"
            },
            {
              "internalType": "address",
              "name": "attester",
              "type": "address"
            },
            {
              "internalType": "bool",
              "name": "revocable",
              "type": "bool"
            },
            {
              "internalType": "bytes",
              "name": "data",
              "type": "bytes"
            }
          ],
          "internalType": "struct Attestation",
          "name": "attestation",
          "type": "tuple"
        }
      ],
      "name": "attest",
      "outputs": [
        {
          "internalType": "bool",
          "name": "",
          "type": "bool"
        }
      ],
      "stateMutability": "payable",
      "type": "function"
    },
    {
      "inputs": [],
      "name": "isPayable",
      "outputs": [
        {
          "internalType": "bool",
          "name": "",
          "type": "bool"
        }
      ],
      "stateMutability": "pure",
      "type": "function"
    },
    {
      "inputs": [
        {
          "components": [
            {
              "internalType": "bytes32",
              "name": "uid",
              "type": "bytes32"
            },
            {
              "internalType": "bytes32",
              "name": "schema",
              "type": "bytes32"
            },
            {
              "internalType": "uint64",
              "name": "time",
              "type": "uint64"
            },
            {
              "internalType": "uint64",
              "name": "expirationTime",
              "type": "uint64"
            },
            {
              "internalType": "uint64",
              "name": "revocationTime",
              "type": "uint64"
            },
            {
              "internalType": "bytes32",
              "name": "refUID",
              "type": "bytes32"
            },
            {
              "internalType": "address",
              "name": "recipient",
              "type": "address"
            },
            {
              "internalType": "address",
              "name": "attester",
              "type": "address"
            },
            {
              "internalType": "bool",
              "name": "revocable",
              "type": "bool"
            },
            {
              "internalType": "bytes",
              "name": "data",
              "type": "bytes"
            }
          ],
          "internalType": "struct Attestation[]",
          "name": "attestations",
          "type": "tuple[]"
        },
        {
          "internalType": "uint256[]",
          "name": "values",
          "type": "uint256[]"
        }
      ],
      "name": "multiAttest",
      "outputs": [
        {
          "internalType": "bool",
          "name": "",
          "type": "bool"
        }
      ],
      "stateMutability": "payable",
      "type": "function"
    },
    {
      "inputs": [
        {
          "components": [
            {
              "internalType": "bytes32",
              "name": "uid",
              "type": "bytes32"
            },
            {
              "internalType": "bytes32",
              "name": "schema",
              "type": "bytes32"
            },
            {
              "internalType": "uint64",
              "name": "time",
              "type": "uint64"
            },
            {
              "internalType": "uint64",
              "name": "expirationTime",
              "type": "uint64"
            },
            {
              "internalType": "uint64",
              "name": "revocationTime",
              "type": "uint64"
            },
            {
              "internalType": "bytes32",
              "name": "refUID",
              "type": "bytes32"
            },
            {
              "internalType": "address",
              "name": "recipient",
              "type": "address"
            },
            {
              "internalType": "address",
              "name": "attester",
              "type": "address"
            },
            {
              "internalType": "bool",
              "name": "revocable",
              "type": "bool"
            },
            {
              "internalType": "bytes",
              "name": "data",
              "type": "bytes"
            }
          ],
          "internalType": "struct Attestation[]",
          "name": "attestations",
          "type": "tuple[]"
        },
        {
          "internalType": "uint256[]",
          "name": "values",
          "type": "uint256[]"
        }
      ],
      "name": "multiRevoke",
      "outputs": [
        {
          "internalType": "bool",
          "name": "",
          "type": "bool"
        }
      ],
      "stateMutability": "payable",
      "type": "function"
    },
    {
      "inputs": [
        {
          "components": [
            {
              "internalType": "bytes32",
              "name": "uid",
              "type": "bytes32"
            },
            {
              "internalType": "bytes32",
              "name": "schema",
              "type": "bytes32"
            },
            {
              "internalType": "uint64",
              "name": "time",
              "type": "uint64"
            },
            {
              "internalType": "uint64",
              "name": "expirationTime",
              "type": "uint64"
            },
            {
              "internalType": "uint64",
              "name": "revocationTime",
              "type": "uint64"
            },
            {
              "internalType": "bytes32",
              "name": "refUID",
              "type": "bytes32"
            },
            {
              "internalType": "address",
              "name": "recipient",
              "type": "address"
            },
            {
              "internalType": "address",
              "name": "attester",
              "type": "address"
            },
            {
              "internalType": "bool",
              "name": "revocable",
              "type": "bool"
            },
            {
              "internalType": "bytes",
              "name": "data",
              "type": "bytes"
            }
          ],
          "internalType": "struct Attestation",
          "name": "attestation",
          "type": "tuple"
        }
      ],
      "name": "revoke",
      "outputs": [
        {
          "internalType": "bool",
          "name": "",
          "type": "bool"
        }
      ],
      "stateMutability": "payable",
      "type": "function"
    },
    {
      "inputs": [
        {
          "internalType": "bytes",
          "name": "data",
          "type": "bytes"
        },
        {
          "internalType": "uint256",
          "name": "start",
          "type": "uint256"
        }
      ],
      "name": "toBytes32",
      "outputs": [
        {
          "internalType": "bytes32",
          "name": "",
          "type": "bytes32"
        }
      ],
      "stateMutability": "pure",
      "type": "function"
    },
    {
      "inputs": [],
      "name": "version",
      "outputs": [
        {
          "internalType": "string",
          "name": "",
          "type": "string"
        }
      ],
      "stateMutability": "view",
      "type": "function"
    },
    {
      "stateMutability": "payable",
      "type": "receive"
    }
  ],
  "bytecode": {
    "object": "0x61010060405234801561001157600080fd5b50604051610abb380380610abb83398101604081905261003091610079565b6001608052600360a052600060c052806001600160a01b038116610067576040516341bc07ff60e11b815260040160405180910390fd5b6001600160a01b031660e052506100a9565b60006020828403121561008b57600080fd5b81516001600160a01b03811681146100a257600080fd5b9392505050565b60805160a05160c05160e0516109d26100e96000396000818161046901526104b5015260006101b9015260006101900152600061016701526109d26000f3fe6080604052600436106100745760003560e01c806399dd9bd71161004e57806399dd9bd7146100f8578063ce46e04614610126578063e49617e11461013a578063e60c35051461014d57600080fd5b806354fd4d501461009757806388e5b2d9146100c257806391db0b7e146100e557600080fd5b3661009257604051631574f9f360e01b815260040160405180910390fd5b600080fd5b3480156100a357600080fd5b506100ac610160565b6040516100b991906106b0565b60405180910390f35b6100d56100d036600461072f565b610203565b60405190151581526020016100b9565b6100d56100f336600461072f565b6102d2565b34801561010457600080fd5b506101186101133660046107b1565b610391565b6040519081526020016100b9565b34801561013257600080fd5b5060006100d5565b6100d5610148366004610866565b6103a4565b6100d561015b366004610866565b6103b7565b606061018b7f00000000000000000000000000000000000000000000000000000000000000006103cb565b6101b47f00000000000000000000000000000000000000000000000000000000000000006103cb565b6101dd7f00000000000000000000000000000000000000000000000000000000000000006103cb565b6040516020016101ef939291906108a2565b604051602081830303815290604052905090565b600061020d61045e565b8382811461022e5760405163251f56a160e21b815260040160405180910390fd5b3460005b828110156102c257600086868381811061024e5761024e6108fc565b905060200201359050828111156102785760405163044044a560e21b815260040160405180910390fd5b6102a589898481811061028d5761028d6108fc565b905060200281019061029f9190610912565b50600190565b6102b65760009450505050506102ca565b90910390600101610232565b506001925050505b949350505050565b60006102dc61045e565b838281146102fd5760405163251f56a160e21b815260040160405180910390fd5b3460005b828110156102c257600086868381811061031d5761031d6108fc565b905060200201359050828111156103475760405163044044a560e21b815260040160405180910390fd5b61037489898481811061035c5761035c6108fc565b905060200281019061036e9190610912565b826104a9565b6103855760009450505050506102ca565b90910390600101610301565b600061039d8383610584565b9392505050565b60006103ae61045e565b60015b92915050565b60006103c161045e565b6103b182346104a9565b606060006103d8836105b4565b600101905060008167ffffffffffffffff8111156103f8576103f861079b565b6040519080825280601f01601f191660200182016040528015610422576020820181803683370190505b5090508181016020015b600019016f181899199a1a9b1b9c1cb0b131b232b360811b600a86061a8153600a850494508461042c57509392505050565b336001600160a01b037f000000000000000000000000000000000000000000000000000000000000000016146104a757604051634ca8886760e01b815260040160405180910390fd5b565b60006001600160a01b037f00000000000000000000000000000000000000000000000000000000000000001663e30bb5636105256104eb610120870187610933565b8080601f01602080910402602001604051908101604052809392919081815260200183838082843760009201829052509250610584915050565b6040518263ffffffff1660e01b815260040161054391815260200190565b602060405180830381865afa158015610560573d6000803e3d6000fd5b505050506040513d601f19601f8201168201806040525081019061039d919061097a565b600081602001835110156105ab57604051632d0483c560e21b815260040160405180910390fd5b50016020015190565b60008072184f03e93ff9f4daa797ed6e38ed64bf6a1f0160401b83106105f35772184f03e93ff9f4daa797ed6e38ed64bf6a1f0160401b830492506040015b6d04ee2d6d415b85acef8100000000831061061f576d04ee2d6d415b85acef8100000000830492506020015b662386f26fc10000831061063d57662386f26fc10000830492506010015b6305f5e1008310610655576305f5e100830492506008015b612710831061066957612710830492506004015b6064831061067b576064830492506002015b600a83106103b15760010192915050565b60005b838110156106a757818101518382015260200161068f565b50506000910152565b60208152600082518060208401526106cf81604085016020870161068c565b601f01601f19169190910160400192915050565b60008083601f8401126106f557600080fd5b50813567ffffffffffffffff81111561070d57600080fd5b6020830191508360208260051b850101111561072857600080fd5b9250929050565b6000806000806040858703121561074557600080fd5b843567ffffffffffffffff8082111561075d57600080fd5b610769888389016106e3565b9096509450602087013591508082111561078257600080fd5b5061078f878288016106e3565b95989497509550505050565b634e487b7160e01b600052604160045260246000fd5b600080604083850312156107c457600080fd5b823567ffffffffffffffff808211156107dc57600080fd5b818501915085601f8301126107f057600080fd5b8135818111156108025761080261079b565b604051601f8201601f19908116603f0116810190838211818310171561082a5761082a61079b565b8160405282815288602084870101111561084357600080fd5b826020860160208301376000602093820184015298969091013596505050505050565b60006020828403121561087857600080fd5b813567ffffffffffffffff81111561088f57600080fd5b8201610140818503121561039d57600080fd5b600084516108b481846020890161068c565b8083019050601760f91b80825285516108d4816001850160208a0161068c565b600192019182015283516108ef81600284016020880161068c565b0160020195945050505050565b634e487b7160e01b600052603260045260246000fd5b6000823561013e1983360301811261092957600080fd5b9190910192915050565b6000808335601e1984360301811261094a57600080fd5b83018035915067ffffffffffffffff82111561096557600080fd5b60200191503681900382131561072857600080fd5b60006020828403121561098c57600080fd5b8151801515811461039d57600080fdfea2646970667358221220549f5007ce47ba1c14aaa1004a566cbb6adac7b93e0ad7ccc39f2b3233475fa264736f6c63430008130033",
    "linkReferences": {}
  },
  "methodIdentifiers": {
    "attest((bytes32,bytes32,uint64,uint64,uint64,bytes32,address,address,bool,bytes))": "e60c3505",
    "isPayable()": "ce46e046",
    "multiAttest((bytes32,bytes32,uint64,uint64,uint64,bytes32,address,address,bool,bytes)[],uint256[])": "91db0b7e",
    "multiRevoke((bytes32,bytes32,uint64,uint64,uint64,bytes32,address,address,bool,bytes)[],uint256[])": "88e5b2d9",
    "revoke((bytes32,bytes32,uint64,uint64,uint64,bytes32,address,address,bool,bytes))": "e49617e1",
    "toBytes32(bytes,uint256)": "99dd9bd7",
    "version()": "54fd4d50"
  },
  "id": 45
}