{
  "abi": [
    {
      "inputs": [],
      "stateMutability": "nonpayable",
      "type": "constructor"
    },
    {
      "inputs": [],
      "name": "AlreadyExists",
      "type": "error"
    },
    {
      "anonymous": false,
      "inputs": [
        {
          "indexed": true,
          "internalType": "bytes32",
          "name": "uid",
          "type": "bytes32"
        },
        {
          "indexed": true,
          "internalType": "address",
          "name": "registerer",
          "type": "address"
        },
        {
          "components": [
            {
              "internalType": "bytes32",
              "name": "uid",
              "type": "bytes32"
            },
            {
              "internalType": "contract ISchemaResolver",
              "name": "resolver",
              "type": "address"
            },
            {
              "internalType": "bool",
              "name": "revocable",
              "type": "bool"
            },
            {
              "internalType": "string",
              "name": "schema",
              "type": "string"
            }
          ],
          "indexed": false,
          "internalType": "struct SchemaRecord",
          "name": "schema",
          "type": "tuple"
        }
      ],
      "name": "Registered",
      "type": "event"
    },
    {
      "inputs": [
        {
          "internalType": "bytes32",
          "name": "uid",
          "type": "bytes32"
        }
      ],
      "name": "getSchema",
      "outputs": [
        {
          "components": [
            {
              "internalType": "bytes32",
              "name": "uid",
              "type": "bytes32"
            },
            {
              "internalType": "contract ISchemaResolver",
              "name": "resolver",
              "type": "address"
            },
            {
              "internalType": "bool",
              "name": "revocable",
              "type": "bool"
            },
            {
              "internalType": "string",
              "name": "schema",
              "type": "string"
            }
          ],
          "internalType": "struct SchemaRecord",
          "name": "",
          "type": "tuple"
        }
      ],
      "stateMutability": "view",
      "type": "function"
    },
    {
      "inputs": [
        {
          "internalType": "string",
          "name": "schema",
          "type": "string"
        },
        {
          "internalType": "contract ISchemaResolver",
          "name": "resolver",
          "type": "address"
        },
        {
          "internalType": "bool",
          "name": "revocable",
          "type": "bool"
        }
      ],
      "name": "register",
      "outputs": [
        {
          "internalType": "bytes32",
          "name": "",
          "type": "bytes32"
        }
      ],
      "stateMutability": "nonpayable",
      "type": "function"
    },
    {
      "inputs": [],
      "name": "version",
      "outputs": [
        {
          "internalType": "string",
          "name": "",
          "type": "string"
        }
      ],
      "stateMutability": "view",
      "type": "function"
    }
  ],
  "bytecode": {
    "object": "0x60e060405234801561001057600080fd5b506001608052600360a052600060c05260805160a05160c0516108fd61004c600039600060fe0152600060d50152600060ac01526108fd6000f3fe608060405234801561001057600080fd5b50600436106100415760003560e01c806354fd4d501461004657806360d7a27814610064578063a2ea7c6e14610085575b600080fd5b61004e6100a5565b60405161005b91906105a9565b60405180910390f35b6100776100723660046105c3565b610148565b60405190815260200161005b565b610098610093366004610668565b6102a3565b60405161005b9190610681565b60606100d07f00000000000000000000000000000000000000000000000000000000000000006103ad565b6100f97f00000000000000000000000000000000000000000000000000000000000000006103ad565b6101227f00000000000000000000000000000000000000000000000000000000000000006103ad565b604051602001610134939291906106cc565b604051602081830303815290604052905090565b60008060405180608001604052806000801b8152602001856001600160a01b03168152602001841515815260200187878080601f0160208091040260200160405190810160405280939291908181526020018383808284376000920182905250939094525092935091506101bd905082610440565b600081815260208190526040902054909150156101ed5760405163119b4fd360e11b815260040160405180910390fd5b808252600081815260208181526040918290208451815590840151600182018054938601511515600160a01b026001600160a81b03199094166001600160a01b0390921691909117929092179091556060830151839190600282019061025390826107c5565b50905050336001600160a01b0316817fd0b86852e21f9e5fa4bc3b0cff9757ffe243d50c4b43968a42202153d651ea5e846040516102919190610681565b60405180910390a39695505050505050565b60408051608081018252600080825260208201819052918101919091526060808201526000828152602081815260409182902082516080810184528154815260018201546001600160a01b03811693820193909352600160a01b90920460ff161515928201929092526002820180549192916060840191906103249061073c565b80601f01602080910402602001604051908101604052809291908181526020018280546103509061073c565b801561039d5780601f106103725761010080835404028352916020019161039d565b820191906000526020600020905b81548152906001019060200180831161038057829003601f168201915b5050505050815250509050919050565b606060006103ba83610480565b600101905060008167ffffffffffffffff8111156103da576103da610726565b6040519080825280601f01601f191660200182016040528015610404576020820181803683370190505b5090508181016020015b600019016f181899199a1a9b1b9c1cb0b131b232b360811b600a86061a8153600a850494508461040e57509392505050565b600081606001518260200151836040015160405160200161046393929190610885565b604051602081830303815290604052805190602001209050919050565b60008072184f03e93ff9f4daa797ed6e38ed64bf6a1f0160401b83106104bf5772184f03e93ff9f4daa797ed6e38ed64bf6a1f0160401b830492506040015b6d04ee2d6d415b85acef810000000083106104eb576d04ee2d6d415b85acef8100000000830492506020015b662386f26fc10000831061050957662386f26fc10000830492506010015b6305f5e1008310610521576305f5e100830492506008015b612710831061053557612710830492506004015b60648310610547576064830492506002015b600a8310610553576001015b92915050565b60005b8381101561057457818101518382015260200161055c565b50506000910152565b60008151808452610595816020860160208601610559565b601f01601f19169290920160200192915050565b6020815260006105bc602083018461057d565b9392505050565b600080600080606085870312156105d957600080fd5b843567ffffffffffffffff808211156105f157600080fd5b818701915087601f83011261060557600080fd5b81358181111561061457600080fd5b88602082850101111561062657600080fd5b602092830196509450508501356001600160a01b038116811461064857600080fd5b91506040850135801515811461065d57600080fd5b939692955090935050565b60006020828403121561067a57600080fd5b5035919050565b602081528151602082015260018060a01b036020830151166040820152604082015115156060820152600060608301516080808401526106c460a084018261057d565b949350505050565b600084516106de818460208901610559565b8083019050601760f91b80825285516106fe816001850160208a01610559565b60019201918201528351610719816002840160208801610559565b0160020195945050505050565b634e487b7160e01b600052604160045260246000fd5b600181811c9082168061075057607f821691505b60208210810361077057634e487b7160e01b600052602260045260246000fd5b50919050565b601f8211156107c057600081815260208120601f850160051c8101602086101561079d5750805b601f850160051c820191505b818110156107bc578281556001016107a9565b5050505b505050565b815167ffffffffffffffff8111156107df576107df610726565b6107f3816107ed845461073c565b84610776565b602080601f83116001811461082857600084156108105750858301515b600019600386901b1c1916600185901b1785556107bc565b600085815260208120601f198616915b8281101561085757888601518255948401946001909101908401610838565b50858210156108755787850151600019600388901b60f8161c191681555b5050505050600190811b01905550565b60008451610897818460208901610559565b60609490941b6bffffffffffffffffffffffff19169190930190815290151560f81b60148201526015019291505056fea26469706673582212204bff41796f2177c24b62552375d5eab3fc0c4e60770760e3531d10b11a3c3b2764736f6c63430008130033",
    "linkReferences": {}
  },
  "methodIdentifiers": {
    "getSchema(bytes32)": "a2ea7c6e",
    "register(string,address,bool)": "60d7a278",
    "version()": "54fd4d50"
  },
  "id": 38
}