{
  "abi": [
    {
      "inputs": [
        {
          "internalType": "string",
          "name": "name",
          "type": "string"
        }
      ],
      "stateMutability": "nonpayable",
      "type": "constructor"
    },
    {
      "inputs": [],
      "name": "DeadlineExpired",
      "type": "error"
    },
    {
      "inputs": [],
      "name": "InvalidNonce",
      "type": "error"
    },
    {
      "inputs": [],
      "name": "InvalidShortString",
      "type": "error"
    },
    {
      "inputs": [],
      "name": "InvalidSignature",
      "type": "error"
    },
    {
      "inputs": [
        {
          "internalType": "string",
          "name": "str",
          "type": "string"
        }
      ],
      "name": "StringTooLong",
      "type": "error"
    },
    {
      "anonymous": false,
      "inputs": [],
      "name": "EIP712DomainChanged",
      "type": "event"
    },
    {
      "anonymous": false,
      "inputs": [
        {
          "indexed": false,
          "internalType": "uint256",
          "name": "oldNonce",
          "type": "uint256"
        },
        {
          "indexed": false,
          "internalType": "uint256",
          "name": "newNonce",
          "type": "uint256"
        }
      ],
      "name": "NonceIncreased",
      "type": "event"
    },
    {
      "inputs": [],
      "name": "eip712Domain",
      "outputs": [
        {
          "internalType": "bytes1",
          "name": "fields",
          "type": "bytes1"
        },
        {
          "internalType": "string",
          "name": "name",
          "type": "string"
        },
        {
          "internalType": "string",
          "name": "version",
          "type": "string"
        },
        {
          "internalType": "uint256",
          "name": "chainId",
          "type": "uint256"
        },
        {
          "internalType": "address",
          "name": "verifyingContract",
          "type": "address"
        },
        {
          "internalType": "bytes32",
          "name": "salt",
          "type": "bytes32"
        },
        {
          "internalType": "uint256[]",
          "name": "extensions",
          "type": "uint256[]"
        }
      ],
      "stateMutability": "view",
      "type": "function"
    },
    {
      "inputs": [],
      "name": "getAttestTypeHash",
      "outputs": [
        {
          "internalType": "bytes32",
          "name": "",
          "type": "bytes32"
        }
      ],
      "stateMutability": "pure",
      "type": "function"
    },
    {
      "inputs": [],
      "name": "getDomainSeparator",
      "outputs": [
        {
          "internalType": "bytes32",
          "name": "",
          "type": "bytes32"
        }
      ],
      "stateMutability": "view",
      "type": "function"
    },
    {
      "inputs": [],
      "name": "getName",
      "outputs": [
        {
          "internalType": "string",
          "name": "",
          "type": "string"
        }
      ],
      "stateMutability": "view",
      "type": "function"
    },
    {
      "inputs": [
        {
          "internalType": "address",
          "name": "account",
          "type": "address"
        }
      ],
      "name": "getNonce",
      "outputs": [
        {
          "internalType": "uint256",
          "name": "",
          "type": "uint256"
        }
      ],
      "stateMutability": "view",
      "type": "function"
    },
    {
      "inputs": [],
      "name": "getRevokeTypeHash",
      "outputs": [
        {
          "internalType": "bytes32",
          "name": "",
          "type": "bytes32"
        }
      ],
      "stateMutability": "pure",
      "type": "function"
    },
    {
      "inputs": [
        {
          "internalType": "uint256",
          "name": "newNonce",
          "type": "uint256"
        }
      ],
      "name": "increaseNonce",
      "outputs": [],
      "stateMutability": "nonpayable",
      "type": "function"
    },
    {
      "inputs": [
        {
          "components": [
            {
              "internalType": "bytes32",
              "name": "schema",
              "type": "bytes32"
            },
            {
              "components": [
                {
                  "internalType": "address",
                  "name": "recipient",
                  "type": "address"
                },
                {
                  "internalType": "uint64",
                  "name": "expirationTime",
                  "type": "uint64"
                },
                {
                  "internalType": "bool",
                  "name": "revocable",
                  "type": "bool"
                },
                {
                  "internalType": "bytes32",
                  "name": "refUID",
                  "type": "bytes32"
                },
                {
                  "internalType": "bytes",
                  "name": "data",
                  "type": "bytes"
                },
                {
                  "internalType": "uint256",
                  "name": "value",
                  "type": "uint256"
                }
              ],
              "internalType": "struct AttestationRequestData",
              "name": "data",
              "type": "tuple"
            },
            {
              "components": [
                {
                  "internalType": "uint8",
                  "name": "v",
                  "type": "uint8"
                },
                {
                  "internalType": "bytes32",
                  "name": "r",
                  "type": "bytes32"
                },
                {
                  "internalType": "bytes32",
                  "name": "s",
                  "type": "bytes32"
                }
              ],
              "internalType": "struct Signature",
              "name": "signature",
              "type": "tuple"
            },
            {
              "internalType": "address",
              "name": "attester",
              "type": "address"
            },
            {
              "internalType": "uint64",
              "name": "deadline",
              "type": "uint64"
            }
          ],
          "internalType": "struct DelegatedAttestationRequest",
          "name": "request",
          "type": "tuple"
        }
      ],
      "name": "verifyAttest",
      "outputs": [],
      "stateMutability": "nonpayable",
      "type": "function"
    },
    {
      "inputs": [
        {
          "components": [
            {
              "internalType": "bytes32",
              "name": "schema",
              "type": "bytes32"
            },
            {
              "components": [
                {
                  "internalType": "bytes32",
                  "name": "uid",
                  "type": "bytes32"
                },
                {
                  "internalType": "uint256",
                  "name": "value",
                  "type": "uint256"
                }
              ],
              "internalType": "struct RevocationRequestData",
              "name": "data",
              "type": "tuple"
            },
            {
              "components": [
                {
                  "internalType": "uint8",
                  "name": "v",
                  "type": "uint8"
                },
                {
                  "internalType": "bytes32",
                  "name": "r",
                  "type": "bytes32"
                },
                {
                  "internalType": "bytes32",
                  "name": "s",
                  "type": "bytes32"
                }
              ],
              "internalType": "struct Signature",
              "name": "signature",
              "type": "tuple"
            },
            {
              "internalType": "address",
              "name": "revoker",
              "type": "address"
            },
            {
              "internalType": "uint64",
              "name": "deadline",
              "type": "uint64"
            }
          ],
          "internalType": "struct DelegatedRevocationRequest",
          "name": "request",
          "type": "tuple"
        }
      ],
      "name": "verifyRevoke",
      "outputs": [],
      "stateMutability": "nonpayable",
      "type": "function"
    },
    {
      "inputs": [],
      "name": "version",
      "outputs": [
        {
          "internalType": "string",
          "name": "",
          "type": "string"
        }
      ],
      "stateMutability": "view",
      "type": "function"
    }
  ],
  "bytecode": {
    "object": "0x6101c06040523480156200001257600080fd5b50604051620017fc380380620017fc8339810160408190526200003591620001fb565b6040805180820190915260058152640312e332e360dc1b60208201526001608052600360a052600060c081905282919082908290620000769083906200013a565b61018052620000878160016200013a565b6101a052815160208084019190912061014052815190820120610160524661010052620001186101405161016051604080517f8b73c3c69bb8fe3d512ecc4cf759cc79239f7b179b0ffacaa9a75d522b39400f60208201529081019290925260608201524660808201523060a082015260009060c00160405160208183030381529060405280519060200120905090565b60e05250503061012052600262000130838262000342565b5050505062000468565b60006020835110156200015a57620001528362000173565b90506200016d565b8162000167848262000342565b5060ff90505b92915050565b600080829050601f81511115620001aa578260405163305a27a960e01b8152600401620001a191906200040e565b60405180910390fd5b8051620001b78262000443565b179392505050565b634e487b7160e01b600052604160045260246000fd5b60005b83811015620001f2578181015183820152602001620001d8565b50506000910152565b6000602082840312156200020e57600080fd5b81516001600160401b03808211156200022657600080fd5b818401915084601f8301126200023b57600080fd5b815181811115620002505762000250620001bf565b604051601f8201601f19908116603f011681019083821181831017156200027b576200027b620001bf565b816040528281528760208487010111156200029557600080fd5b620002a8836020830160208801620001d5565b979650505050505050565b600181811c90821680620002c857607f821691505b602082108103620002e957634e487b7160e01b600052602260045260246000fd5b50919050565b601f8211156200033d57600081815260208120601f850160051c81016020861015620003185750805b601f850160051c820191505b81811015620003395782815560010162000324565b5050505b505050565b81516001600160401b038111156200035e576200035e620001bf565b62000376816200036f8454620002b3565b84620002ef565b602080601f831160018114620003ae5760008415620003955750858301515b600019600386901b1c1916600185901b17855562000339565b600085815260208120601f198616915b82811015620003df57888601518255948401946001909101908401620003be565b5085821015620003fe5787850151600019600388901b60f8161c191681555b5050505050600190811b01905550565b60208152600082518060208401526200042f816040850160208701620001d5565b601f01601f19169190910160400192915050565b80516020808301519190811015620002e95760001960209190910360031b1b16919050565b60805160a05160c05160e05161010051610120516101405161016051610180516101a051611318620004e4600039600061038f015260006103650152600061091e015260006108f6015260006108510152600061087b015260006108a50152600061028d015260006102640152600061023b01526113186000f3fe608060405234801561001057600080fd5b506004361061009e5760003560e01c806384b0196e1161006657806384b0196e14610133578063b82b7acc1461014e578063b83010d314610161578063dda94e2114610187578063ed24911d1461019a57600080fd5b806312b11a17146100a357806317d7de7c146100d85780632d0335ab146100ed57806354fd4d501461011657806379f7573a1461011e575b600080fd5b7ffeb2925a02bae3dae48d424a0437a2b6ac939aa9230ddc55a1a76f065d9880765b6040519081526020015b60405180910390f35b6100e06101a2565b6040516100cf9190610d81565b6100c56100fb366004610db7565b6001600160a01b031660009081526003602052604090205490565b6100e0610234565b61013161012c366004610dd2565b6102d7565b005b61013b610357565b6040516100cf9796959493929190610deb565b61013161015c366004610fee565b6103df565b7fb5d556f07587ec0f08cf386545cc4362c702a001650c2058002615ee5c9d1e756100c5565b610131610195366004611114565b6103eb565b6100c56103f4565b6060600280546101b1906111bb565b80601f01602080910402602001604051908101604052809291908181526020018280546101dd906111bb565b801561022a5780601f106101ff5761010080835404028352916020019161022a565b820191906000526020600020905b81548152906001019060200180831161020d57829003601f168201915b5050505050905090565b606061025f7f0000000000000000000000000000000000000000000000000000000000000000610403565b6102887f0000000000000000000000000000000000000000000000000000000000000000610403565b6102b17f0000000000000000000000000000000000000000000000000000000000000000610403565b6040516020016102c3939291906111f5565b604051602081830303815290604052905090565b3360009081526003602052604090205480821161030757604051633ab3447f60e11b815260040160405180910390fd5b3360009081526003602090815260409182902084905581518381529081018490527f57b09af877df9068fd60a69d7b21f5576b8b38955812d6ae4ac52942f1e38fb7910160405180910390a15050565b60006060808280808361038a7f000000000000000000000000000000000000000000000000000000000000000083610495565b6103b57f00000000000000000000000000000000000000000000000000000000000000006001610495565b60408051600080825260208201909252600f60f81b9b939a50919850469750309650945092509050565b6103e881610542565b50565b6103e881610732565b60006103fe610844565b905090565b606060006104108361096f565b60010190506000816001600160401b0381111561042f5761042f610e81565b6040519080825280601f01601f191660200182016040528015610459576020820181803683370190505b5090508181016020015b600019016f181899199a1a9b1b9c1cb0b131b232b360811b600a86061a8153600a850494508461046357509392505050565b606060ff83146104af576104a883610a47565b905061053c565b8180546104bb906111bb565b80601f01602080910402602001604051908101604052809291908181526020018280546104e7906111bb565b80156105345780601f1061050957610100808354040283529160200191610534565b820191906000526020600020905b81548152906001019060200180831161051757829003601f168201915b505050505090505b92915050565b60808101516001600160401b0316158015906105735750426001600160401b031681608001516001600160401b0316105b1561059157604051631ab7da6b60e01b815260040160405180910390fd5b6020808201516040808401516060808601518651855186880151868801519488015160808901518051908b012060a08a01516001600160a01b03871660009081526003909c52988b2080549a9b989a98996106b1997ffeb2925a02bae3dae48d424a0437a2b6ac939aa9230ddc55a1a76f065d988076999493928c6106158361124f565b919050558e608001516040516020016106969b9a999897969594939291909a8b526001600160a01b03998a1660208c015260408b01989098529590971660608901526001600160401b03938416608089015291151560a088015260c087015260e0860152610100850193909352610120840152166101408201526101600190565b60405160208183030381529060405280519060200120610a86565b905061070f8460600151828460200151856040015186600001516040516020016106fb93929190928352602083019190915260f81b6001600160f81b031916604082015260410190565b604051602081830303815290604052610ab3565b61072c57604051638baa579f60e01b815260040160405180910390fd5b50505050565b60808101516001600160401b0316158015906107635750426001600160401b031681608001516001600160401b0316105b1561078157604051631ab7da6b60e01b815260040160405180910390fd5b602080820151604080840151606085015185518451858701516001600160a01b0384166000908152600390985294872080549697949694956106b1957fb5d556f07587ec0f08cf386545cc4362c702a001650c2058002615ee5c9d1e7595949392886107ec8361124f565b909155506080808c01516040805160208101999099526001600160a01b039097169688019690965260608701949094529285019190915260a084015260c08301526001600160401b031660e082015261010001610696565b6000306001600160a01b037f00000000000000000000000000000000000000000000000000000000000000001614801561089d57507f000000000000000000000000000000000000000000000000000000000000000046145b156108c757507f000000000000000000000000000000000000000000000000000000000000000090565b6103fe604080517f8b73c3c69bb8fe3d512ecc4cf759cc79239f7b179b0ffacaa9a75d522b39400f60208201527f0000000000000000000000000000000000000000000000000000000000000000918101919091527f000000000000000000000000000000000000000000000000000000000000000060608201524660808201523060a082015260009060c00160405160208183030381529060405280519060200120905090565b60008072184f03e93ff9f4daa797ed6e38ed64bf6a1f0160401b83106109ae5772184f03e93ff9f4daa797ed6e38ed64bf6a1f0160401b830492506040015b6d04ee2d6d415b85acef810000000083106109da576d04ee2d6d415b85acef8100000000830492506020015b662386f26fc1000083106109f857662386f26fc10000830492506010015b6305f5e1008310610a10576305f5e100830492506008015b6127108310610a2457612710830492506004015b60648310610a36576064830492506002015b600a831061053c5760010192915050565b60606000610a5483610b14565b604080516020808252818301909252919250600091906020820181803683375050509182525060208101929092525090565b600061053c610a93610844565b8360405161190160f01b8152600281019290925260228201526042902090565b6000806000610ac28585610b3c565b90925090506000816004811115610adb57610adb611276565b148015610af95750856001600160a01b0316826001600160a01b0316145b80610b0a5750610b0a868686610b81565b9695505050505050565b600060ff8216601f81111561053c57604051632cd44ac360e21b815260040160405180910390fd5b6000808251604103610b725760208301516040840151606085015160001a610b6687828585610c6d565b94509450505050610b7a565b506000905060025b9250929050565b6000806000856001600160a01b0316631626ba7e60e01b8686604051602401610bab92919061128c565b60408051601f198184030181529181526020820180516001600160e01b03166001600160e01b0319909416939093179092529051610be991906112ad565b600060405180830381855afa9150503d8060008114610c24576040519150601f19603f3d011682016040523d82523d6000602084013e610c29565b606091505b5091509150818015610c3d57506020815110155b8015610b0a57508051630b135d3f60e11b90610c6290830160209081019084016112c9565b149695505050505050565b6000807f7fffffffffffffffffffffffffffffff5d576e7357a4501ddfe92f46681b20a0831115610ca45750600090506003610d28565b6040805160008082526020820180845289905260ff881692820192909252606081018690526080810185905260019060a0016020604051602081039080840390855afa158015610cf8573d6000803e3d6000fd5b5050604051601f1901519150506001600160a01b038116610d2157600060019250925050610d28565b9150600090505b94509492505050565b60005b83811015610d4c578181015183820152602001610d34565b50506000910152565b60008151808452610d6d816020860160208601610d31565b601f01601f19169290920160200192915050565b602081526000610d946020830184610d55565b9392505050565b80356001600160a01b0381168114610db257600080fd5b919050565b600060208284031215610dc957600080fd5b610d9482610d9b565b600060208284031215610de457600080fd5b5035919050565b60ff60f81b881681526000602060e081840152610e0b60e084018a610d55565b8381036040850152610e1d818a610d55565b606085018990526001600160a01b038816608086015260a0850187905284810360c0860152855180825283870192509083019060005b81811015610e6f57835183529284019291840191600101610e53565b50909c9b505050505050505050505050565b634e487b7160e01b600052604160045260246000fd5b60405160a081016001600160401b0381118282101715610eb957610eb9610e81565b60405290565b60405160c081016001600160401b0381118282101715610eb957610eb9610e81565b80356001600160401b0381168114610db257600080fd5b600082601f830112610f0957600080fd5b81356001600160401b0380821115610f2357610f23610e81565b604051601f8301601f19908116603f01168101908282118183101715610f4b57610f4b610e81565b81604052838152866020858801011115610f6457600080fd5b836020870160208301376000602085830101528094505050505092915050565b600060608284031215610f9657600080fd5b604051606081018181106001600160401b0382111715610fb857610fb8610e81565b604052905080823560ff81168114610fcf57600080fd5b8082525060208301356020820152604083013560408201525092915050565b60006020828403121561100057600080fd5b81356001600160401b038082111561101757600080fd5b9083019060e0828603121561102b57600080fd5b611033610e97565b8235815260208301358281111561104957600080fd5b830160c0818803121561105b57600080fd5b611063610ebf565b61106c82610d9b565b815261107a60208301610ee1565b60208201526040820135801515811461109257600080fd5b6040820152606082810135908201526080820135848111156110b357600080fd5b6110bf89828501610ef8565b60808301525060a082013560a082015280602084015250506110e48660408501610f84565b60408201526110f560a08401610d9b565b606082015261110660c08401610ee1565b608082015295945050505050565b600081830361010081121561112857600080fd5b611130610e97565b83358152604080601f198401121561114757600080fd5b805192508083018381106001600160401b038211171561116957611169610e81565b815260208581013584528582013584820152820183905261118d8660608701610f84565b9082015261119d60c08501610d9b565b60608201526111ae60e08501610ee1565b6080820152949350505050565b600181811c908216806111cf57607f821691505b6020821081036111ef57634e487b7160e01b600052602260045260246000fd5b50919050565b60008451611207818460208901610d31565b8083019050601760f91b8082528551611227816001850160208a01610d31565b60019201918201528351611242816002840160208801610d31565b0160020195945050505050565b60006001820161126f57634e487b7160e01b600052601160045260246000fd5b5060010190565b634e487b7160e01b600052602160045260246000fd5b8281526040602082015260006112a56040830184610d55565b949350505050565b600082516112bf818460208701610d31565b9190910192915050565b6000602082840312156112db57600080fd5b505191905056fea26469706673582212200080af9c3987f2924409f7f17120efb8985126ec3e7bccec3df2e19e2b857b8a64736f6c63430008130033",
    "linkReferences": {}
  },
  "methodIdentifiers": {
    "eip712Domain()": "84b0196e",
    "getAttestTypeHash()": "12b11a17",
    "getDomainSeparator()": "ed24911d",
    "getName()": "17d7de7c",
    "getNonce(address)": "2d0335ab",
    "getRevokeTypeHash()": "b83010d3",
    "increaseNonce(uint256)": "79f7573a",
    "verifyAttest((bytes32,(address,uint64,bool,bytes32,bytes,uint256),(uint8,bytes32,bytes32),address,uint64))": "b82b7acc",
    "verifyRevoke((bytes32,(bytes32,uint256),(uint8,bytes32,bytes32),address,uint64))": "dda94e21",
    "version()": "54fd4d50"
  },
  "id": 58
}